:020000040800F2
:1000000000000220090A0008FD0900085D5B0008E5
:10001000FD090008FD090008FD09000800000000B6
:10002000000000000000000000000000FD090008C2
:10003000FD09000800000000FD090008E15A000861
:10004000FD090008FD090008FD090008FD09000878
:10005000FD090008FD090008FD090008FD09000868
:10006000FD090008FD090008FD09000869440008B1
:1000700075440008A92F0008814400088D44000839
:100080008D55000869390008FD090008FD090008C0
:10009000FD090008FD090008FD090008FD09000828
:1000A000FD090008FD090008FD090008FD09000818
:1000B000E9300108F5300108013101089D390008D7
:1000C000FD090008A9390008FD09000831290108C7
:1000D0003D290108C1530008ED53000821540008D0
:1000E000FD090008FD09000800000000FD090008E6
:1000F000FD090008FD090008FD090008FD090008C8
:10010000FD090008FD0900080D3101084929010811
:100110005554000889540008FD090008FD0900082D
:10012000FD090008FD0900086D290108A129010841
:10013000C1550008FD090008FD090008FD09000877
:1001400000000000000000000000000000000000AF
:10015000FD090008FD090008FD090008BD5400085C
:10016000B5390008FD090008F15A0008155B0008C0
:10017000FD090008395B0008FD090008FD090008B9
:10018000FD090008FD090008F15400082555000884
:100190005529010861290108FD090008FD09000829
:1001A000FD090008FD090008FD090008FD09000817
:1001B00069410008FD090008FD090008FD09000863
:1001C000FD090008FD090008712A00087D2A0008C1
:1001D000FD090008892A0008FD090008FD0900083A
:1001E000FD090008FD090008FD090008FD090008D7
:1001F000FD090008FD090008FD090008FD090008C7
:10020000FD090008FD090008FD090008FD090008B6
:10021000FD090008FD090008FD090008FD090008A6
:10022000FD090008FD090008FD09000800000000A4
:10023000FD090008FD09000800000000FD09000894
:10024000FD090008FD090008FD090008FD09000876
:10025000FD090008FD090008FD090008FD09000866
:10026000FD090008FD090008FD090008FD09000856
:10027000FD090008FD0900085955000800000000AC
:10028000FD090008FD090008FD0900080000000044
:0802900000000000FD09000858
:1002A00010B5054C237833B9044B13B10448AFF3B0
:1002B00000800123237010BD100600240000000000
:1002C0007064010808B5034B1BB103490348AFF341
:1002D000008008BD000000001406002470640108BE
:1002E00001F0FF01102A2BDB10F0070F08D010F8E7
:1002F000013B013A8B422DD010F0070F42B3F6D1EB
:10030000F0B441EA012141EA014122F007047FF003
:1003100000070023F0E80256083C85EA010586EA5A
:10032000010685FA47F5A3FA87F586FA47F6A5FA96
:1003300087F68EB9EED1F0BC01F0FF0102F00702A2
:1003400032B110F8013B013A83EA010313B1F8D14D
:100350000020704701387047002D06BF354603382E
:10036000073815F0010F07D1013015F4807F02BF67
:10037000013015F4C03F0130F0BC0138704700BFB8
:1003800081F0004102E000BF83F0004330B54FEA46
:1003900041044FEA430594EA050F08BF90EA020FB3
:1003A0001FBF54EA000C55EA020C7FEA645C7FEA46
:1003B000655C00F0E2804FEA5454D4EB5555B8BF69
:1003C0006D420CDD2C4480EA020281EA030382EADA
:1003D000000083EA010180EA020281EA0303362D6C
:1003E00088BF30BD11F0004F4FEA01314FF4801C3F
:1003F0004CEA113102D0404261EB410113F0004F51
:100400004FEA03334CEA133302D0524263EB430307
:1004100094EA050F00F0A780A4F10104D5F1200EA5
:100420000DDB02FA0EFC22FA05F2801841F1000100
:1004300003FA0EF2801843FA05F359410EE0A5F1D4
:1004400020050EF1200E012A03FA0EFC28BF4CF005
:10045000020C43FA05F3C01851EBE37101F00045BB
:1004600007D54FF0000EDCF1000C7EEB00006EEBC8
:100470000101B1F5801F1BD3B1F5001F0CD3490852
:100480005FEA30004FEA3C0C04F101044FEA4452A9
:1004900012F5800F80F09A80BCF1004F08BF5FEA30
:1004A000500C50F1000041EB045141EA050130BD10
:1004B0005FEA4C0C404141EB0101013C28BFB1F522
:1004C000801FE9D291F0000F04BF01460020B1FA6D
:1004D00081F308BF2033A3F10B03B3F120020CDA40
:1004E0000C3208DD02F1140CC2F10C0201FA0CF01E
:1004F00021FA02F10CE002F11402D8BFC2F1200C83
:1005000001FA02F120FA0CFCDCBF41EA0C01904038
:10051000E41AA2BF01EB0451294330BD6FEA040481
:100520001F3C1CDA0C340EDC04F11404C4F120026C
:1005300020FA04F001FA02F340EA030021FA04F37E
:1005400045EA030130BDC4F10C04C4F1200220FAD5
:1005500002F001FA04F340EA0300294630BD21FA13
:1005600004F0294630BD94F0000F83F4801306BFD9
:1005700081F480110134013D4EE77FEA645C18BFCD
:100580007FEA655C29D094EA050F08BF90EA020F64
:1005900005D054EA000C04BF1946104630BD91EA5C
:1005A000030F1EBF0021002030BD5FEA545C05D15F
:1005B0004000494128BF41F0004130BD14F580049E
:1005C0003CBF01F5801130BD01F0004545F0FE4112
:1005D00041F470014FF0000030BD7FEA645C1ABF47
:1005E000194610467FEA655C1CBF0B46024650EA7E
:1005F000013406BF52EA033591EA030F41F40021AA
:1006000030BD00BF90F0000F04BF0021704730B52F
:100610004FF4806404F132044FF000054FF0000104
:1006200050E700BF90F0000F04BF0021704730B5C5
:100630004FF4806404F1320410F0004548BF40429A
:100640004FF000013EE700BF42004FEAE2014FEAEF
:1006500031014FEA02701FBF12F07F4393F07F4FCA
:1006600081F06051704732F07F4208BF704793F0CD
:100670007F4F04BF41F40021704730B54FF46074E0
:1006800001F0004521F000411CE700BF50EA0102E3
:1006900008BF704730B54FF000050AE050EA01028C
:1006A00008BF704730B511F0004502D5404261EBFC
:1006B00041014FF4806404F132045FEA915C3FF43D
:1006C000D8AE4FF003025FEADC0C18BF03325FEADA
:1006D000DC0C18BF033202EBDC02C2F1200300FA8B
:1006E00003FC20FA02F001FA03FE40EA0E0021FAB0
:1006F00002F11444BDE600BF53B94AB9002908BF4E
:1007000000281CBF4FF0FF314FF0FF3000F074B9EC
:10071000ADF1080C6DE904CE00F006F8DDF804E058
:10072000DDE9022304B070472DE9F047089D044637
:100730008E46002B4DD18A42944669D9B2FA82F294
:1007400052B101FA02F3C2F1200120FA01F10CFAD0
:1007500002FC41EA030E94404FEA1C48210CBEFB08
:10076000F8F61FFA8CF708FB16E341EA034306FB91
:1007700007F199420AD91CEB030306F1FF3080F020
:100780001F81994240F21C81023E63445B1AA4B26D
:10079000B3FBF8F008FB103344EA034400FB07F70F
:1007A000A7420AD91CEB040400F1FF3380F00A8150
:1007B000A74240F207816444023840EA0640E41B45
:1007C00000261DB1D4400023C5E900433146BDE8F1
:1007D000F0878B4209D9002D00F0EF800026C5E993
:1007E000000130463146BDE8F087B3FA83F6002EAB
:1007F0004AD18B4202D3824200F2F980841A61EB23
:10080000030301209E46002DE0D0C5E9004EDDE740
:1008100002B9FFDEB2FA82F2002A40F09280A1EB28
:100820000C014FEA1C471FFA8CFE0126200CB1FB7D
:10083000F7F307FB131140EA01410EFB03F0884276
:1008400008D91CEB010103F1FF3802D2884200F203
:10085000CB804346091AA4B2B1FBF7F007FB101195
:1008600044EA01440EFB00FEA64508D91CEB040433
:1008700000F1FF3102D2A64500F2BB800846A4EB8E
:100880000E0440EA03409CE7C6F12007B34022FA79
:1008900007FC4CEA030C20FA07F401FA06F31C43A8
:1008A000F9404FEA1C4900FA06F3B1FBF9F8200CB5
:1008B0001FFA8CFE09FB181140EA014108FB0EF0FB
:1008C000884202FA06F20BD91CEB010108F1FF3A4B
:1008D00080F08880884240F28580A8F10208614457
:1008E000091AA4B2B1FBF9F009FB101144EA014165
:1008F00000FB0EFE8E4508D91CEB010100F1FF3410
:100900006CD28E456AD90238614440EA0840A0FBA7
:100910000294A1EB0E01A142C846A64656D353D07D
:100920005DB1B3EB080261EB0E0101FA07F722FAA1
:1009300006F3F1401F43C5E9007100263146BDE8CA
:10094000F087C2F12003D8400CFA02FC21FA03F32D
:10095000914001434FEA1C471FFA8CFEB3FBF7F0AE
:1009600007FB10360B0C43EA064300FB0EF69E42D3
:1009700004FA02F408D91CEB030300F1FF382FD26C
:100980009E422DD9023863449B1B89B2B3FBF7F614
:1009900007FB163341EA034106FB0EF38B4208D9ED
:1009A0001CEB010106F1FF3816D28B4214D9023E2E
:1009B0006144C91A46EA004638E72E46284605E74C
:1009C0000646E3E61846F8E64B45A9D2B9EB02081D
:1009D00064EB0C0E0138A3E74646EAE7204694E7AD
:1009E0004046D1E7D0467BE7023B614432E73046E0
:1009F00009E76444023842E7704700BF684620F0C8
:100A000007018D46FEE700BF0B480C4A904208B52F
:100A100003D0121A0A4914F049F80A480A4A9042C7
:100A200003D0121A002114F04FF805F00BFB14F05C
:100A300011F800F07DF8FEE7000000241006002405
:100A4000AC64010810060024ECFA0024704700BFD3
:100A5000704700BF2DE9F047304F15460C4605F0B2
:100A6000EFF8B86005B305F1FF38DFF8B8A000254E
:100A70002B4E4FEA5808DFF8B0909AED000A083480
:100A8000274886ED020A13F09BFE254886ED070AEB
:100A900013F0DCFCA84589ED000A05F1010504ED21
:100AA000020A04ED010AE8D105F0CAF8BA6897ED28
:100AB000017A821A3B7807EE902AF8EE677A67EEA1
:100AC000877A4BB10023C7ED057AC7ED037AC7EDEE
:100AD000047A3B70BDE8F08797ED047AD7ED066A9B
:100AE000F4EEC77A97ED037A97ED056AF1EE10FA06
:100AF000F4EEC77AB7EE007AC8BFC7ED047AF1EE1C
:100B000010FA37EE667A48BFC7ED037A27EE067A09
:100B1000A7EEA67A87ED057ABDE8F0872C060024BB
:100B2000189A002404000024449A002400000000C5
:100B300070B500217648774C0126774D2DED068B58
:100B400000F020FA04217248B7EE00AA00F080F904
:100B50006F4800F095F96E48F0EE408A00F090F989
:100B60006B48B0EE409A00F089F907EE900A9FEDCD
:100B70006B8AF8EEE79A05F015FADFED695A07EE91
:100B8000900A0020267089EE296A84ED038A84ED9C
:100B9000048A84ED058AC9EE896AF8EE677A85EEE3
:100BA000867A67EEA67ACAEE276A37EE0A6AC7EE39
:100BB000067AC4ED016AC4ED067A01F015FECAEEAC
:100BC000287A4FF07C539FED570A28466B60EB6004
:100BD0000023C5ED048AAB6185ED020AC5ED057AF7
:100BE00013F0EEFD002385ED070A28462B7040F236
:100BF00001132B854C4B93ED000A85ED020A13F08F
:100C0000DFFD4A4B424885ED070A6B6000F03AF978
:100C100047493F4800F01AF9267084ED038A84EDB5
:100C2000048A84ED058A05F009F8DFED3E9A94ED1B
:100C3000048A404894ED05AA94ED039A01F0C6FD9C
:100C400068EE297A3C489FED308BB0EEE76AF5EE0E
:100C5000C07AFDEEC67AF1EE10FAB8EEE77A17EE3A
:100C6000902A4CBF2D21202136EE476AB7EEC66A86
:100C700026EE086BFDEEC67B17EE903A01F0A6FD5E
:100C80006AEE297A2D48B0EEE76AF5EEC07AFDEEFD
:100C9000C67AF1EE10FAB8EEE77A17EE902A4CBF5A
:100CA0002D21202136EE476AB7EEC66A26EE086B84
:100CB000FDEEC67B17EE903A01F088FD69EE297AC9
:100CC0001F48B0EEE77AF5EEC07AFDEEC77AF1EE96
:100CD00010FAF8EEE76A17EE902A4CBF2D2120217A
:100CE00037EE667AB7EEC77A27EE087BFDEEC77B54
:100CF00017EE903A01F06AFD4FF4FA7004F0A6FF87
:100D000093E700BFAFF300800000000000408F4079
:100D1000480600242C060024189A00240000C07FF6
:100D2000DB0FC9400000C84204000024CDCCCC3DFC
:100D3000550A00086C5F0108805F0108905F010898
:100D4000A05F010838B56FF0F4123A4C00254FF659
:100D50000B730B2104F51C70A362E363A365C4F855
:100D60008430C4F8A030C4F8B430C4F820316561D0
:100D700025626563A56465662567C4F89050C4F86C
:100D8000AC50C4E90052C4E90222C4E90B55C4E9DD
:100D90001055C4E91755C4E92255C4E92955C4E9D9
:100DA0002E55C4F8C05084F88011FF21C4F82C518E
:100DB00084F88111C4F88C51C4E95135C4E96B350C
:100DC000C4E97635C4E98135C4E98C35C4E9973581
:100DD000C4E94955C4E95355C4E96155C4E96D55A1
:100DE000C4E97855C4E98355C4E98E55C4E99955D9
:100DF00001F030FD104940F20F73104AC4F8281377
:100E000004F55071A4F82C3340F201132046C4F8C5
:100E10008052C4F83853C4F83C53C4E9CC13084991
:100E200013F0D4FC054A07490748BDE8384013F0E1
:100E3000CDBC00BF480600240080707F0000002465
:100E40004D0A0008510A0008189A002400F07AB9E7
:100E500038B5044600F07EF9D4F81051204600F071
:100E60009BF9284601F0DEFBD4F81451204600F02F
:100E700093F92846BDE8384001F0D4BB00F086B9AC
:100E800000F064B9183002F01DB800BF0000000087
:100E90002DE9F0414FF60B723749002405460968E9
:100EA00005F1180705F588762DED028B9FED307B57
:100EB000ACB09FED328A02A8ADF80820ADF81C2036
:100EC000ADF83020ADF84420ADF85C20ADF87020CE
:100ED000ADF88420ADF89820022203940A940F9470
:100EE00014941A941F94249429948DED087B8DED0D
:100EF000127B8DED187B8DED227BCDE90444CDE98D
:100F00000D44CDE91D44CDE9274401F0C3FD1C4B40
:100F1000022217A8196801F0BDFD042302A90222CC
:100F2000384601F0C7FD05F1D003C5F8103105F1D1
:100F3000F003C5F814312146384656F8048B01F009
:100F4000D7FF01462846019100F026F90023F0EE74
:100F5000480A019940461A4601F032FB24B12CB0F0
:100F6000BDEC028BBDE8F0810124E4E7AFF3008023
:100F70000000000000000000B05F01086F12033B9A
:100F8000B45F01082DE9F04F04464FF001092DED43
:100F9000028B99B09FED5E8A04F58C7604F59E7500
:100FA000039100F0CDF80399204600F0B7F9594BB2
:100FB0003046B0EE480A196804F5B47B01F0AEFC87
:100FC000554B2846B0EE480A196804F5F67A01F048
:100FD000A5FC524B524AB0EE480A524904F1740043
:100FE0001B6805AF126804F520780968C4F86061D1
:100FF00011AEC4F864510DAD01F040FB4A4B4B4AB1
:1010000058464B491B6812680968CDF8009001F0FA
:1010100039FC484B484A504648491B6812680968E1
:10102000CDF8009001F02EFC072128468DED0D8AA9
:101030008DED0E8A8DED0F8A05F0D6FC95E8070040
:1010400086E807003146584601F044FC95E8070061
:1010500086E807003146504601F03CFC584601F056
:101060004FFC504601F04CFC2046FFF711FF38467C
:1010700001F0F0FB47F612230DF1240E04F51C7C61
:1010800017930223CDF84C901593CDF858904FF05C
:10109000000997E80F008CE80F008EE80F0085E844
:1010A0000F00BDF83830CDF85090ADF84630BDF89F
:1010B0003A301290ADF84430D4E99EE7C4E9A1E794
:1010C00027B13A464946704613F0FEFC3146404689
:1010D00004F02CFB04F5257001F0CEFB30212046F6
:1010E00000F038F8D4F81051204600F055F82846A2
:1010F00001F098FAD4F81451204600F04DF8284633
:1011000019B0BDEC028BBDE8F04F01F08BBA00BF07
:1011100000000000D45F0108D85F0108D05F01081B
:10112000E05F0108DC5F0108B85F0108BC5F0108EF
:10113000C05F0108C45F0108C85F0108CC5F0108F7
:10114000704700BF143001F013BA00BF143001F033
:101150000BBA00BF38B500F1140504462DED028B23
:10116000284601F0F3F9284601F0FEF92846B0EED2
:10117000408A01F0E7F9D0ED007AF8EE677A88EE60
:10118000277ABDEC028B84ED1B7A38BD08B514308C
:1011900001F0D8F9006808BD90ED1B0A704700BF48
:1011A00010B540F203338EB000244FF60B7240F2BC
:1011B0000341ADF8083009A80123ADF81020ADF8BF
:1011C00024202246ADF80C100094029907940C9448
:1011D000CDE90544CDE90A4402F07CF904A80123D5
:1011E00022460399009402F075F909A802F058FA12
:1011F00010B901200EB010BD04A802F051FAA042AF
:101200000CBF022020460EB010BD00BF2DE9F041FA
:1012100003239AB04FF0010800254FF60B740746E0
:10122000CDE91438394BADF84C40CDE91053A3F15A
:101230009F63A3F57D43CDE916581293FFF7B0FFE6
:101240004045064623D0022842D040F60132304BBA
:1012500007F158000BACADF82C200B991895CDF880
:101260006480CDF84A3000F0DBF810A907F1700077
:1012700003F086F9274B0FCB84E80F003A6F214625
:1012800007F1140001F026F91AB0BDE8F08110232F
:101290001F4A06A906908DF828300BAC1E4BCDF8DE
:1012A0004A2007930295CDE91805CDE9080502A863
:1012B00002F086FB0823029A03A92046ADF80C60D1
:1012C0008DF80E50049605930B9500F0E9F8CCE7E5
:1012D00040F60133ADF82C4000200BACADF81830CF
:1012E00001210B4B42460095CDF84A302B460E9516
:1012F000CDE9180106992046CDE90C5502F0EAF82F
:101300002946204602F0D8F9AFE700BF04020404E2
:1013100004060403285F01080704010B2DE9F047C8
:1013200004462DED028B82B0002949D0012140F204
:10133000011200230091ADF804208DF80630354AE3
:101340000127354B04F10409344904F13C0862607B
:1013500040F20272A36040F60663E16004F1280ADD
:101360002285A3872782E762276404F021FE0546D1
:1013700004F06EFC6946064650BB4DB304F15000C4
:101380008DF8067004F090FD072D3ED104F1140590
:101390002046FFF73BFF284601F0E6F82846B0EE6E
:1013A000408A01F0CFF8D0ED007AF8EE677A88EE47
:1013B000277A84ED1B7A02B0BDEC028BBDE8F08782
:1013C00040F2011300918DF80610ADF80430B6E735
:1013D00004F1500004F068FD072D13D04946204663
:1013E00002F042FD0EB9002DD0D15146504601F019
:1013F000ADFE4046414601F0A9FE04F1120000F0A6
:1014000079F9C3E7002EF0D1C0E74946204602F043
:101410002BFDBBE70508050905070506050A0606B5
:1014200030B585B0002504460122ADF80C102B46DE
:101430000399009502F04EF80121204602F03CF994
:10144000012004F003FC2946204602F035F9012072
:1014500004F0FCFB0121204605B0BDE8304002F05D
:101460002BB900BF10B5C2F3002384B00C46017C39
:101470008DF80D2043EA4402FA2402238DF80C2053
:1014800003AA009402F034FB18B10124204604B0F2
:1014900010BD04460A2004F0D9FB204604B010BD5C
:1014A000034670B543F8042B044684B007C983E8AB
:1014B0000700A37983B91A210B461E22FA2523744B
:1014C0002046ADF80C20022303AA009502F010FB81
:1014D00028B1012004B070BD1B210B46EDE70A20A6
:1014E00004F0B4FB4FF4B85200950223ADF80C2081
:1014F000204603AA217C02F0FBFA0028E9D10A2049
:1015000004F0A4FB41F2027200950223ADF80C2016
:10151000204603AA217C02F0EBFA0028D9D10A2048
:1015200004F094FB042200950223ADF80C20204621
:1015300003AA217C02F0DCFA0028CAD10A2004F0B8
:1015400085FB062200950223ADF80C20204603AA55
:10155000217C02F0CDFA0028BBD10A2004F076FBF2
:1015600041F2082200950223ADF80C20204603AA80
:10157000217C02F0BDFA0028ABD10A20064604F017
:1015800065FB0095022303AA217C2046ADF80C6080
:1015900002F0AEFA00289CD1304604F057FB0095CB
:1015A00022790C232046002A8DF80C3003AA4FF034
:1015B000020314BF622142218DF80D10217C02F03C
:1015C00097FA002885D1304604F040FB2279D4E90F
:1015D00002310B43DBB20AB943F0400362790AB12E
:1015E00043F020030E22FA258DF80D302046009599
:1015F00002238DF80C2003AA217C02F079FA00283E
:101600007FF467AF0A2004F021FB1022009502232B
:10161000ADF80C20204603AA217C02F069FA0028CC
:101620007FF457AF0A2004F011FB1221009502232A
:10163000ADF80C1003AA217C204602F059FA0028CC
:101640007FF447AF0A2004F001FB01220921204664
:10165000FFF708FF003818BF01203BE7F0B5102363
:1016600087B0234C012200250126002702A920462D
:101670000195CDE902234FF48052CDE904670DF0C6
:10168000A5F9642005F02AFA02A94FF480522046F9
:10169000CDE9046702261027CDE902670DF096F91F
:1016A0000322102302A92046CDE9022300230422AD
:1016B000CDE904234FF480520DF088F940F2322333
:1016C000042202A9019310232046CDE90223019AA6
:1016D000012305924FF4805204930DF077F940F600
:1016E000060120460DF092F9284607B0F0BD00BF74
:1016F000509A00241C4B00221C494FF0400C30B57E
:10170000054689B00220596007219A601A620124B7
:10171000DA620A224FF4006EDC6006922022CDE9E4
:10172000000104200821CDE9020103201021CDE9A8
:10173000040108206946C3E904024FF4C072181D71
:10174000C3E906C24FF48052C3E909E20DF014F96F
:1017500038B92846FFF782FF003818BF012009B0CA
:1017600030BD204609B030BD4C9A002440410052A3
:10177000614A0021D0B513688EB00A91002B40F069
:10178000B9805E4B01214FF683700C241160022159
:10179000D3F8D4200026032742F48052C3F8D42083
:1017A000D3F8D42002F480520092009AD3F8E020BB
:1017B00042F01002C3F8E020D3F8E02002F010025B
:1017C0000192019AD3F8E02042F04002C3F8E020F1
:1017D000D3F8E02002F040020292029AD3F8E0200F
:1017E00042F00802C3F8E020D3F8E02002F008023B
:1017F0000392039AD3F8E02042F48072C3F8E02009
:10180000D3F8E02002F480720492049AD3F8E02026
:1018100042F08002C3F8E020D3F8E02002F080021A
:101820000592059AD3F8E02042F02002C3F8E020A8
:10183000D3F8E02002F020020692069AD3F8E020C6
:1018400042F00402C3F8E020D3F8E0300C9403F037
:10185000040307930323079A0B93CDE9080108A912
:10186000274807F0C5FA48F23712022308A925488D
:101870000C94CDE90823CDE90A6707F0B9FA4CF2D8
:101880000372022308A920480C94CDE90823CDE96E
:101890000A6707F0ADFA40F2FF62022308A91B486D
:1018A0000C94CDE90823CDE90A6707F0A1FA4FF6B9
:1018B0000C72022308A916480C94CDE90823CDE93F
:1018C0000A6707F095FA4FF63F02022308A911486C
:1018D0000C94CDE90823CDE90A6707F089FA2022A4
:1018E000022308A90A480C94CDE90A67CDE9082328
:1018F00007F07EFA0EB0D0BD489A0024004402588A
:101900000010025800180258000C0258002002581B
:10191000001C0258001402582DE9F04FDFF8108423
:1019200006460D46144608F118002DED028B89B0CD
:1019300000AF02F01DFFD8F8183073B3D8F81C3090
:10194000D8F80490002B43690BBF4FF0080A4FF002
:10195000100A4FF0020B4FF0040BB9F1000F2AD020
:10196000A200EA46012B02F1070222F00702ADEBCA
:10197000020D6846ADEB020D694600F03F81022B77
:1019800000F0D680002B6FD02246C847D5462437BA
:10199000BD46BDEC028BBDE8F08FD8F81C30002BA3
:1019A000F5D0D8F804904FF0080A4FF0020B4369C5
:1019B000B9F1000FD4D1FB61D8F80030BB61002B26
:1019C000E5D0D54802F046FF6B46BBF1020F7861C7
:1019D00008EE103AFB6900F083816A465146A2EB9B
:1019E000C40295466200EA46B2FBFBF2AAEBC400D1
:1019F00085460AEB8200EE46F861ADEB010DF86911
:101A00000EEB820CC7F810C0EC46ADEB010D00EBFD
:101A10008201CCF80400CCF8081001EB820138698F
:101A2000E946CCF80C1000EB8201CCF800A001EBE9
:101A30008202C9E900E0C9E90212012B00F06483C7
:101A4000022B00F06C82002B00F080816208494676
:101A50006046BB69984718EE103A24379D46BD464C
:101A6000BDEC028BBDE8F08F002C8DD01A46D8ED6E
:101A70000C6A9FEDB27A8446331D36F922E00CF1F0
:101A8000080C07EE90EA33F922E00232F8EEE77A2A
:101A9000944267EE877A67EEA67A4CED027A07EEFB
:101AA00090EAF8EEE77A67EE877A67EEA67A4CED71
:101AB000017AE2D8F9612246C847984ED8ED0D6AFE
:101AC0000020F9692B1D9FED9E7A9FED9E6ADFED48
:101AD0009E5A22E0F4EEC67AF1EE10FAC0F2C88403
:101AE00047F6FE72D1ED017A45F8202066EEA77A1E
:101AF000F4EEC77AF1EE10FA40F2F080F4EEC67A16
:101B0000F1EE10FAC0F2D58447F6FE7243F82020B9
:101B10000230083184427FF639AFD1ED007A66EEAB
:101B2000A77AF4EEC77AF1EE10FAD3D83246D9E7A5
:101B3000002C3FF429AFD8ED0C6A84469FED787AEB
:101B40000022331D8E4656F822100CF1080C07EEC9
:101B5000901A53F822100232F8EEE77A944267EEB8
:101B6000877A67EEA67A4CED027A07EE901AF8EEC5
:101B7000E77A67EE877A67EEA67A4CED017AE2D8CB
:101B800071462246C7F81CE0C847664ED8ED0D6A7C
:101B90000020F9692B1D9FED6A7A9FED6A6ADFF8D4
:101BA00094C120E0F4EEC67AF1EE10FAC0F2798426
:101BB0003246D1ED017A45F8202066EEA77AF4EEA0
:101BC000C77AF1EE10FA40F28780F4EEC67AF1EEB1
:101BD00010FAC0F25E84324643F820200230083109
:101BE00084427FF6D3AED1ED007A66EEA77AF4EEAA
:101BF000C77AF1EE10FAD5D86246DAE7002C3FF446
:101C0000C3AED8ED0C6A86469FED477A4FF0000CC4
:101C1000331D56F82C200EF1080E82F40002A2F5B6
:101C2000000207EE902A53F82C200CF1020CF8EE7B
:101C3000E77A82F400026445A2F5000267EE877A33
:101C400067EEA67A4EED027A07EE902AF8EEE77A72
:101C500067EE877A67EEA67A4EED017AD9D8F961F8
:101C60002246C847314ED8ED0D6A0020F9692B1D78
:101C70009FED337A9FED336ADFF8BCC01FE0F4EECE
:101C8000C67AF1EE10FAC0F2FC833246D1ED017A49
:101C900045F8202066EEA77AF4EEC77AF1EE10FA46
:101CA00018D9F4EEC67AF1EE10FAC0F2DA833246B1
:101CB00043F820200230083184427FF667AED1ED30
:101CC000007A66EEA77AF4EEC77AF1EE10FAD6D86B
:101CD0006246DBE76246EBE762467DE7324615E7A0
:101CE000A100D6466208073121F00701ADEB010DD6
:101CF000EA46ADEB010D6946ADEB0E0D0AEB820035
:101D0000EC46ADEB0E0D01EB8202F861E946CCE941
:101D100000A0C9E9001290E6A09A00240280FFFF0B
:101D2000000000300082FF7F0000003482FF7F004F
:101D3000849A0024007E00807E0080FF000000382E
:101D400004FF7FBF04FF7F3F00FEFF46002C00F032
:101D5000C982BBF1020FD8F8242000F0FA82796919
:101D6000C7F8049002EB810E5FED0C5A8A00DCF894
:101D700008100EF104007A611A46DCF80C303B6161
:101D8000331DD7F810903D61FD69C7E902CB8C4641
:101D9000834636F92210D8ED0C7A06EE101A33F984
:101DA000221006EE901A3EF92210B8EEC66A07EE2F
:101DB000101AF8EEE66A3BF92210B8EEC77A26EE62
:101DC000256A66EEA56A27EE257A26EE276A66EE74
:101DD000A76A27EE277A07EE901A51080232F8EE2A
:101DE000E77A0AEB8100944280ED006A05EB8100FE
:101DF00067EEA57AC0ED006A0CEB810009EB81016A
:101E000080ED007A98ED0C7A67EE877AC1ED007A62
:101E1000BFD8D7F804903D69D7E902CB6046620885
:101E2000BB6949469847D8F82C307A69D8ED0D6AD5
:101E30001A441FED3D7A1FED3D6A2B1D904602F1BD
:101E4000040A5FED3F5A0022A84ED9E900EC51E0A8
:101E5000F4EEC67AF1EE10FAC0F2C78247F6FE70D1
:101E600045F822000CEB0100D0ED007A66EEA77A6F
:101E7000F4EEC77AF1EE10FA4BD9F4EEC67AF1EE31
:101E800010FAC0F2BA8247F6FE70BBF1020F43F8B7
:101E900022002BD0D9F808000844D0ED007A66EE75
:101EA000A77AF4EEC77AF1EE10FA36D9F4EEC67AD4
:101EB000F1EE10FAC0F2CD8247F6FE7048F822002B
:101EC000D9F80C000144D1ED007A66EEA77AF4EE61
:101ED000C77AF1EE10FA1ED9F4EEC67AF1EE10FAD6
:101EE000C0F2AF8247F6FE714AF8221002329442E5
:101EF0007FF6B1AD51080EEB81008900D0ED007A7C
:101F000066EEA77AF4EEC77AF1EE10FAA0D8304662
:101F1000A6E73046B9E73146E6E73046CEE7002C83
:101F200000F0E081BBF1020FD8F8243000F0E1812D
:101F30007A69DCF8081003EB820EC7F8049093006E
:101F4000DFED6B5A0EF1040000227B61DCF80C30EF
:101F50003B61331DD7F810903D61FD69C7E902CBA5
:101F60008C46834656F82210D8ED0C7A07EE101AEC
:101F700053F82210B8EEC76A07EE101A5EF8221066
:101F8000F8EEC76A07EE101A26EE256A5BF82210F3
:101F9000B8EEC77A66EEA56A26EE276A27EE257A9E
:101FA00066EEA76A27EE277A07EE901A51080232EA
:101FB000F8EEE77A0AEB8100944280ED006A05EBC7
:101FC000810067EEA57AC0ED006A0CEB810009EB99
:101FD000810180ED007A98ED0C7A67EE877AC1ED89
:101FE000007ABFD8D7F804903D69D7E902CB6046A4
:101FF0006208BB6949469847D8F82C307A69D8ED11
:102000000D6A1A449FED3E7A9FED3E6A131D92467B
:10201000DFF8E4C00022FB612B1D364ED9E9008EAB
:102020004EE0F4EEC67AF1EE10FAC0F2FC813046D2
:1020300045F822000EEB0100D0ED007A66EEA77A9B
:10204000F4EEC77AF1EE10FA49D9F4EEC67AF1EE61
:1020500010FAC0F2EF813046BBF1020F43F82200C4
:102060002AD0D9F808000844D0ED007A66EEA77AA5
:10207000F4EEC77AF1EE10FA35D9F4EEC67AF1EE45
:1020800010FAC0F2C98130464AF82200D9F80C0093
:102090000144D1ED007A66EEA77AF4EEC77AF1EE4C
:1020A00010FA1ED9F4EEC67AF1EE10FAC0F2AD8144
:1020B0003146F86940F82210023294427FF6CBACE8
:1020C000510808EB81008900D0ED007A66EEA77A0E
:1020D000F4EEC77AF1EE10FAA3D86046A8E760469E
:1020E000BAE76146E5E76046CEE700BF0280FFFF42
:1020F000000000300082FF7F007E0080000000347E
:1021000004FF7FBF04FF7F3F002C00F0EB807A6963
:102110000021D8F82430C7F8109003EB820ED7F8CE
:102120001C909300FD610EF104021FED0C6A7B61AF
:10213000331D154656F821204808D8ED0C6ABBF12E
:10214000020F82F40002A2F5000207EE902A53F873
:10215000212082F40002B8EEE77AA2F5000227EE11
:10216000067A07EE902A0AEB8002F8EEE77A27EE6D
:10217000267A67EE867A82ED007A09EB80024FEAD2
:10218000800067EEA67AC2ED007A27D05EF82120A3
:1021900082F40002A2F5000207EE902A55F82120F1
:1021A00082F40002B8EEE77AA2F5000227EE067A82
:1021B00007EE902ADCF80820F8EEE77A024427EED2
:1021C000267A67EE867A82ED007A98ED0C7ADCF852
:1021D0000C2067EE877A0244C2ED007A02318C420D
:1021E000A8D8D7F8109060466208BB694946FD69D7
:1021F0009847D8F82C307A69D8ED0D6A1A441FED4B
:10220000407A1FED406A131D9246DFF8C4C20022D7
:10221000FB612B1DAB4ED9E9008E4EE0F4EEC67A81
:10222000F1EE10FAC0F2C580304645F822000EEB00
:102230000100D0ED007A66EEA77AF4EEC77AF1EEEF
:1022400010FA49D9F4EEC67AF1EE10FAC0F2BF8066
:102250003046BBF1020F43F822002AD0D9F808001B
:102260000844D0ED007A66EEA77AF4EEC77AF1EE74
:1022700010FA35D9F4EEC67AF1EE10FAC0F2AE805B
:1022800030464AF82200D9F80C000144D1ED007A1A
:1022900066EEA77AF4EEC77AF1EE10FA1ED9F4EEE4
:1022A000C67AF1EE10FAC0F28B803146F86940F838
:1022B0002210023294427FF6CEAB510808EB810027
:1022C0008900D0ED007A66EEA77AF4EEC77AF1EED7
:1022D00010FAA3D86046A8E76046BAE76146E5E78A
:1022E0006046CEE7224649466046BB699847FFF7FD
:1022F000B2BBC7F810B0002298ED0C6A331DDFEDB9
:10230000726AD7F81CB0786956F8221007EE901A56
:1023100053F82210B8EEE77A07EE901A510802320D
:10232000F8EEE77A27EE267A0AEB810E94420BEB61
:10233000810167EEA67A27EE067A67EE867A8EED41
:10234000007AC1ED007ADFD88300D7F810B07B6146
:102350004DE61A46C7F810B098ED0C6A331DDFED54
:102360005B6AD7F81CB0786936F9221007EE101AAC
:1023700033F9221007EE901AB8EEC77A51080232EC
:10238000F8EEE77A27EE267A0AEB810E94420BEB01
:10239000810167EEA67A27EE067A67EE867A8EEDE1
:1023A000007AC1ED007ADFD88300D7F810B07B61E6
:1023B00034E5F0EE675AFEEEE45A15EE900A34E783
:1023C000F0EE675AFEEEE45A15EE901A6EE7F0EE64
:1023D000675AFEEEE45A15EE900A3AE7F0EE675AB5
:1023E000FEEEE45A15EE900A4BE767EEA57AFDEE95
:1023F000E77A17EE900A00B232E567EEA57AFDEEB5
:10240000E77A17EE900A00B23FE5F0EE675AFEEE6B
:10241000E05A15EE901A4CE6F0EE675AFEEEE05ADE
:1024200015EE900A30E6F0EE675AFEEEE05A15EE31
:10243000900AFDE5F0EE675AFEEEE05A15EE900ABE
:102440000AE667EEA57AFDEEE77A17EE901A09B272
:102450004AE567EEA57AFDEEE77A17EE900A00B23C
:102460002CE5F0EE675AFEEEE45A15EE902A1FE4D2
:1024700067EEA57AFDEEE77A17EE902A12B2FFF723
:1024800031BBF0EE675AFEEEE45A15EE902AFFF7E4
:10249000FDBBF0EE675AFEEEE05A15EE902AFFF70C
:1024A0009BBBF0EE675AFEEEE05A15EE902AFFF75E
:1024B00080BB67EEA57AFDEEE77A17EE902A12B29E
:1024C000FFF724BB82FF7F000000003000000038CF
:1024D0007E0080FF30B5184C154685B0046004F1CD
:1024E000080EEC460FC98EE80F00D4ED047AF5EE25
:1024F000C07A8CE80F00F1EE10FA1ADDB7EE006A30
:1025000094ED057A27EE277AC6EE276A84ED0D7AD8
:10251000C4ED0C6A6DB1204640F8185F02F028F94E
:10252000064903690020064A2162A262E36005B001
:1025300030BD012005B030BD849A00240020003059
:102540000000003000680830704700BFB1F5807FA0
:1025500003680A4628BF4FF48072B1F5807F9A6005
:1025600094BF0020012070470068183002F060B965
:1025700030B5046883B008480D46A368A26A216A92
:102580009B00009004F1180002F0F4F80020C4E968
:10259000000503B030BD00BF1919000810B4074B87
:1025A0004FF07E5130240022032019619C60D860D6
:1025B0005DF8044B5961C3E906227047849A0024F0
:1025C000F6EE007A9FED166A20EE207A0160F7EEB3
:1025D000006A80ED036A80ED020A27EE277AC6EED4
:1025E000877AF4EEE67AF1EE10FA11DDF0EE667A13
:1025F0004FF07E514FF0000C02760022C0ED017AC0
:10260000C0F814C0016143768276C0ED070A7047B6
:10261000F4EEC67AF1EE10FAEAD5F0EE467AE7E784
:1026200000000000837E80ED020AABB9D0ED077A8E
:1026300027EE800AF6EE007AB7EE007A20EE270A3F
:10264000C7EE007AF4EEC77AF1EE10FA07DDF0EE8D
:10265000477AC0ED017A7047DFED067AE8E7F5EEDC
:10266000C07AF1EE10FAF4D5DFED037AC0ED017A0D
:10267000704700BF6F12033B0000000030B50446F6
:1026800087B00025ADF81410ADF81020ADF80C306F
:1026900003F0D4FA2A462060059904F12C00257134
:1026A0000123009500F016FF01232A46049904F146
:1026B0004000009500F00EFF9FED060A039904F11B
:1026C000080000F02BF94FF6FF73A565A4F854300D
:1026D00007B030BD00000000704700BFF8B5134FD1
:1026E0003C687F2C07D98023114A42F224411C46C2
:1026F0003B60A2F87E100F4D2B68012B0AD90C4EBF
:102700000D4D22463146284600F0A8F90028F8D1A0
:102710003860F8BD22460649074800F09FF90028B6
:10272000F7D12B68386001332B60F8BDC09A0024C4
:10273000C49A0024BC9A0024449B002430B4154C55
:102740002168F1B14B1E144DE81810F801298C4690
:1027500019460A2A01D00D2A02D14BB1013BF4E7F8
:102760000CF102037F2B10D98023236030BC70470B
:102770000122022323600D200A236854AB5430BC8D
:10278000704701220223044DF4E70CF10102614677
:10279000F0E700BFC09A0024C49A002410B5094C89
:1027A00002460B46084821680844C1F1800112F036
:1027B000F3FA236818442060FFF7C0FFFFF78EFF8D
:1027C00010BD00BFC09A0024C49A00240FB400B505
:1027D00083B004A951F8040B0191FFF7DFFF03B0A8
:1027E0005DF804EB04B0704710B5044600210A48B8
:1027F00000F0AEF8002C094B14BF0222002208485A
:102800001A60FFF7E3FF0748FFF7E0FF0A20BDE883
:10281000104003F01BBA00BF449B0024BC9A002464
:10282000E45F0108F45F0108064A0749074808B554
:1028300011F0CCFF034A04490548BDE8084011F0F7
:10284000C5BF00BF00000024D9260008449B002417
:10285000489B0024064A074910B40024C0E90042FE
:102860004FF480725DF8044BC0E90212704700BF5C
:10287000010701060040003000220A2302700371A4
:10288000704700BF30B585B004469FED110A9DF832
:102890002050ADF80C100399ADF808202A46ADF889
:1028A00004308DED000A0FF047F99DED000A2A462D
:1028B000029904F12C000FF03FF99DED000A2A4621
:1028C000019904F1580005B0BDE830400FF034B96B
:1028D00000007A4438B50C46054691ED000A0FF029
:1028E0004DF994ED010A05F12C000FF047F994ED34
:1028F000020A05F15800BDE838400FF03FB900BFAB
:1029000010B504460FF04CF904F12C000FF048F913
:1029100004F15800BDE810400FF042B910B586B080
:102920000446ADF80C10ADF8141003F087F94FF41D
:102930008071002220600123A18004F10800A1839E
:102940000599009200F0C6FD06B010BD704700BFAB
:10295000012910B506D0022915D051B1BDE81040AB
:1029600008F004BE0A46344834490EF0A7FBE8B12B
:10297000FEE7334B0A46334C334934481C600EF0B3
:102980009DFB68B1FEE701222C492B480EF096FB17
:1029900000B1FEE72E4928480EF0B4FBC0B1FEE7B7
:1029A0002B492A480EF0AEFB60B1FEE728492248C9
:1029B0000EF0A8FB00B1FEE726491F480EF01EFBF3
:1029C00008B3FEE7244921480EF018FBA8B1FEE742
:1029D000204919480EF012FB00B1FEE716480EF030
:1029E000B9FB024640B9164B164C174917481C60F4
:1029F0000EF064FB68B1FEE7FEE714480EF0AAFB98
:102A00000028ABD0FEE70C480EF0A4FB0028A5D0B0
:102A1000FEE70F490D480EF075FB00B1FEE70E49C9
:102A20000A480EF0EBFA00B1FEE708480EF092FB00
:102A3000002893D0FEE700BF289E00249C020024BB
:102A400004A100244D290008800200244C9B00248E
:102A5000040300245C02002448020024084691B2CA
:102A600008B503F0DFFB003818BF012008BD00BF28
:102A7000014807F011BE00BFF0DF0024014807F055
:102A80000BBE00BFF0DF0024014807F005BE00BF09
:102A9000F0DF002410B4002383B00324018080F809
:102AA000503080F85120C0E9014303B05DF8044B79
:102AB000704700BF2DE9F04FBE4F0024BE4D8DB0D2
:102AC000037007F140034260804616468946202283
:102AD00021463846C5F88835C5F88475CDE90244E5
:102AE000CDE90444CDE90644CDE90844CDE90A44E2
:102AF00011F0EAFF2022214605F26250C5F8514547
:102B0000C5F85545C5F85945C5F85D4511F0DCFFD8
:102B100085F85065D8F8043085F86846002B62D0F7
:102B200005F5AA6A09F1500B264609EB040128199C
:102B30005222013611F0BAFF4FF0000327F8023B92
:102B40001BF804300AF8013F002B70D0D8F804308D
:102B50004FF0010254349E4285F86826E5D3974A27
:102B6000082195F850350026C5F88C254FF48022B1
:102B700093480027C5F8A4350023C5F89025012205
:102B8000C5F89C1595F86816C5F8943585F8A035F4
:102B9000C5F89825C0E9006700293ED0C5F8B825DA
:102BA00085F8A13585F8A835002298F80030C5F8D9
:102BB000BC25C5F8C025002B40D0012200200121F2
:102BC000013B85F8C4257F4AC2E90001082B37D8AC
:102BD000DFE813F0BD00C200C700CC00D100D60072
:102BE000DB00E100E800C5F89435F6B285F8A035C1
:102BF0000020724B0021C5F8A465C5F88C354FF450
:102C00008023C5F890350123C5F898350823C5F809
:102C10009C3505F5B663C3E90001012385F8A135AC
:102C2000002385F8A8350323C5F8B835BCE7D8F8E4
:102C300004305434B3423FF678AF90E785F8C4359A
:102C4000614804F0AFFB034608B1FFBEFEE702A9EE
:102C50005D48029304F006FD0446002875D1042364
:102C600040F2FF720A90CDE9082395F85035002B09
:102C700000F0F58006234FF05409019309FB04533B
:102C800093F85130072B07D8DFE803F0595C56530F
:102C9000504D4A040723079326B206EB4606C6EBBF
:102CA000C60605EB8608B700404600F035FB09FB79
:102CB000045393F85030042B00F3AD80022B00F343
:102CC000C08000F0BC802B19002283F8402515F845
:102CD000262098F80130002A7CD0022A00F08D804E
:102CE000012A40F0B480012B00F0B380002B374B59
:102CF00018BF0023059305A9019B3348069303F0F1
:102D000051FF002840F0AE80013495F85035E4B210
:102D1000A34240F2A4802E4B53F824300193ADE738
:102D200006230793B8E705230793B5E70423079322
:102D3000B2E703230793AFE702230793ACE700232F
:102D40000793A9E701230793A6E7FFBEFEE7032049
:102D5000402142E9020173E70720602142E90201B4
:102D60006EE70F20802142E9020169E71F20A021C0
:102D700042E9020164E73F20C02142E902015FE726
:102D80007F20E02142E902015AE7FF204FF48071E1
:102D900042E9020154E740F2FF104FF4907142E91A
:102DA00002014DE740F2FF304FF4A07142E9020109
:102DB00046E700BF0041003010A10024002002407F
:102DC000C0A60024E0A600249CA600240002B02592
:102DD00004600108062B36D0072B3CD0022B49D0CB
:102DE000032B49D0002B4BD0012B47D0042B49D0CB
:102DF000052B254B18BF00237CE7042B25D0052B82
:102E00002BD08BB3012B31D0022B31D0032B1F4B96
:102E100018BF00236EE70323143705EB040B4FF0B4
:102E2000000A2F448BF8403538460AF1010A00F0B9
:102E300073FA9BF8403514375345F5DC47E7012317
:102E4000EAE70223E8E7124B54E7124B52E700236C
:102E500050E7114B4EE7114B4CE7114B4AE70DB0D1
:102E6000BDE8F08FFFBEFEE70E4B43E70E4B41E798
:102E70000E4B3FE70E4B3DE70E4B3BE70E4B39E762
:102E80000E4B37E70E4B35E70000B84F0020903669
:102E90000800900C1000C0102000F0148000501D9D
:102EA000000180210004002A0008302E001060324A
:102EB0000040C03A0080F03E00005247000021432D
:102EC0000000844B38B5094C40F2FF724FF00111FD
:102ED00004F28C55284604F073FB94F85025D4F87E
:102EE00084152846BDE8384004F0D2B810A100246B
:102EF000034B0F29D3F8840598BF00EB41007047BE
:102F000010A10024244B02689A4200D07047234A43
:102F100000232348D2F8D81030B5224C41F02001CC
:102F200083B0C4F8F0050920C4F8F83504F5BE658F
:102F3000C4F8F4054FF48060C2F8D8104FF4006173
:102F4000D2F8D820C4F8000694F8680602F02002EF
:102F5000C4F8FC3598420192C4F804164FF40051AD
:102F6000C4F810362846C4F81436019B14BF002359
:102F70004FF48073C4F80816C4F80C3604F09EFDB4
:102F800008B1FFBEFEE704F28C53C4F8D855C4F86C
:102F9000283603B030BD00BF002002400044025874
:102FA0004000024010A10024014805F0CFBB00BF43
:102FB00000A7002402682DE9F84F504B9A4201D037
:102FC000BDE8F88F4E4D95F86836002BF8D095F88F
:102FD0005035002B7BD0002405F13C0905F26256E8
:102FE00005F5AA67A04613E003F0010117F811BC2C
:102FF000A9F1280000F060FBBBF1010F25D895F87E
:103000005035013409F154090236A2B293422BD94A
:1030100017F8012F002AF4D0D5F884350021327832
:1030200033F81400D5F8883503EB041323F81200A5
:10303000338801339BB233805FFA83FA3A789A423D
:10304000D2D88A46A6F80080D0E7CAF34001A9F199
:10305000140000F031FBBBF1020FCAF38001CED0A7
:10306000484600F029FBCAE7002395F86806254981
:1030700009229842C5F8F8354FF48060C5F8F0157C
:10308000C5F8F4254FF400614FF40052C5F8FC3543
:1030900008BF4FF48073C5F80006C5F80416C5F8DC
:1030A000082600221848C5F80C36C5F81026C5F8C1
:1030B000142604F003FD08B1FFBEFEE795F8502585
:1030C000D5F884151148BDE8F84F03F0E1BF0D496C
:1030D00009224FF48060C5F8F835C5F8F0154FF4B3
:1030E0000061C5F8F4254FF40052C5F8FC35C5F869
:1030F0000006C5F80416C5F80826D2E700200240ED
:1031000010A100244000024000A700249CA6002437
:10311000704700BF0C4B4FF60B71002203F5A860FF
:103120001980DA6099821A6219855A6399879A64BC
:10313000C3E90122C3E90622C3E90B22C3E9102235
:1031400054339842ECD1704710A1002484460FC933
:103150008CE80F009CF800300B2B30D09CF801203D
:103160000F2A2CD8022900B591B041D0032902D0F2
:10317000012900D000210C91DCF80810012902D0AF
:10318000022918BF00210D91DCF80C10022904D08F
:10319000032902D0012918BF00210A2B0E910FD854
:1031A0005B4800EB8320CCF810000A2B17D8DFE82F
:1031B00003F0A0928476685A4C3E30220900704792
:1031C0000020F0E7534BD3F8E01041F48061C3F8DE
:1031D000E010D3F8E03003F480630A930A9B0123E4
:1031E0000BA993400B9305F003FE11B05DF804FBAF
:1031F00011210C91C0E7474BD3F8E01041F4007166
:10320000C3F8E010D3F8E03003F400730993099B8E
:10321000E5E7404BD3F8E01041F48071C3F8E010CB
:10322000D3F8E03003F480730893089BD7E7394B59
:10323000D3F8E01041F08001C3F8E010D3F8E0309B
:1032400003F080030793079BC9E7324BD3F8E010E4
:1032500041F04001C3F8E010D3F8E03003F0400340
:103260000693069BBBE72B4BD3F8E01041F02001FF
:10327000C3F8E010D3F8E03003F020030593059B7A
:10328000ADE7244BD3F8E01041F01001C3F8E01093
:10329000D3F8E03003F010030493049B9FE71D4B29
:1032A000D3F8E01041F00801C3F8E010D3F8E030A3
:1032B00003F008030393039B91E7164BD3F8E01048
:1032C00041F00401C3F8E010D3F8E03003F0040348
:1032D0000293029B83E70F4BD3F8E01041F0020109
:1032E000C3F8E010D3F8E03003F002030193019B30
:1032F00075E7084BD3F8E01041F00101C3F8E01086
:10330000D3F8E03003F001030093009B67E700BFB0
:10331000000002580044025803780B2B2DD042784D
:103320000F2A2AD84168022910B590B03ED003294F
:1033300002D0012900D000210C918168012902D01E
:10334000022918BF00210D91C168022904D0032968
:1033500002D0012918BF00210A2B0E910ED85B4C18
:1033600004EB832404610A2B17D8DFE803F009A0DB
:10337000928476685A4C3E30220070470024F1E770
:10338000534BD3F8E01041F00101C3F8E010D3F83B
:10339000E03003F001030093009B01230BA92046BA
:1033A00093400B9305F024FD10B010BD11210C913A
:1033B000C3E7474BD3F8E01041F48061C3F8E01055
:1033C000D3F8E03003F480630A930A9BE5E7404BAF
:1033D000D3F8E01041F40071C3F8E010D3F8E03006
:1033E00003F400730993099BD7E7394BD3F8E01036
:1033F00041F48071C3F8E010D3F8E03003F4807337
:103400000893089BC9E7324BD3F8E01041F08001E4
:10341000C3F8E010D3F8E03003F080030793079B74
:10342000BBE72B4BD3F8E01041F04001C3F8E010AC
:10343000D3F8E03003F040030693069BADE7244B3E
:10344000D3F8E01041F02001C3F8E010D3F8E030E9
:1034500003F020030593059B9FE71D4BD3F8E01075
:1034600041F01001C3F8E010D3F8E03003F010038E
:103470000493049B91E7164BD3F8E01041F0080148
:10348000C3F8E010D3F8E03003F008030393039B84
:1034900083E70F4BD3F8E01041F00401C3F8E010CC
:1034A000D3F8E03003F004030293029B75E7084B66
:1034B000D3F8E01041F00201C3F8E010D3F8E03097
:1034C00003F002030193019B67E700BF000002586D
:1034D0000044025810B592B0ADF804100180C9B292
:1034E000149C0B29C460C0E901233FD090F801C0AF
:1034F000BCF10F0F3AD8022A3FD0032A02D0012A8A
:1035000000D000220E92012B02D0022B18BF002304
:10351000022C0F932CD0032C2AD0012C28D000236E
:103520000A29109327D85C4A02EB812202610A29FA
:1035300014D8DFE801F0A39587796B5D4F413325FF
:103540000600564BD3F8E01041F48061C3F8E01058
:10355000D3F8E03003F480630C930C9B01230DA996
:10356000104603FA0CF30D9305F042FC12B010BDA7
:103570000A291094D7D90022D8E711220E92C2E767
:10358000464BD3F8E01041F40071C3F8E010D3F8D3
:10359000E03003F400730B930B9BDFE73F4BD3F852
:1035A000E01041F48071C3F8E010D3F8E03003F488
:1035B00080730A930A9BD1E7384BD3F8E01041F0AF
:1035C0008001C3F8E010D3F8E03003F080030993E2
:1035D000099BC3E7314BD3F8E01041F04001C3F839
:1035E000E010D3F8E03003F040030893089BB5E700
:1035F0002A4BD3F8E01041F02001C3F8E010D3F8D3
:10360000E03003F020030793079BA7E7234BD3F891
:10361000E01041F01001C3F8E010D3F8E03003F0FF
:1036200010030693069B99E71C4BD3F8E01041F07A
:103630000801C3F8E010D3F8E03003F00803059365
:10364000059B8BE7154BD3F8E01041F00401C3F85C
:10365000E010D3F8E03003F004030493049B7DE70B
:103660000E4BD3F8E01041F00201C3F8E010D3F89C
:10367000E03003F002030393039B6FE7074BD3F89B
:10368000E01041F00101C3F8E010D3F8E03003F09E
:1036900001030293029B61E70000025800440258B4
:1036A00008B5012143780069994089B205F0A2FD6F
:1036B000003818BF012008BD01230A46417800697F
:1036C00003FA01F189B205F09BBD00BF10B50023DC
:1036D00086B0122204460493CDE902230368022B2C
:1036E0001FDC002B01DB0423059323790A2B1FD851
:1036F000114800EB83206279012301A993400193D3
:1037000005F076FBA3790A2B14D80B4800EB832035
:10371000E279012301A99340019305F069FB06B00A
:1037200010BD032BE1D10623059323790A2BDFD9A2
:103730000020E0E70020EBE700000258634A03683E
:10374000934210B58CB028D0614A934258D0614A58
:10375000934200F09480604A934201D00CB010BDB7
:103760005E4C5F48D4F8E03043F00203C4F8E03028
:10377000D4F8E03003F002030A930A9BFFF7A6FF98
:10378000D4F8F43043F08003C4F8F430D4F8F430C3
:1037900003F080030B930B9BE0E7504C5148D4F8A7
:1037A000E03043F00203C4F8E030D4F8E03003F036
:1037B00002030193019BFFF789FFD4F8E830002250
:1037C0001F2043F400131146C4F8E830D4F8E83061
:1037D00003F400130293029BD4F8D83043F00103A2
:1037E000C4F8D830D4F8D83003F001030393039B16
:1037F00003F0B2FF1F200CB0BDE8104003F0EABF99
:10380000364C3948D4F8E03043F08003C4F8E03057
:10381000D4F8E03003F080030493049BD4F8E03044
:1038200043F00203C4F8E030D4F8E03003F00203C0
:103830000593059BFFF74AFFD4F8E83000222120CA
:1038400043F480031146C4F8E830D4F8E83003F4B8
:1038500080030693069BD4F8D83043F00103C4F8E4
:10386000D830D4F8D83003F001030793079B03F056
:1038700073FF21200CB0BDE8104003F0ABBF1B4824
:10388000FFF724FF154B00224820D3F8E8401146EB
:1038900044F40004C3F8E840D3F8E84004F400041A
:1038A0000894089CD3F8D84044F00104C3F8D840E9
:1038B000D3F8D83003F001030993099B03F04CFFC0
:1038C00048200CB0BDE8104003F084BF0054004015
:1038D00000580040005C0040001C005800440258A2
:1038E00020AA002480A7002460A8002440A9002466
:1038F0002DE9F0431A4B87B000254FF010099E4682
:10390000EC46184BFF22E04667461A700EF1180687
:103910000EF13004CDE90055CDE90255ADF8009027
:10392000BCE80F00CDE90455AEE80F009CE80300A9
:103930000095ADF800908EE80300B8E80F000FC6C0
:103940009CE803000095ADF8009086E803000FCFD7
:103950000FC49CE8030084E8030007B0BDE8F083CF
:10396000080000247CA7002410B5EFF3108472B681
:10397000084B1A78120602D504B962B610BD187841
:10398000054B40B2C0EBC00003EB4010143004F014
:10399000DDFEF1E77CA7002480A70024014806F0A3
:1039A00069BD00BF0CA80024014806F063BD00BF3C
:1039B000ECA80024014806F05DBD00BFCCA900249E
:1039C0002DE9F0430D6885B0404EC5EBC503032DCE
:1039D0004FEA431706EB4313036041DCCA680C4609
:1039E000012A3DD84FEAC5084CD020689C46616842
:1039F000A8EB0509A2680DF1100EE36806EB491962
:103A0000ACE80F00324B227C8CF80020D9F808C0BB
:103A10000FCB0EE90F000EEB8503BCF1010F53F83D
:103A2000103CC9F88C3032D0BCF1020F43D0BCF14D
:103A3000000F36D0227C8C37A8EB050500233744D5
:103A4000520006EB451601213846C6F8AC30C6E9EF
:103A50002521C6E92733C6E9293306F0CDF918B187
:103A6000012005B0BDE8F0830146384606F00EFDA2
:103A70000028F5D10146384606F032FD003818BF5F
:103A80000120EEE70A7C103A672AAED9E8E702F097
:103A900087FA104B98420CBF0F4B104BC9F890306F
:103AA000C8E702F07DFA0B4B98420CBF0C4B0D4B54
:103AB000C9F89030BEE702F073FA064B98420CBF8B
:103AC000094B0A4BC9F89030B4E700BF80A7002427
:103AD000385F0108000E27072D0FB0303211D020BB
:103AE0005F4390608A62E030200BA0101A098010BA
:103AF0002DE9F041D0F8008082B00D4617461E46F1
:103B000008F18C04204606F0BDFC2028FAD1D8F834
:103B10000C3073B96D002046089C33463A46A9B272
:103B2000009406F0BFF9003818BF012002B0BDE8CC
:103B3000F081089B32463946204606F071FBF2E7D9
:103B4000094B6FF0F41110225960C3F8E4101A7495
:103B500083F8F020C3F8C41183F8D021C3F8A4126D
:103B600083F8B022704700BF80A7002430B500233F
:103B700095B04FF48071062204460B93069213937E
:103B8000CDE90C13CDE90E33CDE9113302F010FA73
:103B900007282BD004F1100541F2883206A92846E7
:103BA00007F014FE28B10123184684F85C3015B0E4
:103BB00030BD0222022306A92846CDE900231022A7
:103BC0000123CDE9022300224FF48003CDE9042331
:103BD00005224FF0807306926A460F9341F28833B4
:103BE00007F060FF0028DED115B030BD03230120AF
:103BF00084F85C3015B030BD70B50023A4B04FF030
:103C000080724FF480750446ADF806300D93CDE90F
:103C100010320122CDE90E53CDE91223CDE9143340
:103C2000002943D0F02300F1100508AEADF80630AE
:103C3000C02341F2883231462846089307F0C6FD7A
:103C400028B10123184684F85C3024B070BD41F2DD
:103C500088320DF10601284607F022FE03460028AF
:103C6000EFD105224FF480711E93284616924FF033
:103C700080721B9321931F9202AA9FED1F7BCDE9B7
:103C80001C13CDE922338DED027B9FED1D7B41F2AC
:103C9000883316A98DED047B9FED1B7B8DED067B94
:103CA00007F000FF0028CCD124B070BD00F1100552
:103CB00008AE612341F2883231462846089307F066
:103CC00085FD0028BDD141F288320DF1060128465C
:103CD00007F064FE0028B4D1BDF80630204623F07A
:103CE000780343F04003ADF80630FFF73FFF0028AC
:103CF0009ED0A6E7AFF300800000000001000000A6
:103D00001000000001000000000000000000400062
:103D10002DE9F04F00234FF4807501264FF0807895
:103D200004462DED028BABB08DF807301393219331
:103D3000299314950E96CDF85C80CDE91533CDE925
:103D40001863CDE91A33CDE92253CDE92433CDE907
:103D5000273306231C9302F02BF9072808D004F11F
:103D6000100741F288321CA9384607F02FFD40B1F8
:103D70000123184684F85C302BB0BDEC028BBDE803
:103D8000F08F4FF0020A4FF0020B4FF0050941F29D
:103D9000883308AA1CA93846CDF89480CDF87090D5
:103DA0009FED2D8BCDE908AB4FF0000A4FF4800B4F
:103DB0008DED0A8BCDE90CAB07F074FE0028D7D14E
:103DC00041F2883238460EA907F000FD0028CFD115
:103DD000402341F288320DF1070138468DF8073053
:103DE00007F05EFD0028C3D141F288330EA902AA74
:103DF0003846CDF83890CDF85C809FED197B8DED7D
:103E0000048BCDE906AB8DED027B07F04BFE03463C
:103E10000028ADD1CDF870904FF00109CDF8948015
:103E20004FF00008219308AA29931CA9384622952F
:103E3000CDE92333CDE9273341F288338DED0A8B69
:103E4000CDE90CABCDE9088907F02CFE002893D012
:103E5000304684F85C608FE710000000010000002D
:103E60004000000040000000F0B55F4CA3B00D46DC
:103E7000046002F09DF8072844D028682346AA6809
:103E8000696807C3AA89184620F8042B257B667B3E
:103E900007F08AFC80BB554A012DE06122614FF09A
:103EA000010214BF4FF480134FF4000393FAA3F3FD
:103EB000C4E90522002B00F08880B3FA83F3013BAC
:103EC00000224FF480774A48C4E90837C4E90B223E
:103ED00007F00EFC80B966230B90139041F28832F4
:103EE00006A90693CDE90C70CDE90E00CDE91100CD
:103EF0003F4807F06BFC58B10123184684F85C304A
:103F000023B0F0BD0323012084F85C3023B0F0BD62
:103F1000992341F2883206A93548069307F056FCEA
:103F20000028E9D105231C9019906A4614934FF09C
:103F30008073219014A91D9341F288339FED247B57
:103F4000CDE91A70CDE91F008DED007B9FED227B3E
:103F500027488DED027B9FED227B8DED047B07F0E2
:103F6000A1FD0028C8D129461F48FFF745FE0028BB
:103F7000C2D11D48FFF7CCFE0028BDD1002EBFD115
:103F80001890EB2300261A9714934FF440630027F0
:103F900006AA1B934FF4404314A91C930623CDE9B2
:103FA0001F004FF08050199321904FF040701D90EA
:103FB0004FF400501790A02016900D48CDE90667E9
:103FC00007F0E8FD00289BD096E71F2378E700BFA5
:103FD00000000000010000001000000001000000CF
:103FE000000000000000400000AB00240050005220
:103FF00010AB00243F4B02682DE9F0439A428DB08C
:104000004FF00004CDE90744CDE909440B9402D0F8
:104010000DB0BDE8F083384B05AD38490DF11A07F6
:10402000D3F8D4200126DFF8D89042F48042DFF89C
:10403000D480C3F8D420D3F8D42002F48042009274
:10404000009AD3F8E02042F04002C3F8E020D3F811
:10405000E02002F040020192019AD3F8E02042F001
:104060002002C3F8E020D3F8E02002F02002029200
:10407000029AD3F8E02042F01002C3F8E020D3F80F
:10408000E02002F010020392039AD3F8E02042F0FD
:104090000202C3F8E020D3F8E03003F002030493F7
:1040A000049B03C90590ADF8181059F8043F00208F
:1040B00007A91A785B780A2A099406FA03F398BFCD
:1040C00008EB822015F8012B079302230B9208932B
:1040D00003230A9304F08CFEAF42E6D100225C2059
:1040E000114603F039FB5C2003F074FB0DB0BDE812
:1040F000F08300BF005000520044025844600108A1
:104100005CAB0024000002580268F8B5124B9A42DA
:1041100000D0F8BD114A0126114CD2F8D430114F0D
:1041200004F1180523F48043C2F8D43054F8043F56
:1041300000201A7859780A2A06FA01F198BF07EB8D
:10414000822089B204F08EFFA542EFD15C20BDE849
:10415000F84003F04DBB00BF00500052004402582D
:104160005CAB002400000258014807F09FBD00BF6F
:1041700010AB00240B4B6FF0F412991C981D10B477
:104180001C1D9A60C3E90022C3E9183103F10A0239
:1041900003F10801C3E91A40C3E91C125DF8044B9E
:1041A000704700BF00AB002438B5036871B9026ADC
:1041B00000F1280500F5AC74012A0CBF0021402154
:1041C0008BBB1D4B5722C0F858310DE0426A00F1FD
:1041D000C00500F5E874012A0CBF00214021EBB1B5
:1041E000164B5A22C0F8D03100232046C4E90121E1
:1041F0004FF480524FF48061636262614FF48042F9
:10420000C4E903314FF48073C4E906234FF400334B
:10421000236203F053FC58B1FFBEFEE7084B58225F
:10422000C0F8D031E0E7074B5922C0F85831DBE73E
:10423000C5E92044A56338BD10000240700002406B
:1042400028000240580002402DE9F043C28889B09E
:1042500081468388ADF800200089B9F80A10B9F8C2
:104260000C20ADF80230D9F81830ADF80400ADF8E4
:104270000610ADF80820002B3FD0D9F81C70B7FA13
:1042800087F77F09012502236C460DF10A06DFF846
:1042900070800695CDE9043599F804202078824293
:1042A000627818D0D9F80010F9B1012902D1F8B11B
:1042B0000A2107910A2805FA02F203A994BF08EB24
:1042C00080200020039204F093FD0234A642E3D143
:1042D00009B0BDE8F08399F805109142E2D1002FB2
:1042E000F3D0D9F800100029DFD106210791E1E7CA
:1042F000022A0CBF08210A21DBE70127C2E700BF21
:1043000000000258534A0368934230B505468BB00B
:1043100055D02032934252D04F4A934204D020329B
:10432000934201D00BB030BD4C4C4D48D4F8E03036
:1043300043F00103C4F8E030D4F8E03003F00103A7
:104340000593059BD4F8E03043F00803C4F8E0304F
:10435000D4F8E03003F008030693069BD4F8E0306D
:1043600043F04003C4F8E030D4F8E03003F04003F9
:104370000793079BD4F8F03043F40003C4F8F030FF
:10438000D4F8F03003F400030893089BFFF75CFFB8
:10439000D4F8D830296843F001032F4A3048C4F8D4
:1043A000D830891AD4F8D83018BF012103F001039E
:1043B0000993099B0BB0BDE83040FFF7F5BE274CD1
:1043C0002848D4F8E03043F00103C4F8E030D4F8D2
:1043D000E03003F001030093009BD4F8E03043F099
:1043E0001003C4F8E030D4F8E03003F01003019378
:1043F000019BD4F8E03043F04003C4F8E030D4F837
:10440000E03003F040030293029BD4F8F03043F411
:104410008003C4F8F030D4F8F03003F48003039341
:10442000039BFFF711FFD4F8D830296843F001034C
:10443000084A0C48C4F8D830891AD4F8D83018BFC4
:10444000012103F001030493049B0BB0BDE830404D
:10445000FFF7AABE04580140045C01400044025822
:10446000D4AD002478AB0024014804F06FB900BF3C
:10447000D0AC0024014804F069B900BF48AD002465
:10448000014804F063B900BF2CAF0024014804F0D8
:104490005DB900BFA4AF00241A4A0368934210B468
:1044A0000BD02032934208D0174A934216D02032C4
:1044B000934213D05DF8044B7047144B0022D3F89D
:1044C0005442C3F85822002CF4D0D3F84802D3E960
:1044D000931223465DF8044B520818470B4B0022F9
:1044E000D3F8B044C3F8B424002CE3D0D3F8AC2400
:1044F000D3F8A814D3F8A404520823465DF8044B5B
:10450000184700BF04580140045C014078AB002408
:10451000184A0368934210B40BD02032934208D05B
:10452000154A934217D02032934214D05DF8044BC1
:104530007047124BD3E994245208C3F85822002C38
:10454000F4D0D3E99201234601EB820100EB820013
:104550005DF8044B1847094BD3F8AC24D3F8B044AA
:104560005208C3F8B424002CE0D0D3F8A814D3F830
:10457000A404E8E704580140045C014078AB00243F
:104580002DE9F0470C684FF41776774F86B004FB9F
:1045900006F6012C07EB0608C0F8008000F39F80A8
:1045A00000230D468E46C446C8F85032C8E99233FF
:1045B00069A3D3E900236AA1D1E90001CDE902236F
:1045C00006AB03EB8403CDE9040153F810AC53F8B8
:1045D000089CBEE80F00ACE80F00BEE80F00ACE896
:1045E0000F009EE80300C8F828A0C8F8C0908CE827
:1045F00003002B69042B0CD8DFE803F078828C963B
:1046000003004FF41773594A03FB04739A64C3F809
:10461000E020AA692B6A002A42D0002B4FF41773BE
:1046200008BF022203FB047318BF0322DA620122CF
:104630001A63EA696B6A002A3FD1191E4FF4177397
:1046400018BF012103FB0473C3E931126969012911
:1046500043D0022947D1032500214FF4177306F1F7
:1046600028002A46019103FB0473002438445C644B
:104670005C63DC65C3F8DC40C3F8CC40C3F8F440AD
:10468000C3E90F44C3E91544C3E93544C3E93B44D6
:10469000022309F011FF019900284FD0FFBEFEE769
:1046A000191E4FF4177318BF012103FB0473C3E9EC
:1046B0000B12EA696B6A002ABFD0002B4FF4177304
:1046C0000CBF0222032203FB0473C3F8C42001229F
:1046D000C3F8C82069690129BBD10225BDE70120C3
:1046E00006B0BDE8F08700252946B6E74FF41773FA
:1046F0004FF4FA5203FB04739A64C3F8E02088E78E
:104700004FF417734FF47A5203FB04739A64C3F89F
:10471000E0207EE74FF417734FF4FA4203FB047373
:104720009A64C3F8E02074E74FF417734BF68032B5
:1047300003FB04739A64C3F8E0206AE706F1C00043
:1047400002232A46384409F0B7FE0028C8D0FFBE2D
:10475000FEE700BFAFF3008004580140045C014055
:1047600024580140245C014078AB0024007701000C
:104770000068704770B5046882B015460E46C4F8EC
:104780005032C4E99212069AC4F85422A269012A4E
:1047900026D0626A012A9AB211D0294604F1C000DB
:1047A000019209F043FF236A019A012B10D0294698
:1047B00004F1280009F03AFF002002B070BD04F1B6
:1047C000C000019209F0C4FF236A019A012BEED1C7
:1047D000314604F1280009F0BBFF002002B070BD93
:1047E000226A012A9AB211D0294604F128000192C6
:1047F00009F01CFF636A019A012B10D0294604F1CD
:10480000C00009F013FF002002B070BD04F12800C1
:10481000019209F09DFF636A019A012BEED13146A6
:1048200004F1C00009F094FF002002B070BD00BF89
:1048300003681B69042B05D8044A02EB830393ED3C
:10484000000A70479FED020A704700BF4C600108E4
:1048500000803B470368D3F858027047064B6FF05F
:10486000F4124FF60B71C3E901229981A3F8681283
:10487000C3E99822704700BF78AB00241F4BC16882
:104880000268F0B5D3F88C5083B00369ADB24D1B0C
:10489000A2B1AB4212D00446866811D2F018E91AD0
:1048A000CDE9001001F004F90023DDE90010D4E99E
:1048B0000062B047E3682561AB421BD003B0F0BD96
:1048C000F018C91ACDE9000101F0F2F80023DDE982
:1048D0000001D4E90072B8473046294601F0E8F8F3
:1048E00000233046626829462668B047E3682561A0
:1048F000AB42E3D10023236103B0F0BD00000240CE
:104900002DE9F84F04460F4690461E4600F1340547
:1049100028460AF097FB2028FAD14FF48063002044
:10492000C4F8D830C4F850314FF44033C4F8D40040
:10493000C4F8E830C4F860314E4BC4F8E400C4F861
:10494000C83003F57A73C4F8EC00C4F84031402352
:10495000C4F8D000C4F84831E369C4F84C01C4F885
:104960005C01C4F86401C4E93700C4E95500072BB1
:104970000BD8DFE803F061535A373E454C0451230E
:10498000C4F8CC305223C4F8443104F5A079484629
:1049900003F094F808B1FFBEFEE7C4F8B090C4F885
:1049A0007851EFF3108972B6DFF8D0B094F91C306B
:1049B000DFF8CCA08BF800300A9B2F4CCAF80030EF
:1049C0000B9B23600EB11846B0471FFA88F2394698
:1049D00028460AF033F8B0BBB9F1000F00D162B637
:1049E000BDE8F88F3F23C4F8CC304023C4F84431ED
:1049F000CBE74123C4F8CC304223C4F84431C4E7A8
:104A00004723C4F8CC304823C4F84431BDE74F23D2
:104A1000C4F8CC305023C4F84431B6E72B23C4F893
:104A2000CC302C23C4F84431AFE72D23C4F8CC306C
:104A30002E23C4F84431A8E72923C4F8CC302A2314
:104A4000C4F84431A1E7FF238BF800300023CAF8F3
:104A5000003023600A9B3BB10B980121984701204D
:104A6000B9F1000FBCD1BAE70120B9F1000FB7D1FD
:104A7000B5E700BF88000240B0BF0024ACBF0024EF
:104A8000A8BF00242DE9F84F04460F4690461E4665
:104A900000F1340528460AF0D5FA2028FAD14FF45F
:104AA00080630020C4F8D830C4F850314FF440334C
:104AB000C4F8D400C4F8E830C4F860314E4BC4F8F0
:104AC000E400C4F8C83003F57A73C4F8EC00C4F805
:104AD00040314023C4F8D000C4F84831E369C4F839
:104AE0004C01C4F85C01C4F86401C4E93700C4E9AE
:104AF0005500072B0BD8DFE803F061535A373E45CA
:104B00004C045123C4F8CC305223C4F8443104F18E
:104B1000C809484602F0D2FF08B1FFBEFEE7C4F85C
:104B2000B490C4F80051EFF3108972B6DFF8D0B03A
:104B300094F91C30DFF8CCA08BF800300A9B2F4C86
:104B4000CAF800300B9B23600EB11846B0471FFA1D
:104B500088F2394628460AF023FFB0BBB9F1000FAE
:104B600000D162B6BDE8F88F3F23C4F8CC304023B3
:104B7000C4F84431CBE74123C4F8CC304223C4F815
:104B80004431C4E74723C4F8CC304823C4F8443147
:104B9000BDE74F23C4F8CC305023C4F84431B6E706
:104BA0002B23C4F8CC302C23C4F84431AFE72D2399
:104BB000C4F8CC302E23C4F84431A8E72923C4F824
:104BC000CC302A23C4F84431A1E7FF238BF800300E
:104BD0000023CAF8003023600A9B3BB10B980121E7
:104BE00098470120B9F1000FBCD1BAE70120B9F113
:104BF000000FB7D1B5E700BF88000240B0BF002466
:104C0000ACBF0024A8BF00242DE9F0410D4682B0BE
:104C1000EFF3108772B6002948D1FF23254A264CAE
:104C2000237013682BB1002029461060234A1068B6
:104C3000984723781B0625D5DFF888800025204E6D
:104C4000444605E001351C3406F5DC76092D19D003
:104C5000A369012B1BD0002BF4D121683046002919
:104C6000F0D06369019323690093E3682289FFF719
:104C700009FF0028E6D1C5EBC50508EB850348F818
:104C80002500586007B962B602B0BDE8F0816168DE
:104C90000029D7D063693046019323690093E36804
:104CA0002289FFF72DFE0028CCD1E4E70AF0F2FDBF
:104CB000B3E700BFA8BF0024ACBF0024B0BF0024EE
:104CC00030B0002450000024F0B5002387B0022249
:104CD00004460493CDE90223C369007E5D000B28DE
:104CE00021D1A07E0B2802D1002007B0F0BD454A9B
:104CF0006B1C454952F823304D780A781978E47EC8
:104D00008A424CD088425AD0D978DE1C91424ED08B
:104D100088426DD099799E1D8A4265D088426CD0B8
:104D2000012007B0F0BD374B374953F825300A78DA
:104D300091F801E0197894F819C08A4222D088428B
:104D400025D0D978DE1C8A4225D0884233D0997983
:104D50009E1D8A4227D08842E2D1DB796345DFD1AC
:104D600033469B780A28059308D90020012301A91E
:104D700003FA0CF3019304F03BF8B2E7234B03EB87
:104D80008020F3E75E787645DBD08842D9D1597828
:104D90006145D6D1E5E71F797745D6D1D7E75E786B
:104DA000AE42AFD1B0E7DA797245D4D1B8E71F7916
:104DB000AF42ADD1AEE719796145C8D1D0E7597896
:104DC000A142A1D19B780A28059309D9002001238B
:104DD00001A9A340019304F00BF8002007B0F0BD37
:104DE0000A4B03EB8020F2E7DA79AA4296D197E7E3
:104DF0001979A1428ED13346E4E7DB79A3428FD102
:104E00003346DFE7680100246401002400000258F3
:104E1000B34A0368934270B5A4B000F03D82A2F596
:104E20004C42934200F03A8202F58062934200F0D5
:104E3000378202F58062934200F0348202F580628C
:104E4000934200F0338202F54442934200F02C82F8
:104E5000A2F51C42934200F02B8202F5806293423D
:104E600000F028829F4A934240F0268208259E4CFB
:104E70004FF4DC7000FB0540837E0A2B19D8DFE875
:104E800013F0B701C501D301E101EF01FD017F017D
:104E90008D019B01A9010B00944BD3F8E02042F453
:104EA0008062C3F8E020D3F8E03003F480631E93FF
:104EB0001E9B037E0A2B19D8DFE813F03801460148
:104EC0005401CB00D900E700F50003011C012A01C1
:104ED0000B00864BD3F8E02042F48062C3F8E02058
:104EE000D3F8E03003F480631393139B4FF4DC7327
:104EF00003FB0543DB69082B13D8DFE803F03A48CE
:104F0000566472808E9C0500784BD3F8F42042F0F2
:104F10000802C3F8F420D3F8F43003F00803089330
:104F2000089BFFF7D1FE012801D1FFBEFEE74FF439
:104F3000DC7324AA6E4E0DF17C0C03FB0544E3697F
:104F400002EB43050FCEACE80F0033680022ACF84B
:104F50000030114635F9140C02F0FEFBE36924AA77
:104F600002EB430333F9140C24B0BDE8704002F0A7
:104F700031BC5E4BD3F8F02042F01002C3F8F020B1
:104F8000D3F8F03003F010030093009BC9E7574BB0
:104F9000D3F8E82042F40032C3F8E820D3F8E83030
:104FA00003F400330193019BBBE7504BD3F8E82097
:104FB00042F48022C3F8E820D3F8E83003F48023D9
:104FC0000293029BADE7494BD3F8E82042F400225C
:104FD000C3F8E820D3F8E83003F400230393039BDD
:104FE0009FE7424BD3F8E82042F48012C3F8E82050
:104FF000D3F8E83003F480130493049B91E73B4B10
:10500000D3F8F02042F02002C3F8F020D3F8F030BB
:1050100003F020030593059B83E7344BD3F8E82086
:1050200042F08042C3F8E820D3F8E83003F0804330
:105030000693069B75E72D4BD3F8E82042F000421B
:10504000C3F8E820D3F8E83003F000430793079B48
:1050500067E7264BD3F8E02042F00802C3F8E020CF
:10506000D3F8E03003F008030C930C9B3EE71F4B92
:10507000D3F8E02042F01002C3F8E020D3F8E0308B
:1050800003F010030D930D9B30E7184BD3F8E0208D
:1050900042F02002C3F8E020D3F8E03003F0200310
:1050A0000E930E9B22E7114BD3F8E02042F0400212
:1050B000C3F8E020D3F8E03003F040030F930F9BD8
:1050C00014E70A4BD3F8E02042F08002C3F8E02056
:1050D000D3F8E03003F080031093109B06E700BF85
:1050E00000100140000C005830B000240044025869
:1050F000485F0108724BD3F8E02042F48072C3F895
:10510000E020D3F8E03003F480731193119BEDE6B7
:105110006B4BD3F8E02042F40072C3F8E020D3F8E0
:10512000E03003F400731293129BDFE6644BD3F874
:10513000E02042F00102C3F8E020D3F8E03003F0B1
:1051400001030993099BD1E65D4BD3F8E02042F0BF
:105150000202C3F8E020D3F8E03003F002030A9320
:105160000A9BC3E6564BD3F8E02042F00402C3F892
:10517000E020D3F8E03003F004030B930B9BB5E67B
:105180004F4BD3F8E02042F04002C3F8E020D3F8C0
:10519000E03003F040031A931A9B8AE6484BD3F899
:1051A000E02042F08002C3F8E020D3F8E03003F0C2
:1051B00080031B931B9B7CE6414BD3F8E02042F419
:1051C0008072C3F8E020D3F8E03003F480731C93BE
:1051D0001C9B6EE63A4BD3F8E02042F40072C3F811
:1051E000E020D3F8E03003F400731D931D9B60E6CC
:1051F000334BD3F8E02042F00102C3F8E020D3F8AB
:10520000E03003F001031493149B52E62C4BD3F8C7
:10521000E02042F00202C3F8E020D3F8E03003F0CF
:1052200002031593159B44E6254BD3F8E02042F08A
:105230000402C3F8E020D3F8E03003F0040316932F
:10524000169B36E61E4BD3F8E02042F00802C3F866
:10525000E020D3F8E03003F008031793179B28E60B
:10526000174BD3F8E02042F01002C3F8E020D3F847
:10527000E03003F010031893189B1AE6104BD3F894
:10528000E02042F02002C3F8E020D3F8E03003F041
:1052900020031993199B0CE60025E8E50125E6E5B6
:1052A0000225E4E50325E2E50525E0E50425DEE544
:1052B0000625DCE50725DAE500239B7EFFDE00BF3F
:1052C000004402582DE9F04F91B0002301223A49E1
:1052D0000DF1240A09938B4601F11C09CAF8143018
:1052E0005446CDF800A001F13808CDF804A001F132
:1052F0005407CDF808A001F17006CDF80CA001F11B
:105300008C05CDF814A001F1C40E01F1E00CCAE93E
:105310000133CAE903330F92FF22284B1A7001F1BF
:10532000A803CDE906AA0493BAE80F00ABE80F0082
:105330009AE807008BE807000FCC009CA9E80F0053
:105340009AE8070089E807000FCC019CA8E80F0045
:105350009AE8070088E807000FCC029C0FC79AE87C
:10536000070087E807000FCC039C0FC69AE80700E8
:1053700086E807000FCC0FC59AE80700059C85E872
:1053800007000FCC049C0FC49AE8070084E80700CC
:10539000069C0FCCAEE80F009AE80700079C8EE849
:1053A00007000FCCACE80F009AE807008CE8070074
:1053B00011B0BDE8F08F00BF50000024ACBF002446
:1053C00010B5094C04F1340009F01EFC237D1BB11B
:1053D000636BDB69DB0600D410BD2046FFF74EFA95
:1053E000636B10221A6210BD30B0002410B50B4C54
:1053F00004F5F67009F008FC94F8CC3123B1D4F828
:10540000EC31DB69DB0600D410BD04F5DC70FFF77E
:1054100035FAD4F8EC3110221A6210BD30B00024F5
:1054200010B50B4C04F5697009F0EEFB94F8843369
:1054300023B1D4F8A433DB69DB0600D410BD04F536
:105440005C70FFF71BFAD4F8A43310221A6210BD67
:1054500030B0002410B50B4C04F25C5009F0D4FBC2
:1054600094F83C3523B1D4F85C35DB69DB0600D415
:1054700010BD04F5A560FFF701FAD4F85C351022E1
:105480001A6210BD30B0002410B50B4C04F2147039
:1054900009F0BAFB94F8F43623B1D4F81437DB6979
:1054A000DB0600D410BD04F5DC60FFF7E7F9D4F8A3
:1054B000143710221A6210BD30B0002410B50B4C06
:1054C00004F6CC0009F0A0FB94F8AC3823B1D4F872
:1054D000CC38DB69DB0600D410BD04F69800FFF77A
:1054E000CDF9D4F8CC3810221A6210BD30B00024A7
:1054F00010B50B4C04F6842009F086FB94F8643A4E
:1055000023B1D4F8843ADB69DB0600D410BD04F57E
:105510002560FFF7B3F9D4F8843A10221A6210BD5F
:1055200030B0002410B50B4C04F63C4009F06CFB85
:1055300094F81C3C23B1D4F83C3CDB69DB0600D476
:1055400010BD04F60840FFF799F9D4F83C3C10224E
:105550001A6210BD30B0002410B50B4C04F6F450A4
:1055600009F052FB94F8D43D23B1D4F8F43DDB6943
:10557000DB0600D410BD04F55C60FFF77FF9D4F8BA
:10558000F43D10221A6210BD30B0002410B5EFF3C4
:10559000108472B6084B1A78120602D504B962B6A6
:1055A00010BD1B784FF4DC7204485BB202FB0300B1
:1055B000C83003F0CBF8F1E7ACBF002430B00024D2
:1055C00010B5EFF3108472B6094B1A78120602D5A3
:1055D00004B962B610BD1B784FF4DC7205485BB2AB
:1055E00002FB030000F5A07003F0B0F8F0E700BF85
:1055F000ACBF002430B000240021FFF705BB00BF82
:10560000214A036893422BD0A2F54C42934229D001
:1056100002F58062934227D002F58062934225D042
:1056200002F58062934223D002F54442934221D096
:10563000A2F51C4293421FD002F5806293421DD016
:10564000124A93421CD108224FF4DC71104B01FB2B
:105650000233197D11B11846FFF710B9FFF7D4BA1C
:105660000022F1E70122EFE70222EDE70322EBE758
:105670000422E9E70522E7E70622E5E70722E3E758
:1056800000231B7DFFDE00BF00100140000C00580E
:1056900030B00024204A0368934229D0A2F54C423E
:1056A000934227D002F58062934225D002F58062B2
:1056B000934223D002F58062934221D002F5444206
:1056C00093421FD0A2F51C4293421DD002F5806286
:1056D00093421BD0114A93421AD1082310484FF429
:1056E000DC7202FB0300037D03B97047FFF7C6B805
:1056F0000023F3E70123F1E70223EFE70323EDE7BC
:105700000423EBE70523E9E70623E7E70723E5E7BB
:1057100000231B7DFFDE00BF00100140000C00587D
:1057200030B000240121FFF76FBA00BF2DE9F0412E
:105730004F684FF4DC76DFF8C0808E4607FB06F634
:105740000C46082F08EB0605056005F1180CBEE8AD
:105750000F00ACE80F009EE807008CE8070002D8B5
:105760006B6A022B02D90120BDE8F0812A6A032A64
:10577000F9D8A96A0229F6D8E86A0228F3D80131D3
:10578000DFF878C0343689005CF8277046446F63D0
:10579000A469A9641549AC6351F823306B64144BB8
:1057A00053F82230134A2B64002352F820100122B0
:1057B0003046EB65E963C5E91333C5E915320AF0F4
:1057C00069F80028CFD1014630460AF031F90028A7
:1057D000C9D1014630460AF06DF90028C3D13046E0
:1057E0000AF008F90028BED12875BDE784600108D9
:1057F00090600108A060010830B0002460600108DA
:105800005A4B0122002147F6122030B46FF0F414F5
:105810001A6259629C61C3F8D041C3F88843C3F847
:105820004045C3F84825C3F84C15C3F85425C3F8C0
:105830005805C3F8F846C3F80027C3F80417C3F89F
:105840000C27C3F81007C3F8B048C3F8B828C3F84A
:10585000BC18C3F8C428C3F8C808C3F8684A444D44
:10586000C3E90B20C3E97621C3E97920C3E9E42128
:10587000C3E9E720C3F8702AC3F8204CC3F8D84D19
:105880003C4CC3F8741AC3F87C2AC3F8800AC3F8E6
:10589000282CC3F82C1CC3F8342CC3F8380CC3F8DC
:1058A000E02DC3F8E41DC3F8EC2D2188A278C3F8DD
:1058B000F00D314B3148A3F803105A71D9801A7298
:1058C0002F4B2A72E980A3F803102E4D5A71D9800C
:1058D0001A722D4BE9802A72A0F803104271C18020
:1058E0000272A3F803105A71D98020681A72040C4E
:1058F000264B274D1880A3F803105A71D9801A72CD
:105900009C70244BE980A3F803105A71D9801A7255
:10591000214B2A72A3F803105A71D9801A721F4BB7
:1059200018809C70A3F803105A71D9801A721C4B0E
:1059300018809C70A3F803105A71D9801A72194B01
:1059400018809C701848A3F803105A71D9801A72F5
:10595000164BA0F803104271C1800272A3F8031025
:105960005A71D9801A7230BC704700BF30B0002421
:10597000F801002464010024100200240402002421
:1059800028020024EC0100241C020024D8BF0024BB
:10599000D401002434020024E0010024B4BF002418
:1059A000CCBF0024C0BF0024580100244C010024B7
:1059B0003E4B00220B20114610B5D3F8D84082B0E0
:1059C00044F00104C3F8D840D3F8D84004F00104EF
:1059D0000094009CD3F8D84044F00204C3F8D840A7
:1059E000D3F8D83003F002030193019B01F0B4FE19
:1059F0000B2001F0EFFE00220C20114601F0ACFE5E
:105A00000C2001F0E7FE00220D20114601F0A4FE5B
:105A10000D2001F0DFFE00220E20114601F09CFE59
:105A20000E2001F0D7FE00220F20114601F094FE57
:105A30000F2001F0CFFE00221020114601F08CFE55
:105A4000102001F0C7FE00223C20114601F084FE28
:105A50003C2001F0BFFE00221120114601F07CFE27
:105A6000112001F0B7FE00223820114601F074FE2B
:105A7000382001F0AFFE00223920114601F06CFE03
:105A8000392001F0A7FE00223A20114601F064FE01
:105A90003A2001F09FFE00223B20114601F05CFEFF
:105AA0003B2002B0BDE8104001F094BE0044025813
:105AB000203100290FDD20F01F00BFF34F8F064A71
:105AC0000144C2F85C0220300B1A002BF9DCBFF352
:105AD0004F8FBFF36F8F704700ED00E0704700BF3E
