:020000040800F2
:1000000000000220190A00080D0A000835780008CF
:100010000D0A00080D0A00080D0A00080000000083
:100020000000000000000000000000000D0A0008B1
:100030000D0A0008000000000D0A0008B97700084A
:100040000D0A00080D0A00080D0A00080D0A000834
:100050000D0A00080D0A00080D0A00080D0A000824
:100060000D0A00080D0A00080D0A00084161000889
:100070004D6100087D4C0008596100086561000869
:10008000657200083D5600080D0A00080D0A0008B8
:100090000D0A00080D0A00080D0A00080D0A0008E4
:1000A0000D0A00080D0A00080D0A00080D0A0008D4
:1000B000C14D0108CD4D0108D94D01087156000808
:1000C0000D0A00087D5600080D0A000809460108BF
:1000D0001546010899700008C5700008F9700008FD
:1000E0000D0A00080D0A0008000000000D0A0008B3
:1000F0000D0A00080D0A00080D0A00080D0A000884
:100100000D0A00080D0A0008E54D01082146010806
:100110002D710008617100080D0A00080D0A000821
:100120000D0A00080D0A0008454601087946010835
:10013000997200080D0A00080D0A00080D0A00084F
:1001400000000000000000000000000000000000AF
:100150000D0A00080D0A00080D0A00089571000834
:10016000895600080D0A0008C9770008ED770008D5
:100170000D0A0008117800080D0A00080D0A000891
:100180000D0A00080D0A0008C9710008FD71000879
:100190002D460108394601080D0A00080D0A00081D
:1001A0000D0A00080D0A00080D0A00080D0A0008D3
:1001B000415E00080D0A00080D0A00080D0A00083B
:1001C0000D0A00080D0A00084547000851470008BD
:1001D0000D0A00085D4700080D0A00080D0A000816
:1001E0000D0A00080D0A00080D0A00080D0A000893
:1001F0000D0A00080D0A00080D0A00080D0A000883
:100200000D0A00080D0A00080D0A00080D0A000872
:100210000D0A00080D0A00080D0A00080D0A000862
:100220000D0A00080D0A00080D0A00080000000071
:100230000D0A00080D0A0008000000000D0A000861
:100240000D0A00080D0A00080D0A00080D0A000832
:100250000D0A00080D0A00080D0A00080D0A000822
:100260000D0A00080D0A00080D0A00080D0A000812
:100270000D0A00080D0A0008317200080000000095
:100280000D0A00080D0A00080D0A00080000000011
:08029000000000000D0A000847
:1002A00010B5054C237833B9044B13B10448AFF3B0
:1002B00000800123237010BD880700240000000087
:1002C000CCB4010808B5034B1BB103490348AFF395
:1002D000008008BD000000008C070024CCB4010899
:1002E000034613F8012B002AFBD1181A0138704776
:1002F00001F0FF01102A2BDB10F0070F08D010F8D7
:10030000013B013A8B422DD010F0070F42B3F6D1DA
:10031000F0B441EA012141EA014122F007047FF0F3
:1003200000070023F0E80256083C85EA010586EA4A
:10033000010685FA47F5A3FA87F586FA47F6A5FA86
:1003400087F68EB9EED1F0BC01F0FF0102F0070292
:1003500032B110F8013B013A83EA010313B1F8D13D
:100360000020704701387047002D06BF354603381E
:10037000073815F0010F07D1013015F4807F02BF57
:10038000013015F4C03F0130F0BC0138704700BFA8
:1003900081F0004102E000BF83F0004330B54FEA36
:1003A00041044FEA430594EA050F08BF90EA020FA3
:1003B0001FBF54EA000C55EA020C7FEA645C7FEA36
:1003C000655C00F0E2804FEA5454D4EB5555B8BF59
:1003D0006D420CDD2C4480EA020281EA030382EACA
:1003E000000083EA010180EA020281EA0303362D5C
:1003F00088BF30BD11F0004F4FEA01314FF4801C2F
:100400004CEA113102D0404261EB410113F0004F40
:100410004FEA03334CEA133302D0524263EB4303F7
:1004200094EA050F00F0A780A4F10104D5F1200E95
:100430000DDB02FA0EFC22FA05F2801841F10001F0
:1004400003FA0EF2801843FA05F359410EE0A5F1C4
:1004500020050EF1200E012A03FA0EFC28BF4CF0F5
:10046000020C43FA05F3C01851EBE37101F00045AB
:1004700007D54FF0000EDCF1000C7EEB00006EEBB8
:100480000101B1F5801F1BD3B1F5001F0CD3490842
:100490005FEA30004FEA3C0C04F101044FEA445299
:1004A00012F5800F80F09A80BCF1004F08BF5FEA20
:1004B000500C50F1000041EB045141EA050130BD00
:1004C0005FEA4C0C404141EB0101013C28BFB1F512
:1004D000801FE9D291F0000F04BF01460020B1FA5D
:1004E00081F308BF2033A3F10B03B3F120020CDA30
:1004F0000C3208DD02F1140CC2F10C0201FA0CF00E
:1005000021FA02F10CE002F11402D8BFC2F1200C72
:1005100001FA02F120FA0CFCDCBF41EA0C01904028
:10052000E41AA2BF01EB0451294330BD6FEA040471
:100530001F3C1CDA0C340EDC04F11404C4F120025C
:1005400020FA04F001FA02F340EA030021FA04F36E
:1005500045EA030130BDC4F10C04C4F1200220FAC5
:1005600002F001FA04F340EA0300294630BD21FA03
:1005700004F0294630BD94F0000F83F4801306BFC9
:1005800081F480110134013D4EE77FEA645C18BFBD
:100590007FEA655C29D094EA050F08BF90EA020F54
:1005A00005D054EA000C04BF1946104630BD91EA4C
:1005B000030F1EBF0021002030BD5FEA545C05D14F
:1005C0004000494128BF41F0004130BD14F580048E
:1005D0003CBF01F5801130BD01F0004545F0FE4102
:1005E00041F470014FF0000030BD7FEA645C1ABF37
:1005F000194610467FEA655C1CBF0B46024650EA6E
:10060000013406BF52EA033591EA030F41F4002199
:1006100030BD00BF90F0000F04BF0021704730B51F
:100620004FF4806404F132044FF000054FF00001F4
:1006300050E700BF90F0000F04BF0021704730B5B5
:100640004FF4806404F1320410F0004548BF40428A
:100650004FF000013EE700BF42004FEAE2014FEADF
:1006600031014FEA02701FBF12F07F4393F07F4FBA
:1006700081F06051704732F07F4208BF704793F0BD
:100680007F4F04BF41F40021704730B54FF46074D0
:1006900001F0004521F000411CE700BF50EA0102D3
:1006A00008BF704730B54FF000050AE050EA01027C
:1006B00008BF704730B511F0004502D5404261EBEC
:1006C00041014FF4806404F132045FEA915C3FF42D
:1006D000D8AE4FF003025FEADC0C18BF03325FEACA
:1006E000DC0C18BF033202EBDC02C2F1200300FA7B
:1006F00003FC20FA02F001FA03FE40EA0E0021FAA0
:1007000002F11444BDE600BF53B94AB9002908BF3D
:1007100000281CBF4FF0FF314FF0FF3000F074B9DC
:10072000ADF1080C6DE904CE00F006F8DDF804E048
:10073000DDE9022304B070472DE9F047089D044627
:100740008E46002B4DD18A42944669D9B2FA82F284
:1007500052B101FA02F3C2F1200120FA01F10CFAC0
:1007600002FC41EA030E94404FEA1C48210CBEFBF8
:10077000F8F61FFA8CF708FB16E341EA034306FB81
:1007800007F199420AD91CEB030306F1FF3080F010
:100790001F81994240F21C81023E63445B1AA4B25D
:1007A000B3FBF8F008FB103344EA034400FB07F7FF
:1007B000A7420AD91CEB040400F1FF3380F00A8140
:1007C000A74240F207816444023840EA0640E41B35
:1007D00000261DB1D4400023C5E900433146BDE8E1
:1007E000F0878B4209D9002D00F0EF800026C5E983
:1007F000000130463146BDE8F087B3FA83F6002E9B
:100800004AD18B4202D3824200F2F980841A61EB12
:10081000030301209E46002DE0D0C5E9004EDDE730
:1008200002B9FFDEB2FA82F2002A40F09280A1EB18
:100830000C014FEA1C471FFA8CFE0126200CB1FB6D
:10084000F7F307FB131140EA01410EFB03F0884266
:1008500008D91CEB010103F1FF3802D2884200F2F3
:10086000CB804346091AA4B2B1FBF7F007FB101185
:1008700044EA01440EFB00FEA64508D91CEB040423
:1008800000F1FF3102D2A64500F2BB800846A4EB7E
:100890000E0440EA03409CE7C6F12007B34022FA69
:1008A00007FC4CEA030C20FA07F401FA06F31C4398
:1008B000F9404FEA1C4900FA06F3B1FBF9F8200CA5
:1008C0001FFA8CFE09FB181140EA014108FB0EF0EB
:1008D000884202FA06F20BD91CEB010108F1FF3A3B
:1008E00080F08880884240F28580A8F10208614447
:1008F000091AA4B2B1FBF9F009FB101144EA014155
:1009000000FB0EFE8E4508D91CEB010100F1FF34FF
:100910006CD28E456AD90238614440EA0840A0FB97
:100920000294A1EB0E01A142C846A64656D353D06D
:100930005DB1B3EB080261EB0E0101FA07F722FA91
:1009400006F3F1401F43C5E9007100263146BDE8BA
:10095000F087C2F12003D8400CFA02FC21FA03F31D
:10096000914001434FEA1C471FFA8CFEB3FBF7F09E
:1009700007FB10360B0C43EA064300FB0EF69E42C3
:1009800004FA02F408D91CEB030300F1FF382FD25C
:100990009E422DD9023863449B1B89B2B3FBF7F604
:1009A00007FB163341EA034106FB0EF38B4208D9DD
:1009B0001CEB010106F1FF3816D28B4214D9023E1E
:1009C0006144C91A46EA004638E72E46284605E73C
:1009D0000646E3E61846F8E64B45A9D2B9EB02080D
:1009E00064EB0C0E0138A3E74646EAE7204694E79D
:1009F0004046D1E7D0467BE7023B614432E73046D0
:100A000009E76444023842E7704700BF684620F0B7
:100A100007018D46FEE700BF0B480C4A904208B51F
:100A200003D0121A0A4916F0D5F90A480A4A904228
:100A300003D0121A002116F0DBF907F06FF916F057
:100A400095F901F087FDFEE70000002484070024EB
:100A500008B50108880700246C920124704700BF84
:100A6000704700BF704700BF704700BF49424FF456
:100A700080621030C9B216F0BBB900BF704700BF2A
:100A80004020704780207047704700BF0000000082
:100A90002DE9F84F884D0C46DFF83C9217462DEDB6
:100AA000028B06F039FFC9F80800284601F02CFF38
:100AB000284601F035FF95F81C31002B00F08180AD
:100AC00095F834317F2B7CD1DFF8F881012388F849
:100AD000343095F8403123B195F858317F2B00F030
:100AE000CE80764803F0B8FCDFF8F0A195F87830B6
:100AF0008AED000A002B70D1DFF8E4B19BED007A9B
:100B0000F7EE007AB4EEE77AF1EE10FA40F3848063
:100B1000CBED007A95F8802022B195F898207F2AB5
:100B200000F0A7807FB3013F0025DFF898817F08A0
:100B3000634E01E09AED000A6248083488ED030A2A
:100B400015F008FBDFED607AB0EE408A5F4BB0EE47
:100B5000670A5B48C3ED007AC6ED027A15F0CEFD58
:100B6000574886ED070A15F00FFC28EE000ADBED6A
:100B7000007ABD4205F1010520EE270A04ED020AC4
:100B800004ED010AD6D106F0C7FED9F8082099ED88
:100B9000017A821A99F8003007EE902AF8EE677A07
:100BA00067EE877A002B40D00023C9ED057AC9EDA6
:100BB000037AC9ED047A89F80030BDEC028BBDE8F8
:100BC000F88F434B1B78002B83D0DFF8F88098F820
:100BD0000030002B7FF47DAF78E7D5ED337AF8EE67
:100BE000E77AF5EEC07AF1EE10FA4EDDDFF8F0B0FC
:100BF0009BED007A9FED2E6BB7EEC77A37EE067B42
:100C0000B7EEC77BF7EE007A8BED007AB4EEE77AA9
:100C1000F1EE10FA3FF77CAFB5EEC07A0022F1EEAC
:100C200010FA48BFCBF8002074E799ED047AD9EDAB
:100C3000066AF4EEC77A99ED037A99ED056AF1EE4A
:100C400010FAF4EEC77AB7EE007AC8BFC9ED047A9D
:100C5000F1EE10FA37EE667ABDEC028B27EE067ADB
:100C600048BFC9ED037AA7EEA67A89ED057ABDE8FB
:100C7000F88F18490A7882F001020A7052E7144A84
:100C8000137883F0010313702BE77FF535AFDFF89E
:100C900050B09BED007A9FED066BB7EEC77A37EE4A
:100CA000467BB7EEC77B8BED007A29E7AFF3008078
:100CB0007B14AE47E17A943FDC07002480310124A5
:100CC000AC9B0024A40700240000C843C8310124C1
:100CD000BC310124C431012464310124C031012418
:100CE000B831012410B504464FF4826115F011FDAE
:100CF000204610BD2DE9F04F4FF0B00885B00546F5
:100D000000F1080700F18F0600F28F494FF47A7B5B
:100D10004FF0000A297B022303AA3846CDF800B021
:100D2000A6F180048DF80CA08DF80D8004F04AFD2A
:100D3000297B022303AA3846CDF800B08DF80CA019
:100D40008DF80DA004F03EFD4FF0100C297B02231E
:100D500003AA3846CDF800B08DF80CA08DF80DC070
:100D600004F030FD4FF47A7014F801CF4FF0400ECC
:100D7000297B0223009003AA38468DF80CE08DF8F9
:100D80000DC004F01FFDB442ECD104F1800608F15F
:100D900001084E455FFA88F8B8D105B0BDE8F08F7C
:100DA0002DE9F04F85B0A1F1200504AC9DF8387015
:100DB000009104E90C00EBB25E2B00F29580036811
:100DC00080465D4ADB689DF8084093429DF80960C3
:100DD00040F094808020B8F804302344834200F32C
:100DE0008380D8F80030554A9B68934240F0888051
:100DF0004020B8F8062093190192834274DC002E3B
:100E000000F0898006FB05F56FF00040039B9646D5
:100E100028442E44B8F804A003EB4000023B03EB47
:100E2000460B30F8026FBCB30EF007034FF0010C15
:100E30004FEADE0251460CFA03FC0AF110034FFAA6
:100E40008CFC03EBC21200236FEA0C0942440EE053
:100E50007F2907D8BEF13F0F04D815789FB14CEA1F
:100E6000050515700133013201319C4214D006FA98
:100E700003F52D04ECD47F29F4D8BEF13F0FF1D84F
:100E80001578002FEBD0013309EA05050132013155
:100E90009C4202F8015CEAD158450EF1010EC0D126
:100EA000D8F8003054442449DA68A4B28A422DD1DB
:100EB000802084421CD29B68204AA8F804409342B8
:100EC00021D14020019B834207D3D8F800301B4A30
:100ED0009B68934229D13F230193DDE90003A8F8E1
:100EE000063005B0BDE8F08F002005B0BDE8F08FFA
:100EF000DA6811498A4211D17F24DCE798476AE712
:100F00004046984775E740469847DBE7404690479C
:100F1000D8F80030CDE7B8F804A0C1E740469047C4
:100F20000138D8F8003084B2C5E740469847013808
:100F300083B20193D1E700BF850A0008810A000847
:100F40007F291ED83F2A1CD86BB1D3084FF0010C63
:100F500002F0070201EBC3130CFA02F2C1180B7C7A
:100F60001A430A747047D3084FF0010C02F00702CD
:100F700001EBC3130CFA02FCC1180A7C22EA0C0232
:100F80000A7470472DE9F04F83B05C1A0C9E002C58
:100F90009DF83490A6EB0208B8BF6442B8F1000F88
:100FA000B8BFC8F100088B428CBF4FF0010A4FF068
:100FB000FF3A9642A4EB080C51D84FF0FF357F2B37
:100FC000019512D83F2E10D8F50806F0070E01271C
:100FD00003EBC5150544B9F1000F47D007FA0EF72A
:100FE00095F810E047EA0E072F74964201D18B4224
:100FF00029D0C8F100077F2914D83F2A12D8D50874
:1010000002F0070B4FF0010E01EBC5150544B9F1D5
:10101000000F1BD00EFA0BFE95F810B04EEA0B0E27
:1010200085F810E0B7EB4C0F4FEA4C0502DAACEB59
:10103000080C5144AC4202DD019DA4442A4499426B
:10104000D9D19642D7D103B0BDE8F08F0EFA0BFB91
:1010500095F810E02EEA0B0E85F810E0E2E7012586
:101060007F2B0195C5D83F2EAED9C2E707FA0EFEF9
:101070002F7C964227EA0E072F74B8D0B9E700BF3D
:101080002DE9F04F2DED068B83B01F4680460D46AF
:101090009DF8503016460193139B002BC0F221821D
:1010A000129A134406EE103ADDED127AB8EEC66BD2
:1010B0009FEDCD4BB8EEE77B9FEDCD5B27EE047B3C
:1010C00026EE046B87EE050B86EE05ABF7EEC08BC4
:1010D000B0EE680A15F024FB07EE907AB7EECAABC3
:1010E000F8EE679AB0EE408AB0EE680A15F01CFD83
:1010F00060EE698AB0EE4A0A15F012FBB0EE409A33
:10110000B0EE4A0A15F010FD20EE690A29EE888A31
:1011100029EE899A70EE687AF0EE006A39EE487A24
:1011200067EEA77AE7EE077AF4EEE67AF1EE10FAC8
:1011300006D5139BB42B40F396804FF0010901E0D4
:101140004FF00009012478424FF0000C0095E31B9A
:10115000214627462246A340B9F1000F6AD14242F8
:1011600006EE90CACCF1000107EE102AB8EEE66A4E
:1011700007EE901A06EE900AB8EEC77A139A66EE5A
:10118000084AF8EEE77AB42A27EE284AF8EEE66A2B
:1011900067EE885A74EEC43A26EEA85A26EE096A1B
:1011A00066EE806A67EE897A27EE007AF5EEC03A3D
:1011B00040F3F280F1EE10FA00F17F8176EE473ACB
:1011C00074EEC54AF5EEC03AF1EE10FAF5EEC04AFB
:1011D000CCBF01220022F1EE10FA00F1778136EE49
:1011E000666A35EEC55AB5EEC06AF1EE10FAB5EE94
:1011F000C05ACCBF01210021F1EE10FA00F16F813D
:1012000077EEE66AF5EEC06AF1EE10FACCBF012780
:10121000002775EEC45AF5EEC05AF1EE10FA00F14F
:10122000478177EEC77AF5EEC07AF1EE10FACCBFBF
:1012300001240024002A40F08A80002964D1BFB92B
:10124000C4BB9C4558DB0CF1010C03EB4C0E1CEBB2
:10125000000F0EF1010E00F0C08098424FDB734684
:1012600000287FF779AF03B0BDEC068BBDE8F08FA7
:10127000009DA6EB0C0E00EB050ABAF17F0FDFD83C
:10128000BEF13F0FDCD84FEADE0B019D0AEBCB1A13
:10129000002D00F0B1800EF0070BC2444FF0010E9C
:1012A0000EFA0BFE9AF810B04EEA0B0E8AF810E018
:1012B000002CC6D0009DA6EB0C0EA5EB000ABAF1DF
:1012C0007F0FBED8BEF13F0FBBD84FEADE0B019DAA
:1012D0000AEBCB1A002D00F0AE800EF0070BC244D3
:1012E0004FF0010E9C450EFA0BFE9AF810B04EEA34
:1012F0000B0E8AF810E0A6DA98429E46AFDA01306B
:101300000EEB40030133ABE7009D0CEB060E00EB48
:10131000050ABAF17F0F92D8BEF13F0F8FD84FEA7E
:10132000DE0B019D0AEBCB1A002D73D00EF0070BDC
:10133000C2444FF0010E0EFA0BFE9AF810B04EEABE
:101340000B0E8AF810E0002F3FF47AAF90E7009D73
:101350000CEB060EA5EB000ABAF17F0F3FF66DAF5E
:10136000BEF13F0F3FF669AF4FEADE0B019D0AEB7E
:10137000CB1A002D6DD00EF0070BC2444FF0010EBA
:101380000EFA0BFE9AF810B04EEA0B0E8AF810E037
:1013900000293FF454AFB7E7F1EE10FA7ED44A4685
:1013A00074EEC54AF5EEC04AF1EE10FA6CD4002195
:1013B00035EEC55AB5EEC05AF1EE10FA5AD40027F0
:1013C00075EEC45AF5EEC05AF1EE10FA3FF529AFAA
:1013D0000024002A3FF431AFB9E798428FDB0023A5
:1013E0003BE700BFAFF300807A008BFCFA21094095
:1013F0000000000000806640C2444FF0010B0EF078
:10140000070E0BFA0EFE9AF810B02BEA0E0E8AF8B1
:1014100010E015E7C2444FF0010B0EF0070E0BFA77
:101420000EFE9AF810B02BEA0E0E8AF810E0002F8C
:101430003FF406AF1CE7C2444FF0010B0EF0070E5D
:101440000BFA0EFE9AF810B02BEA0E0E8AF810E096
:10145000F7E6C2444FF0010B0EF0070E0BFA0EFE3A
:101460009AF810B02BEA0E0E8AF810E000293FF42B
:10147000E6AE49E777EEE66AF5EEC06AF1EE10FAFD
:10148000CCBF012700279BE736EE666AB5EEC06A3F
:10149000F1EE10FACCBF0121002189E776EE473A40
:1014A000F5EEC03AF1EE10FACCBF0122002277E748
:1014B0000124002A3FF4C1AE49E774EEC54A012277
:1014C000F5EEC04AF1EE10FA7FF589AE35EEC55A59
:1014D0000121B5EEC05AF1EE10FA7FF591AE012769
:1014E00097E6DDE91223134406EE102A1293139BAC
:1014F0005B421393D8E500BF2DE9F04F89B008ACEB
:101500009DF84870019104E90C000B78002B00F065
:10151000AB801A469DF818809DF81930064645465E
:1015200090460393079B0593A8F12004E3B25E2B3A
:1015300000F29E8033685E4ADB68934240F09B80F5
:101540008020B3882B44834200F392803368594A49
:101550009B68934240F092804020F188039A029168
:101560008B18834200F38480002A00F0918002FBF4
:1015700004F46FF00049059BA1441444B6F804B08C
:1015800003EB4909023BCDF8108003EB44030C4602
:101590009A4639F802CFA5B304F007034FF0010EC5
:1015A000E20859460EFA03FE0BF110034FFA8EFEC5
:1015B00003EBC21200236FEA0E0832440DE07F29CC
:1015C00006D83F2C04D8107897B14EEA000010706E
:1015D000013301320131AB4213D00CFA03F00004A5
:1015E000EDD47F29F4D83F2CF2D81078002FECD01E
:1015F000013308EA000001320131AB4202F8010C6C
:10160000EBD1D14504F10104C3D1DDF8108032687B
:101610000BEB05042649D368A4B28B4234D1802059
:10162000844204D3D36822498B423AD17F24936801
:10163000204AB480934224D14020029B834206D3A7
:1016400033681C4A9B68934225D13F230293029B37
:10165000F380019B1878404507D113F8018F01935F
:10166000B8F1000F7FF460AF002009B0BDE8F08F43
:101670004FF00008EDE73046984762E7304698475C
:101680006BE730469847D8E7304698473268C7E757
:10169000B6F804B0BBE730469847013883B20293EE
:1016A000D5E7304698470138326884B2BFE700BFBB
:1016B000850A0008810A00082DE9F04F89B01D460F
:1016C000884606901046129C10F8013B13999DF82D
:1016D0005060009233B1002210F8013B0132002B20
:1016E000FAD193B22A78687812FB03F302B21BB2E4
:1016F00023EAE373082900F2A681DFE811F0010173
:1017000013011F01330141014F0166016F010900FF
:10171000A18827880F44B4F90610FF1A0029BFB228
:10172000C0F2FE806488069804EB6104C280A4EBDA
:1017300052028380078094B24480A64AD8F80030D1
:1017400011460192DA688A4240F08B818020B842CB
:1017500005D8DA6801998A4240F098817F279E4A2D
:101760009B68A8F804709342039240F08781402060
:10177000A04207D8D8F80030039A9B68934240F003
:1017800080813F24009BA8F8064093F800B06B7856
:101790002C7804936B680793BBF1000F00F0AC80CA
:1017A000ABF12005EBB25E2B00F22C81D8F80030B3
:1017B000019ADB68934240F028818020B8F8043019
:1017C00023449842C0F21E81D8F80030039A9B68E7
:1017D000934240F01D814020B8F80610049A02910F
:1017E0008B189842C0F20E81002A00F01C8102FB87
:1017F00005F56FF0004E079BAE441544CDF814B0CC
:1018000003EB4E0E023BB8F804A003EB45030D4674
:101810009B463EF8027FA4B305F007034FF0010C8E
:10182000EA0851460CFA03FC0AF110034FFA8CFC4B
:1018300003EBC21200236FEA0C0942440DE07F293A
:1018400006D83F2D04D8107896B14CEA00001070ED
:101850000133013201319C4213D007FA03F0000436
:10186000EDD47F29F4D83F2DF2D81078002EECD09B
:10187000013309EA0000013201319C4202F8010CF7
:10188000EBD1F34505F10105C3D1DDF814B0D8F86B
:1018900000200AEB04050199D368ADB28B4240F0F9
:1018A000BD808020854205D3D36801998B4240F0EA
:1018B000C3807F259368039AA8F80450934240F0B0
:1018C000AA804020029B834208D3D8F80030039AB4
:1018D0009B68934240F0AA803F230293029BA8F8A2
:1018E0000630009A13785B4506D112F801BF0092CA
:1018F000BBF1000F7FF454AF069809B0BDE8F08F3C
:10190000B4F9041027880029B8BF013107EB61073B
:10191000B4F90610A7EB63070029BFB2BFF602AF08
:101920000131FFE6B4F900700699B4F902400F8066
:10193000BFB24C80A4B28B80CA80FEE6B4F904101A
:1019400027880029B4F90240B8BF013107EB6107CD
:1019500006998B80A7EB63034C80A4B29FB2CA8028
:101960000F80EAE6A1882788B4F902400F4406995F
:101970008B80FB1A4C80A4B29FB2CA800F80DCE639
:10198000E78861883944B4F90070081A069984B26E
:101990000F808B80BFB2CA804C80CEE6B4F90410B1
:1019A00027880029B8BF013107EB6107A7EB630760
:1019B000B4F802C0BFB2E488069964448B80201A50
:1019C000CA800F8084B24C80B7E62788A1880F4474
:1019D000FF1AEDE7850A0008810A0008B4F906102D
:1019E000B4F90070002964880698B8BF0131C2803C
:1019F00004EB610407808380BFB2A4EB520294B26F
:101A000044809AE64FF0000B6BE740469847D5E6D6
:101A100040469847E0E64046984753E74046984797
:101A2000D8F800203EE7B8F804A030E740469847D1
:101A3000013883B2029351E7404698470138D8F8FD
:101A4000002085B236E7D8F800300024069A134902
:101A5000148054809480D480DA6801918A4205D041
:101A6000274640469047D8F8003070E69B680C4AFD
:101A7000A8F80440934203923FF484AE404698474E
:101A800076E640469847013884B27BE64046904768
:101A90000138D8F8003087B261E600BF850A000837
:101AA000810A00082DE9F04F87B09DF84850109C3E
:101AB0002E4601959DF844509EB399422ED89946E2
:101AC000A24228D87F29164694BF0023012308E0AC
:101AD0009CF810804EEA080E8CF810E00136B442F3
:101AE00019D33F2EFAD8002BF8D14FEAD60C06F0C6
:101AF000070E4FF0010801EBCC1C08FA0EFE8444DF
:101B0000002DE5D19CF810B001362BEA0E0AB44244
:101B10008CF810A0E5D201318945D1D207B0BDE8DB
:101B2000F08FA3EB0108B8F1000FB8BFC8F10008AF
:101B30009942C0F04E817F2B4FF0FF3A94BF0026B0
:101B400001263F2A009694BF002701270297A6B9D5
:101B50009FB9D60802F0070C012703EBC61606440E
:101B6000002D00F0948107FA0CF796F810C047EAB0
:101B70000C073774002602960096994200F0978170
:101B8000464694468E46BEF17F0F16D8BCF13F0FF5
:101B900013D84FEADC070CF0070B4FF001090EEBEE
:101BA000C7170744002D00F0398109FA0BF997F89F
:101BB00010B049EA0B0987F81090770018BFD64497
:101BC000B84502DD46440CF1FF3C7345DBD162456C
:101BD000D9D100260496A4EB0209009FB9F1000FA9
:101BE000B8BFC9F100093F2C94BF00260126A242CC
:101BF000C9F100080396C0F02381002F40F0508106
:101C0000002E40F04D814FF0FF360096E60803EBC2
:101C1000C6160644002D00F01E814FF0010C04F0A2
:101C200007070CFA07F796F810C047EA0C07377455
:101C300000260396A24200F03D81C44616461F4688
:101C400005927F2F15D83F2E13D84FEAD60E06F0F7
:101C5000070B4FF0010A07EBCE1E8644002D00F063
:101C6000E6800AFA0BFA9EF810B04AEA0B0A8EF8E0
:101C700010A0B8EB4C0F4FEA4C0E02DAACEB090C9B
:101C8000013FBEF1000F01D0009A1644BB42D8D1EB
:101C9000B442D6D1059AA1EB030EBEF1000FB8BF36
:101CA000CEF1000E7F2994BF4FF0000A4FF0010AD9
:101CB00099428CBF4FF001094FF0FF39BAF1000F84
:101CC00013D1039E8EB9E60801EBC6160644002D1B
:101CD00000F0D3804FF0010C04F007070CFA07F76F
:101CE00096F810C047EA0C073774049E26BB774667
:101CF00026467F2B14D83F2E12D84FEAD60C06F07A
:101D0000070B4FF0010803EBCC1C8444002D73D06B
:101D100008FA0BF89CF810B048EA0B088CF8108011
:101D20005FEA470C18BF4B44E64501DD7744013EAE
:101D30009942DED1B442DCD1A2EB040EBEF1000F19
:101D4000B8BFCEF1000EA2428CBF4FF001084FF099
:101D5000FF38CEF1000CBAF1000F0ED1029B63B92F
:101D6000D30802F00707012601EBC3130344002D3B
:101D70007CD0BE401F7C3E431E74019B002B7FF431
:101D8000CDAE66460B467F2B12D83F2C10D8E70805
:101D900004F0070A4FF0010903EBC7170744A5B386
:101DA00009FA0AF997F810A049EA0A0987F8109089
:101DB000BCEB460F4FEA460702DAA6EB0E06013BE4
:101DC00007B144449942DED1A242DCD107B0BDE85C
:101DD000F08F3F2A4FF0010A94BF002601267F2B87
:101DE000029694BF002701270097002E7FF4C8AE0B
:101DF000002F3FF4AEAEC3E608FA0BFB9CF8108050
:101E000028EA0B088CF810808AE709FA0AFA97F892
:101E1000109029EA0A0987F81090C9E709FA0BFB24
:101E200097F8109029EA0B0987F81090C5E60AFA8E
:101E30000BFB9EF810A02AEA0B0A8EF810A018E7F8
:101E400097BB8EBB01260096E60803EBC616064438
:101E5000002D7FF4E2AE012704F0070C039507FA8A
:101E60000CFC377C27EA0C073774E3E606FA07F721
:101E70001E7C26EA07061E747FE7012704F0070C84
:101E800007FA0CFC377C27EA0C0737742DE707FAB2
:101E90000CFC377C029527EA0C07009537746CE63A
:101EA0004FF0FF360096C5E601260096C5E60126EE
:101EB000049690E601260196EDE600BF2DE9F04F6D
:101EC000DFF8B8A24FF4806200210AF110002DED76
:101ED000048BE7B014F08CFF9F4B1B78002B50D184
:101EE0000DF58C7BDFF898824FF0B0094FF47A76CD
:101EF000002502235A469AF80C1010279748A8F19B
:101F0000800400968DF818518DF8199103F05AFC51
:101F100002235A469AF80C10904800968DF81851F2
:101F20008DF8195103F04EFC02235A469AF80C1012
:101F30008A4800968DF818518DF8197103F042FC0B
:101F40004FF47A7714F8015F402602235A469AF834
:101F50000C10824800978DF818618DF8195103F024
:101F600031FC4445ECD109F1010904F180085FFA24
:101F700089F9B9F1B80FB9D167B0BDEC048BBDE8F0
:101F8000F08F774B06A8DFED778A0DF58C7BD3EDCC
:101F9000037A93ED059A67EEA87A93ED048A724965
:101FA000B7EEE77A53EC172B15F0A2FC69EE287A0E
:101FB0006E4926A8B7EEE77A53EC172B15F098FC7C
:101FC00068EE287A6A495846B7EEE77A53EC172B41
:101FD00015F08EFC674A012350781178CAF8043056
:101FE00052689DF8183002900592002B71D006AA15
:101FF00007EE90BA0392203BDAB25E2A67D8BAF8AD
:10200000048008EB010EBEF1800F60DCBAF80620F8
:10201000029804920244402A59DC002842D0029AD5
:102020006FF0004C049D02FB03F39C441344059A9B
:1020300002EB4C0C023A02EB430B3CF8026F69B323
:1020400005F007030127EA0840469F4008F1100306
:102050007FB203EBC21200236FEA070952440BE080
:102060007F2804D83F2D02D814783C4314700133E4
:10207000013201308B4211D006FA03F42404EFD46C
:102080007F28F4D83F2DF2D8147801330132013083
:1020900009EA04048B4202F8014CEDD1E34505F155
:1020A0000105CAD1049A1FFA8EFE03983F2A10F840
:1020B000013F28BF3F22BEF17F0F039028BF4FF0A2
:1020C0007F0EAAF80620AAF804E0002B93D117EEA1
:1020D00090BA294BCAF804309DF89830002B00F0D4
:1020E0008B8026AA07EE90BA0392203BDAB25E2AD2
:1020F00000F28080BAF8048008EB010EBEF1800F78
:1021000078DCBAF80620029804920244402A71DC76
:10211000002859D0029A6FF0004C049D02FB03F393
:102120009C441344059A02EB4C0C023A02EB430B1D
:102130003CF8026F002943D005F007030127EA08A5
:1021400040469F4008F110037FB203EBC212002308
:102150006FEA0709524421E0C43101245C2D0124B7
:10216000643101240000C842949C0108A49C010829
:10217000B49C0108FC02002401001300542D01242A
:10218000E32D01247F2804D83F2D02D814783C4346
:102190001470013301320130994211D006FA03F470
:1021A0002404EFD47F28F4D83F2DF2D814780133DB
:1021B0000132013009EA0404994202F8014CEDD1E0
:1021C000DC4505F10105B3D1049A1FFA8EFE039890
:1021D0003F2A10F8013F28BF3F22BEF17F0F039036
:1021E00028BF4FF07F0EAAF80620AAF804E0002BC3
:1021F0007FF47BAF17EE90BA414BCAF804309DF8DC
:102200001831002B71D007EE90BACDF80CB0203BFE
:10221000DAB25E2A67D8BAF8048008EB010EBEF184
:10222000800F60DCBAF80620029804920244402A2B
:1022300059DC002842D0029A6FF0004C049D02FB4A
:1022400003F39C441344059A02EB4C0C023A02EB54
:10225000430B3CF8026F69B305F007030127EA0856
:1022600040469F4008F110037FB203EBC2120023E7
:102270006FEA070952440BE07F2804D83F2D02D8AB
:1022800014783C431470013301320130994211D06B
:1022900006FA03F42404EFD47F28F4D83F2DF2D8B3
:1022A000147801330132013009EA0404994202F83A
:1022B000014CEDD1E34505F10105CAD1049A1FFA9D
:1022C0008EFE03983F2A10F8013F28BF3F22BEF13F
:1022D0007F0F039028BF4FF07F0EAAF80620AAF8C0
:1022E00004E0002B93D117EE90BA06A802F028F86C
:1022F00026A802F025F8584602F022F8F2E500BFC1
:102300000100240084B070B584B004464FF47A769E
:1023100009AD85E80E009DF8383029460025037187
:1023200003F0B8F9AE2303AA00968DF80D302046CD
:10233000217902238DF80C5003F044FAD52303AA27
:102340000096204621798DF80D3002238DF80C502F
:1023500003F038FA802303AA0096204621798DF8ED
:102360000D3002238DF80C5003F02CFAA82303AA99
:102370000096204621798DF80D3002238DF80C50FF
:1023800003F020FA3F2303AA0096204621798DF816
:102390000D3002238DF80C5003F014FADA2303AA4F
:1023A0000096204621798DF80D3002238DF80C50CF
:1023B00003F008FA122303AA0096204621798DF82B
:1023C0000D3002238DF80C5003F0FCF9D32303AA3F
:1023D0000096204621798DF80D3002238DF80C509F
:1023E00003F0F0F903AA00960223217920468DF824
:1023F0000C508DF80D5003F0E5F9402303AA009628
:10240000204621798DF80D3002238DF80C5003F011
:10241000D9F9A62303AA0096204621798DF80D301C
:1024200002238DF80C5003F0CDF9A42303AA0096E3
:10243000204621798DF80D3002238DF80C5003F0E1
:10244000C1F98D2303AA0096204621798DF80D301D
:1024500002238DF80C5003F0B5F9142303AA00965B
:10246000204621798DF80D3002238DF80C5003F0B1
:10247000A9F9A12303AA0096204621798DF80D30F1
:1024800002238DF80C5003F09DF9C82303AA00968F
:10249000204621798DF80D3002238DF80C5003F081
:1024A00091F9812303AA0096204621798DF80D30F9
:1024B00002238DF80C5003F085F98F2303AA0096B0
:1024C000204621798DF80D3002238DF80C5003F051
:1024D00079F9D92303AA0096204621798DF80D3089
:1024E00002238DF80C5003F06DF9252303AA009602
:1024F000204621798DF80D3002238DF80C5003F021
:1025000061F9DB2303AA0096204621798DF80D306E
:1025100002238DF80C5003F055F9342303AA0096DA
:10252000204621798DF80D3002238DF80C5003F0F0
:1025300049F9AF21009603AA02238DF80D10204619
:1025400021798DF80C5003F03DF904B0BDE87040DE
:1025500004B070472DE9F04F644B002764484FF0FA
:10256000010A644E4FF07C5BDFF8CC91624D2DED9B
:10257000068B8DB01F7000F03BFB39465C48B7EE10
:10258000008A00F057FA0421594800F09FF9584892
:1025900000F0B4F93846F0EE408A01F0DFFE54480E
:1025A00000F0ACF95248B0EE409A00F0A5F907EE01
:1025B000900ADFED52AA9FED52AAF8EEE79A05F0D5
:1025C0005DFBDFED505A07EE900A4F4A3C2389EE3F
:1025D000296A4E49059210208DF8243007AA4C4BE9
:1025E0000DEB00080797C9EE896AD9601961444666
:1025F00059618DF820000497F8EE677A069783F802
:1026000000A09FED449A07CA85EE867A67EEA67A07
:10261000C8EE276A37EE086AC7EE067AC3ED016A8C
:10262000C3ED067A8DE807003B4898E80E00FFF7F7
:1026300069FEC8EE287A394B30469FED390AC6ED5F
:10264000048AC6F804B0C6F80CB086ED020A86ED1E
:10265000069AC3F800B0C6ED057A14F04FF840F2C0
:10266000011386ED070A4846B0EE680A338586F8FE
:1026700000A0C6ED01AA13F055FDF0EE6A0A9FED29
:10268000290A89ED059AC9F820B089ED02AA89EDD9
:10269000038A89ED068A0FCD0FC495E80F0005F176
:1026A000100684E80F003A4641461F4801F0A4FE98
:1026B000C446B0EE4A0ADFED1D0A0FCEACE80F00AB
:1026C00096E80F0084E80F0041463A46184801F0AA
:1026D00093FEA5F1E00000F013F91649A5F1E00022
:1026E00000F0F2F8FFF7EAFBFCE700BFC431012479
:1026F000DC070024AC9B0024AC080024CDCCCC3DEE
:102700000AD7233CDB0FC940010801090000C07F44
:1027100064310124000000005C2D0124B831012443
:102720000000C842CDCCCCBD1C2D01243333333F37
:1027300080310124910A0008A40700242DE9F0410A
:102740006FF0F412504C00254FF60B730B2104F57B
:102750001C70A36240F20F76E36340F20118A36598
:10276000C4F88430C4F8A030C4F8B430C4F82031C0
:10277000656125626563A56465662567C4F8905048
:10278000C4F8AC50414FC4E90052C4E90222FF2210
:10279000C4E90B55C4E91055C4E91755C4E92255DD
:1027A000C4E92955C4E92E55C4F8C050C4F82C51C9
:1027B00084F88011C4F8845184F88121C4F85C3213
:1027C000C4F86852C4E95135C4E96B35C4E97635BB
:1027D000C4E98135C4E98C35C4E94955C4E9535588
:1027E000C4E96255C4E96D55C4E97855C4E9835517
:1027F000C4E98E55C4E9985501F0E6FD04F550731F
:10280000C4F880522046C4F82873A4F82C63C4F896
:102810003483C4F830331E4A1E49C4E9CE5513F040
:1028200073FF1D4B1D481E490360194A856013F054
:102830006BFF1C4C164A1C491C4813F065FF144AD8
:102840001B491C4813F060FF2146114A1A4813F037
:102850005BFF1A480E4A00F1B4031949C0F8A8807A
:10286000C0F8A4304FF4407345600360C0E9277698
:10287000C0E92B5513F048FF2146054A1148BDE831
:10288000F04113F041BF00BFDC0700240080707FDF
:1028900000000024610A0008CC9C0108542D01248A
:1028A0007D0A00085D0A0008690A0008AC9B002444
:1028B000650A0008A407002480310124D89B002465
:1028C000890A00081C2D012400F094B938B504468B
:1028D00000F098F9D4F81051204600F0B5F92846D8
:1028E00001F01CFCD4F81451204600F0ADF9284644
:1028F000BDE8384001F012BC00F0A0B900F07EB98C
:10290000183002F049B900BF10B50446D03001F0CC
:10291000E1FB04F1F000BDE8104001F0DBBB00BFBB
:1029200010B50446743001F053FC04F58C7001F0CE
:102930004DFE04F59E70BDE8104001F047BE00BF9B
:102940002DE9F0414FF60B7237490024054609681E
:1029500005F1180705F588762DED028B9FED307B8C
:10296000ACB09FED328A02A8ADF80820ADF81C206B
:10297000ADF83020ADF84420ADF85C20ADF8702003
:10298000ADF88420ADF89820022203940A940F94A5
:1029900014941A941F94249429948DED087B8DED42
:1029A000127B8DED187B8DED227BCDE90444CDE9C2
:1029B0000D44CDE91D44CDE9274401F0D5FE1C4B63
:1029C000022217A8196801F0CFFE042302A90222EF
:1029D000384601F0D9FE05F1D003C5F8103105F1F4
:1029E000F003C5F814312146384656F8048B02F03E
:1029F000E9F801462846019100F026F90023F0EE9F
:102A0000480A019940461A4601F032FB24B12CB025
:102A1000BDEC028BBDE8F0810124E4E7AFF3008058
:102A20000000000000000000009D01086F12033B41
:102A3000049D01082DE9F04F04464FF001092DEDEA
:102A4000028B99B09FED5E8A04F58C7604F59E7535
:102A5000039100F0CDF80399204600F0B7F9594BE7
:102A60003046B0EE480A196804F5B47B01F096FDD3
:102A7000554B2846B0EE480A196804F5F67A01F07D
:102A80008DFD524B524AB0EE480A524904F174008F
:102A90001B6805AF126804F520780968C4F8606106
:102AA00011AEC4F864510DAD01F064FB4A4B4B4AC2
:102AB00058464B491B6812680968CDF8009001F030
:102AC00021FD484B484A504648491B68126809682E
:102AD000CDF8009001F016FD072128468DED0D8AF6
:102AE0008DED0E8A8DED0F8A05F0EAFD95E8070061
:102AF00086E807003146584601F02CFD95E80700AE
:102B000086E807003146504601F024FD584601F0A2
:102B100037FD504601F034FD2046FFF711FF3846DF
:102B200001F052FC47F612230DF1240E04F51C7C33
:102B300017930223CDF84C901593CDF858904FF091
:102B4000000997E80F008CE80F008EE80F0085E879
:102B50000F00BDF83830CDF85090ADF84630BDF8D4
:102B60003A301290ADF84430D4E99EE7C4E9A1E7C9
:102B700027B13A464946704614F03AF93146404684
:102B800004F040FC04F5257001F030FC30212046B3
:102B900000F038F8D4F81051204600F055F82846D7
:102BA00001F0BCFAD4F81451204600F04DF8284644
:102BB00019B0BDEC028BBDE8F04F01F0AFBA00BF19
:102BC00000000000249D0108289D0108209D0108A7
:102BD000309D01082C9D0108089D01080C9D0108ED
:102BE000109D0108149D0108189D01081C9D0108F5
:102BF000704700BF143001F013BA00BF143001F069
:102C00000BBA00BF38B500F1140504462DED028B58
:102C1000284601F0F3F9284601F0FEF92846B0EE07
:102C2000408A01F0E7F9D0ED007AF8EE677A88EE95
:102C3000277ABDEC028B84ED1B7A38BD08B51430C1
:102C400001F0D8F9006808BD90ED1B0A704700BF7D
:102C500010B540F203338EB000244FF60B7240F2F1
:102C60000341ADF8083009A80123ADF81020ADF8F4
:102C700024202246ADF80C100094029907940C947D
:102C8000CDE90544CDE90A4402F08EFA04A80123F7
:102C900022460399009402F087FA09A802F06AFB21
:102CA00010B901200EB010BD04A802F063FBA042D1
:102CB0000CBF022020460EB010BD00BF2DE9F04130
:102CC00003239AB04FF0010800254FF60B74074616
:102CD000CDE91438394BADF84C40CDE91053A3F190
:102CE0009F63A3F57D43CDE916581293FFF7B0FF1C
:102CF0004045064623D0022842D040F60132304BF0
:102D000007F158000BACADF82C200B991895CDF8B5
:102D10006480CDF84A3000F0DBF810A907F17000AC
:102D200003F09AFA274B0FCB84E80F003A6F214645
:102D300007F1140001F026F91AB0BDE8F081102364
:102D40001F4A06A906908DF828300BAC1E4BCDF813
:102D50004A2007930295CDE91805CDE9080502A898
:102D600002F098FC0823029A03A92046ADF80C60F3
:102D70008DF80E50049605930B9500F0E9F8CCE71A
:102D800040F60133ADF82C4000200BACADF8183004
:102D900001210B4B42460095CDF84A302B460E954B
:102DA000CDE9180106992046CDE90C5502F0FCF951
:102DB0002946204602F0EAFAAFE700BF0402040405
:102DC00004060403509C01080704010B2DE9F04799
:102DD00004462DED028B82B0002949D0012140F23A
:102DE000011200230091ADF804208DF80630354A19
:102DF0000127354B04F10409344904F13C086260B1
:102E000040F20272A36040F60663E16004F1280A12
:102E10002285A3872782E762276404F035FF0546F1
:102E200004F082FD6946064650BB4DB304F15000E4
:102E30008DF8067004F0A4FE072D3ED104F11405B0
:102E40002046FFF73BFF284601F0E6F82846B0EEA3
:102E5000408A01F0CFF8D0ED007AF8EE677A88EE7C
:102E6000277A84ED1B7A02B0BDEC028BBDE8F087B7
:102E700040F2011300918DF80610ADF80430B6E76A
:102E800004F1500004F07CFE072D13D04946204683
:102E900002F056FE0EB9002DD0D15146504601F039
:102EA000BFFF4046414601F0BBFF04F1120000F0B5
:102EB00079F9C3E7002EF0D1C0E74946204602F079
:102EC0003FFEBBE70508050905070506050A0606D6
:102ED00030B585B0002504460122ADF80C102B4614
:102EE0000399009502F060F90121204602F04EFAA4
:102EF000012004F017FD2946204602F047FA012080
:102F000004F010FD0121204605B0BDE8304002F07C
:102F10003DBA00BF10B5C2F3002384B00C46017C5B
:102F20008DF80D2043EA4402FA2402238DF80C2088
:102F300003AA009402F046FC18B10124204604B014
:102F400010BD04460A2004F0EDFC204604B010BD7C
:102F5000034670B543F8042B044684B007C983E8E0
:102F60000700A37983B91A210B461E22FA25237480
:102F70002046ADF80C20022303AA009502F022FCA3
:102F800028B1012004B070BD1B210B46EDE70A20DB
:102F900004F0C8FC4FF4B85200950223ADF80C20A1
:102FA000204603AA217C02F00DFC0028E9D10A206A
:102FB00004F0B8FC41F2027200950223ADF80C2037
:102FC000204603AA217C02F0FDFB0028D9D10A206B
:102FD00004F0A8FC042200950223ADF80C20204642
:102FE00003AA217C02F0EEFB0028CAD10A2004F0DB
:102FF00099FC062200950223ADF80C20204603AA76
:10300000217C02F0DFFB0028BBD10A2004F08AFCFF
:1030100041F2082200950223ADF80C20204603AAB5
:10302000217C02F0CFFB0028ABD10A20064604F039
:1030300079FC0095022303AA217C2046ADF80C60A0
:1030400002F0C0FB00289CD1304604F06BFC0095D8
:1030500022790C232046002A8DF80C3003AA4FF069
:10306000020314BF622142218DF80D10217C02F071
:10307000A9FB002885D1304604F054FC2279D4E91C
:1030800002310B43DBB20AB943F0400362790AB163
:1030900043F020030E22FA258DF80D3020460095CE
:1030A00002238DF80C2003AA217C02F08BFB002860
:1030B0007FF467AF0A2004F035FC1022009502234C
:1030C000ADF80C20204603AA217C02F07BFB0028EF
:1030D0007FF457AF0A2004F025FC1221009502234B
:1030E000ADF80C1003AA217C204602F06BFB0028EF
:1030F0007FF447AF0A2004F015FC01220921204685
:10310000FFF708FF003818BF01203BE7F0B5102398
:1031100087B0234C012200250126002702A9204662
:103120000195CDE902234FF48052CDE904670DF0FB
:10313000B9FA642005F03EFB02A94FF48052204604
:10314000CDE9046702261027CDE902670DF0AAFA3F
:103150000322102302A92046CDE9022300230422E2
:10316000CDE904234FF480520DF09CFA40F2322353
:10317000042202A9019310232046CDE90223019ADB
:10318000012305924FF4805204930DF08BFA40F620
:10319000060120460DF0A6FA284607B0F0BD00BF94
:1031A000D43101241C4B00221C494FF0400C30B597
:1031B000054689B00220596007219A601A620124ED
:1031C000DA620A224FF4006EDC6006922022CDE91A
:1031D000000104200821CDE9020103201021CDE9DE
:1031E000040108206946C3E904024FF4C072181DA7
:1031F000C3E906C24FF48052C3E909E20DF028FA90
:1032000038B92846FFF782FF003818BF012009B0FF
:1032100030BD204609B030BDD031012440410052BC
:10322000614A0021D0B513688EB00A91002B40F09E
:10323000B9805E4B01214FF683700C24116002218E
:10324000D3F8D4200026032742F48052C3F8D420B8
:10325000D3F8D42002F480520092009AD3F8E020F0
:1032600042F01002C3F8E020D3F8E02002F0100290
:103270000192019AD3F8E02042F04002C3F8E02026
:10328000D3F8E02002F040020292029AD3F8E02044
:1032900042F00802C3F8E020D3F8E02002F0080270
:1032A0000392039AD3F8E02042F48072C3F8E0203E
:1032B000D3F8E02002F480720492049AD3F8E0205C
:1032C00042F08002C3F8E020D3F8E02002F0800250
:1032D0000592059AD3F8E02042F02002C3F8E020DE
:1032E000D3F8E02002F020020692069AD3F8E020FC
:1032F00042F00402C3F8E020D3F8E0300C9403F06D
:10330000040307930323079A0B93CDE9080108A947
:10331000274807F0D9FB48F23712022308A92548AD
:103320000C94CDE90823CDE90A6707F0CDFB4CF2F8
:103330000372022308A920480C94CDE90823CDE9A3
:103340000A6707F0C1FB40F2FF62022308A91B488D
:103350000C94CDE90823CDE90A6707F0B5FB4FF6D9
:103360000C72022308A916480C94CDE90823CDE974
:103370000A6707F0A9FB4FF63F02022308A911488C
:103380000C94CDE90823CDE90A6707F09DFB2022C4
:10339000022308A90A480C94CDE90A67CDE908235D
:1033A00007F092FB0EB0D0BDCC310124004402588E
:1033B0000010025800180258000C02580020025851
:1033C000001C0258001402582DE9F04FDFF8108459
:1033D00006460D46144608F118002DED028B89B003
:1033E00000AF03F031F8D8F8183073B3D8F81C30B8
:1033F000D8F80490002B43690BBF4FF0080A4FF038
:10340000100A4FF0020B4FF0040BB9F1000F2AD055
:10341000A200EA46012B02F1070222F00702ADEBFF
:10342000020D6846ADEB020D694600F03F81022BAC
:1034300000F0D680002B6FD02246C847D5462437EF
:10344000BD46BDEC028BBDE8F08FD8F81C30002BD8
:10345000F5D0D8F804904FF0080A4FF0020B4369FA
:10346000B9F1000FD4D1FB61D8F80030BB61002B5B
:10347000E5D0D54803F05AF86B46BBF1020F7861EE
:1034800008EE103AFB6900F083816A465146A2EBD0
:10349000C40295466200EA46B2FBFBF2AAEBC40006
:1034A00085460AEB8200EE46F861ADEB010DF86946
:1034B0000EEB820CC7F810C0EC46ADEB010D00EB33
:1034C0008201CCF80400CCF8081001EB82013869C5
:1034D000E946CCF80C1000EB8201CCF800A001EB1F
:1034E0008202C9E900E0C9E90212012B00F06483FD
:1034F000022B00F06C82002B00F0808162084946AC
:103500006046BB69984718EE103A24379D46BD4681
:10351000BDEC028BBDE8F08F002C8DD01A46D8EDA3
:103520000C6A9FEDB27A8446331D36F922E00CF125
:10353000080C07EE90EA33F922E00232F8EEE77A5F
:10354000944267EE877A67EEA67A4CED027A07EE30
:1035500090EAF8EEE77A67EE877A67EEA67A4CEDA6
:10356000017AE2D8F9612246C847984ED8ED0D6A33
:103570000020F9692B1D9FED9E7A9FED9E6ADFED7D
:103580009E5A22E0F4EEC67AF1EE10FAC0F2C88438
:1035900047F6FE72D1ED017A45F8202066EEA77A53
:1035A000F4EEC77AF1EE10FA40F2F080F4EEC67A4B
:1035B000F1EE10FAC0F2D58447F6FE7243F82020EF
:1035C0000230083184427FF639AFD1ED007A66EEE1
:1035D000A77AF4EEC77AF1EE10FAD3D83246D9E7DB
:1035E000002C3FF429AFD8ED0C6A84469FED787A21
:1035F0000022331D8E4656F822100CF1080C07EEFF
:10360000901A53F822100232F8EEE77A944267EEED
:10361000877A67EEA67A4CED027A07EE901AF8EEFA
:10362000E77A67EE877A67EEA67A4CED017AE2D800
:1036300071462246C7F81CE0C847664ED8ED0D6AB1
:103640000020F9692B1D9FED6A7A9FED6A6ADFF809
:1036500094C120E0F4EEC67AF1EE10FAC0F279845B
:103660003246D1ED017A45F8202066EEA77AF4EED5
:10367000C77AF1EE10FA40F28780F4EEC67AF1EEE6
:1036800010FAC0F25E84324643F82020023008313E
:1036900084427FF6D3AED1ED007A66EEA77AF4EEDF
:1036A000C77AF1EE10FAD5D86246DAE7002C3FF47B
:1036B000C3AED8ED0C6A86469FED477A4FF0000CFA
:1036C000331D56F82C200EF1080E82F40002A2F5EC
:1036D000000207EE902A53F82C200CF1020CF8EEB1
:1036E000E77A82F400026445A2F5000267EE877A69
:1036F00067EEA67A4EED027A07EE902AF8EEE77AA8
:1037000067EE877A67EEA67A4EED017AD9D8F9612D
:103710002246C847314ED8ED0D6A0020F9692B1DAD
:103720009FED337A9FED336ADFF8BCC01FE0F4EE03
:10373000C67AF1EE10FAC0F2FC833246D1ED017A7E
:1037400045F8202066EEA77AF4EEC77AF1EE10FA7B
:1037500018D9F4EEC67AF1EE10FAC0F2DA833246E6
:1037600043F820200230083184427FF667AED1ED65
:10377000007A66EEA77AF4EEC77AF1EE10FAD6D8A0
:103780006246DBE76246EBE762467DE7324615E7D5
:10379000A100D6466208073121F00701ADEB010D0B
:1037A000EA46ADEB010D6946ADEB0E0D0AEB82006A
:1037B000EC46ADEB0E0D01EB8202F861E946CCE977
:1037C00000A0C9E9001290E6243201240280FFFF24
:1037D000000000300082FF7F0000003482FF7F0085
:1037E00008320124007E00807E0080FF0000003847
:1037F00004FF7FBF04FF7F3F00FEFF46002C00F068
:10380000C982BBF1020FD8F8242000F0FA8279694E
:10381000C7F8049002EB810E5FED0C5A8A00DCF8C9
:1038200008100EF104007A611A46DCF80C303B6196
:10383000331DD7F810903D61FD69C7E902CB8C4676
:10384000834636F92210D8ED0C7A06EE101A33F9B9
:10385000221006EE901A3EF92210B8EEC66A07EE64
:10386000101AF8EEE66A3BF92210B8EEC77A26EE97
:10387000256A66EEA56A27EE257A26EE276A66EEA9
:10388000A76A27EE277A07EE901A51080232F8EE5F
:10389000E77A0AEB8100944280ED006A05EB810033
:1038A00067EEA57AC0ED006A0CEB810009EB81019F
:1038B00080ED007A98ED0C7A67EE877AC1ED007A98
:1038C000BFD8D7F804903D69D7E902CB60466208BB
:1038D000BB6949469847D8F82C307A69D8ED0D6A0B
:1038E0001A441FED3D7A1FED3D6A2B1D904602F1F3
:1038F000040A5FED3F5A0022A84ED9E900EC51E0DE
:10390000F4EEC67AF1EE10FAC0F2C78247F6FE7006
:1039100045F822000CEB0100D0ED007A66EEA77AA4
:10392000F4EEC77AF1EE10FA4BD9F4EEC67AF1EE66
:1039300010FAC0F2BA8247F6FE70BBF1020F43F8EC
:1039400022002BD0D9F808000844D0ED007A66EEAA
:10395000A77AF4EEC77AF1EE10FA36D9F4EEC67A09
:10396000F1EE10FAC0F2CD8247F6FE7048F8220060
:10397000D9F80C000144D1ED007A66EEA77AF4EE96
:10398000C77AF1EE10FA1ED9F4EEC67AF1EE10FA0B
:10399000C0F2AF8247F6FE714AF82210023294421A
:1039A0007FF6B1AD51080EEB81008900D0ED007AB1
:1039B00066EEA77AF4EEC77AF1EE10FAA0D8304698
:1039C000A6E73046B9E73146E6E73046CEE7002CB9
:1039D00000F0E081BBF1020FD8F8243000F0E18163
:1039E0007A69DCF8081003EB820EC7F804909300A4
:1039F000DFED6B5A0EF1040000227B61DCF80C3025
:103A00003B61331DD7F810903D61FD69C7E902CBDA
:103A10008C46834656F82210D8ED0C7A07EE101A21
:103A200053F82210B8EEC76A07EE101A5EF822109B
:103A3000F8EEC76A07EE101A26EE256A5BF8221028
:103A4000B8EEC77A66EEA56A26EE276A27EE257AD3
:103A500066EEA76A27EE277A07EE901A510802321F
:103A6000F8EEE77A0AEB8100944280ED006A05EBFC
:103A7000810067EEA57AC0ED006A0CEB810009EBCE
:103A8000810180ED007A98ED0C7A67EE877AC1EDBE
:103A9000007ABFD8D7F804903D69D7E902CB6046D9
:103AA0006208BB6949469847D8F82C307A69D8ED46
:103AB0000D6A1A449FED3E7A9FED3E6A131D9246B1
:103AC000DFF8E4C00022FB612B1D364ED9E9008EE1
:103AD0004EE0F4EEC67AF1EE10FAC0F2FC81304608
:103AE00045F822000EEB0100D0ED007A66EEA77AD1
:103AF000F4EEC77AF1EE10FA49D9F4EEC67AF1EE97
:103B000010FAC0F2EF813046BBF1020F43F82200F9
:103B10002AD0D9F808000844D0ED007A66EEA77ADA
:103B2000F4EEC77AF1EE10FA35D9F4EEC67AF1EE7A
:103B300010FAC0F2C98130464AF82200D9F80C00C8
:103B40000144D1ED007A66EEA77AF4EEC77AF1EE81
:103B500010FA1ED9F4EEC67AF1EE10FAC0F2AD8179
:103B60003146F86940F82210023294427FF6CBAC1D
:103B7000510808EB81008900D0ED007A66EEA77A43
:103B8000F4EEC77AF1EE10FAA3D86046A8E76046D3
:103B9000BAE76146E5E76046CEE700BF0280FFFF77
:103BA000000000300082FF7F007E008000000034B3
:103BB00004FF7FBF04FF7F3F002C00F0EB807A6999
:103BC0000021D8F82430C7F8109003EB820ED7F804
:103BD0001C909300FD610EF104021FED0C6A7B61E5
:103BE000331D154656F821204808D8ED0C6ABBF164
:103BF000020F82F40002A2F5000207EE902A53F8A9
:103C0000212082F40002B8EEE77AA2F5000227EE46
:103C1000067A07EE902A0AEB8002F8EEE77A27EEA2
:103C2000267A67EE867A82ED007A09EB80024FEA07
:103C3000800067EEA67AC2ED007A27D05EF82120D8
:103C400082F40002A2F5000207EE902A55F8212026
:103C500082F40002B8EEE77AA2F5000227EE067AB7
:103C600007EE902ADCF80820F8EEE77A024427EE07
:103C7000267A67EE867A82ED007A98ED0C7ADCF887
:103C80000C2067EE877A0244C2ED007A02318C4242
:103C9000A8D8D7F8109060466208BB694946FD690C
:103CA0009847D8F82C307A69D8ED0D6A1A441FED80
:103CB000407A1FED406A131D9246DFF8C4C200220D
:103CC000FB612B1DAB4ED9E9008E4EE0F4EEC67AB7
:103CD000F1EE10FAC0F2C580304645F822000EEB36
:103CE0000100D0ED007A66EEA77AF4EEC77AF1EE25
:103CF00010FA49D9F4EEC67AF1EE10FAC0F2BF809C
:103D00003046BBF1020F43F822002AD0D9F8080050
:103D10000844D0ED007A66EEA77AF4EEC77AF1EEA9
:103D200010FA35D9F4EEC67AF1EE10FAC0F2AE8090
:103D300030464AF82200D9F80C000144D1ED007A4F
:103D400066EEA77AF4EEC77AF1EE10FA1ED9F4EE19
:103D5000C67AF1EE10FAC0F28B803146F86940F86D
:103D60002210023294427FF6CEAB510808EB81005C
:103D70008900D0ED007A66EEA77AF4EEC77AF1EE0C
:103D800010FAA3D86046A8E76046BAE76146E5E7BF
:103D90006046CEE7224649466046BB699847FFF732
:103DA000B2BBC7F810B0002298ED0C6A331DDFEDEE
:103DB000726AD7F81CB0786956F8221007EE901A8C
:103DC00053F82210B8EEE77A07EE901A5108023243
:103DD000F8EEE77A27EE267A0AEB810E94420BEB97
:103DE000810167EEA67A27EE067A67EE867A8EED77
:103DF000007AC1ED007ADFD88300D7F810B07B617C
:103E00004DE61A46C7F810B098ED0C6A331DDFED89
:103E10005B6AD7F81CB0786936F9221007EE101AE1
:103E200033F9221007EE901AB8EEC77A5108023221
:103E3000F8EEE77A27EE267A0AEB810E94420BEB36
:103E4000810167EEA67A27EE067A67EE867A8EED16
:103E5000007AC1ED007ADFD88300D7F810B07B611B
:103E600034E5F0EE675AFEEEE45A15EE900A34E7B8
:103E7000F0EE675AFEEEE45A15EE901A6EE7F0EE99
:103E8000675AFEEEE45A15EE900A3AE7F0EE675AEA
:103E9000FEEEE45A15EE900A4BE767EEA57AFDEECA
:103EA000E77A17EE900A00B232E567EEA57AFDEEEA
:103EB000E77A17EE900A00B23FE5F0EE675AFEEEA1
:103EC000E05A15EE901A4CE6F0EE675AFEEEE05A14
:103ED00015EE900A30E6F0EE675AFEEEE05A15EE67
:103EE000900AFDE5F0EE675AFEEEE05A15EE900AF4
:103EF0000AE667EEA57AFDEEE77A17EE901A09B2A8
:103F00004AE567EEA57AFDEEE77A17EE900A00B271
:103F10002CE5F0EE675AFEEEE45A15EE902A1FE407
:103F200067EEA57AFDEEE77A17EE902A12B2FFF758
:103F300031BBF0EE675AFEEEE45A15EE902AFFF719
:103F4000FDBBF0EE675AFEEEE05A15EE902AFFF741
:103F50009BBBF0EE675AFEEEE05A15EE902AFFF793
:103F600080BB67EEA57AFDEEE77A17EE902A12B2D3
:103F7000FFF724BB82FF7F00000000300000003804
:103F80007E0080FF30B5184C154685B0046004F102
:103F9000080EEC460FC98EE80F00D4ED047AF5EE5A
:103FA000C07A8CE80F00F1EE10FA1ADDB7EE006A65
:103FB00094ED057A27EE277AC6EE276A84ED0D7A0E
:103FC000C4ED0C6A6DB1204640F8185F02F03CFA6F
:103FD000064903690020064A2162A262E36005B037
:103FE00030BD012005B030BD083201240020003072
:103FF0000000003000680830704700BFB1F5807FD6
:1040000003680A4628BF4FF48072B1F5807F9A603A
:1040100094BF0020012070470068183002F074BA85
:1040200030B5046883B008480D46A368A26A216AC7
:104030009B00009004F1180002F008FA0020C4E987
:10404000000503B030BD00BFC933000810B4074BF2
:104050004FF07E5130240022032019619C60D8600B
:104060005DF8044B5961C3E9062270470832012408
:10407000F6EE007A9FED166A20EE207A0160F7EEE8
:10408000006A80ED036A80ED020A27EE277AC6EE09
:10409000877AF4EEE67AF1EE10FA11DDF0EE667A48
:1040A0004FF07E514FF0000C02760022C0ED017AF5
:1040B000C0F814C0016143768276C0ED070A7047EC
:1040C000F4EEC67AF1EE10FAEAD5F0EE467AE7E7BA
:1040D000000000000268037E128807EE902AFBEEC3
:1040E000C87A1BB1B7EE007A77EE677AD0ED056A31
:1040F00090ED047A77EEE67A437E67EE877A0BB12D
:10410000F1EE677A90ED030A90ED017A77EEC07ACE
:10411000A7EE270A80ED030A704700BF837E80ED7B
:10412000020AABB9D0ED077A27EE800AF6EE007AE4
:10413000B7EE007A20EE270AC7EE007AF4EEC77ACF
:10414000F1EE10FA07DDF0EE477AC0ED017A704724
:10415000DFED067AE8E7F5EEC07AF1EE10FAF4D575
:10416000DFED037AC0ED017A704700BF6F12033BA9
:104170000000000030B5044687B00025ADF81410EB
:10418000ADF81020ADF80C3003F0C4FB2A462060D7
:10419000059904F12C0025710123009501F004F824
:1041A00001232A46049904F14000009500F0FCFF29
:1041B0009FED060A039904F1080000F0EFF94FF6AD
:1041C000FF73A565A4F8543007B030BD00000000AF
:1041D000F8B5044603F09EFB00262368267183424F
:1041E00005D104F10800BDE8F84000F0EFB901275F
:1041F00094F85450206004F12C00BD40277101F068
:10420000B9F86DB2284394F85550BD4084F8540075
:1042100004F1400001F0AEF894F854306DB2A66598
:1042200003F003032843022BC0B284F8550009D0E1
:1042300000F003000228D4D1002BD2D14FF0FF337D
:10424000A365CEE78307CCD1A765CAE7704700BF57
:10425000F8B5134F3C687F2C07D98023114A42F2EE
:1042600024411C463B60A2F87E100F4D2B68012BA9
:104270000AD90C4E0D4D22463146284600F058FA18
:104280000028F8D13860F8BD22460649074800F0FA
:104290004FFA0028F7D12B68386001332B60F8BD46
:1042A000443201244832012440320124C83201241E
:1042B00030B4154C2168F1B14B1E144DE81810F8BC
:1042C00001298C4619460A2A01D00D2A02D14BB188
:1042D000013BF4E70CF102037F2B10D9802323600C
:1042E00030BC70470122022323600D200A2368544A
:1042F000AB5430BC704701220223044DF4E70CF1AB
:1043000001026146F0E700BF443201244832012433
:1043100010B5094C02460B46084821680844C1F113
:10432000800113F031FB236818442060FFF7C0FFC1
:10433000FFF78EFF10BD00BF443201244832012434
:104340000FB400B583B004A951F8040B0191FFF735
:10435000DFFF03B05DF804EB04B0704710B504460E
:1043600000210A4800F05EF9002C094B14BF02221C
:10437000002208481A60FFF7E3FF0748FFF7E0FF55
:104380000A20BDE8104003F0CDBA00BFC8320124B6
:1043900040320124349D0108449D0108064A074922
:1043A000074808B512F0B0F9034A04490548BDE8CA
:1043B000084012F0A9B900BF000000244D420008D7
:1043C000C8320124CC320124064A074910B4002423
:1043D000C0E900424FF480725DF8044BC0E902125C
:1043E000704700BF010701060040003000220A2389
:1043F00002700371704700BFDFED167A8C46B4EE91
:10440000670A10B504468646F1EE10FA2DED028BD0
:1044100080ED080A48BFB0EE670AC0ED090AB0EEA9
:10442000608A80F83420BCE80F00AEE80F009CE8FA
:104430000F008EE80F0012F013FBF0EE407AB0EEA2
:10444000480AC4ED0A7A12F00BFB84ED0B0ABDECAE
:10445000028B10BD95BFD63390F8343010B50446AA
:10446000032B4BD8DFE803F03B2A1502FFF732FE9F
:1044700060EE006AD4ED087A94ED097A26EE800A9F
:1044800037EE677AE0EE077AC4ED0C7AB0EE670A91
:1044900010BDFFF71FFE94ED0A7AD4ED0B7A77EE8C
:1044A000C77AA0EE277AB0EE470A12F067FAF0EE6C
:1044B000407A84ED0C0AB0EE670A10BDFFF70AFEE1
:1044C000D4ED087A94ED097A20EE000A37EE677A87
:1044D000E0EE077AB0EE670AC4ED0C7A10BDFFF784
:1044E000F9FDD4ED087A94ED097A37EE677AE0EEBB
:1044F000077AB0EE670AC4ED0C7A10BDD0ED0C7AE5
:10450000C4E700BF30B585B004469FED110A9DF8A1
:104510002050ADF80C100399ADF808202A46ADF8EC
:1045200004308DED000A0FF073F99DED000A2A4664
:10453000029904F12C000FF06BF99DED000A2A4658
:10454000019904F1580005B0BDE830400FF060B9A2
:1045500000007A4438B50C46054691ED000A0FF08C
:1045600079F994ED010A05F12C000FF073F994ED3F
:10457000020A05F15800BDE838400FF06BB900BFE2
:1045800010B504460FF078F904F12C000FF074F91F
:1045900004F15800BDE810400FF06EB910B586B0B8
:1045A0000446ADF80C10ADF8141003F0B3F94FF455
:1045B0008071002220600123A18004F10800A18302
:1045C0000599009200F0F0FD06B010BD10B504464C
:1045D00003F0A0F9002122682171824200D110BDB0
:1045E0000346012204F108002360227100F0C2FE9C
:1045F000227F617F53005BB281B180F0010252B231
:104600001343DBB27F2B2377E9D103F083F907EE65
:10461000900AF8EE677AC4ED087A10BD42B2EFE76F
:10462000704700BF012910B506D0022915D051B13D
:10463000BDE8104008F006BE0A46344834490EF082
:10464000A9FBE8B1FEE7334B0A46334C3349344803
:104650001C600EF09FFB68B1FEE701222C492B483D
:104660000EF098FB00B1FEE72E4928480EF0B6FB8D
:10467000C0B1FEE72B492A480EF0B0FB60B1FEE75F
:10468000284922480EF0AAFB00B1FEE726491F4840
:104690000EF020FB08B3FEE7244921480EF01AFB78
:1046A000A8B1FEE7204919480EF014FB00B1FEE75F
:1046B00016480EF0BBFB024640B9164B164C174984
:1046C00017481C600EF066FB68B1FEE7FEE7144871
:1046D0000EF0ACFB0028ABD0FEE70C480EF0A6FBBA
:1046E0000028A5D0FEE70F490D480EF077FB00B17A
:1046F000FEE70E490A480EF0EDFA00B1FEE7084861
:104700000EF094FB002893D0FEE700BFAC350124E7
:104710009802002488380124214600087C020024E5
:10472000D03201240C030024580200244402002447
:10473000084691B208B503F0E1FB003818BF01202C
:1047400008BD00BF014807F013BE00BF7077012409
:10475000014807F00DBE00BF70770124014807F043
:1047600007BE00BF7077012410B4002383B0032478
:10477000018080F8503080F85120C0E9014303B037
:104780005DF8044B704700BF2DE9F04FBE4F002489
:10479000BE4D8DB0037007F140034260804616465F
:1047A0008946202221463846C5F88835C5F88475E3
:1047B000CDE90244CDE90444CDE90644CDE90844FD
:1047C000CDE90A4412F014FB2022214605F2625082
:1047D000C5F85145C5F85545C5F85945C5F85D4575
:1047E00012F006FB85F85065D8F8043085F8684665
:1047F000002B62D005F5AA6A09F1500B264609EB99
:10480000040128195222013612F0E4FA4FF0000395
:1048100027F8023B1BF804300AF8013F002B70D048
:10482000D8F804304FF0010254349E4285F86826CF
:10483000E5D3974A082195F850350026C5F88C2510
:104840004FF4802293480027C5F8A4350023C5F80B
:1048500090250122C5F89C1595F86816C5F8943581
:1048600085F8A035C5F89825C0E9006700293ED035
:10487000C5F8B82585F8A13585F8A835002298F83F
:104880000030C5F8BC25C5F8C025002B40D001225A
:1048900000200121013B85F8C4257F4AC2E90001BF
:1048A000082B37D8DFE813F0BD00C200C700CC00EA
:1048B000D100D600DB00E100E800C5F89435F6B27F
:1048C00085F8A0350020724B0021C5F8A465C5F815
:1048D0008C354FF48023C5F890350123C5F8983501
:1048E0000823C5F89C3505F5B663C3E9000101232B
:1048F00085F8A135002385F8A8350323C5F8B83518
:10490000BCE7D8F804305434B3423FF678AF90E7B0
:1049100085F8C435614804F0B1FB034608B1FFBE19
:10492000FEE702A95D48029304F008FD0446002852
:1049300075D1042340F2FF720A90CDE9082395F85F
:104940005035002B00F0F58006234FF054090193F9
:1049500009FB045393F85130072B07D8DFE803F025
:10496000595C5653504D4A040723079326B206EB71
:104970004606C6EBC60605EB8608B700404600F0C3
:1049800035FB09FB045393F85030042B00F3AD8042
:10499000022B00F3C08000F0BC802B19002283F8AA
:1049A000402515F8262098F80130002A7CD0022AEC
:1049B00000F08D80012A40F0B480012B00F0B3801C
:1049C000002B374B18BF0023059305A9019B3348E3
:1049D000069303F053FF002840F0AE80013495F8B1
:1049E0005035E4B2A34240F2A4802E4B53F8243059
:1049F0000193ADE706230793B8E705230793B5E7CF
:104A000004230793B2E703230793AFE70223079337
:104A1000ACE700230793A9E701230793A6E7FFBEAE
:104A2000FEE70320402142E9020173E707206021ED
:104A300042E902016EE70F20802142E9020169E7A5
:104A40001F20A02142E9020164E73F20C02142E982
:104A500002015FE77F20E02142E902015AE7FF20DF
:104A60004FF4807142E9020154E740F2FF104FF425
:104A7000907142E902014DE740F2FF304FF4A0711E
:104A800042E9020146E700BF0041003090380124AE
:104A900000200240403E0124603E01241C3E0124CF
:104AA0000002B025549D0108062B36D0072B3CD0C0
:104AB000022B49D0032B49D0002B4BD0012B47D0E0
:104AC000042B49D0052B254B18BF00237CE7042B72
:104AD00025D0052B2BD08BB3012B31D0022B31D01D
:104AE000032B1F4B18BF00236EE70323143705EB7E
:104AF000040B4FF0000A2F448BF8403538460AF17A
:104B0000010A00F073FA9BF8403514375345F5DC81
:104B100047E70123EAE70223E8E7124B54E7124B89
:104B200052E7002350E7114B4EE7114B4CE7114B76
:104B30004AE70DB0BDE8F08FFFBEFEE70E4B43E73E
:104B40000E4B41E70E4B3FE70E4B3DE70E4B3BE76D
:104B50000E4B39E70E4B37E70E4B35E70000B84FE9
:104B6000002090360800900C1000C0102000F014B7
:104B70008000501D000180210004002A0008302E12
:104B8000001060320040C03A0080F03E0000524702
:104B9000000021430000844B38B5094C40F2FF72FD
:104BA0004FF0011104F28C55284604F075FB94F87F
:104BB0005025D4F884152846BDE8384004F0D4B810
:104BC00090380124034B0F29D3F8840598BF00EBDC
:104BD0004100704790380124244B02689A4200D06B
:104BE0007047234A00232348D2F8D81030B5224C0E
:104BF00041F0200183B0C4F8F0050920C4F8F8356D
:104C000004F5BE65C4F8F4054FF48060C2F8D8100E
:104C10004FF40061D2F8D820C4F8000694F8680672
:104C200002F02002C4F8FC3598420192C4F8041640
:104C30004FF40051C4F810362846C4F81436019BCE
:104C400014BF00234FF48073C4F80816C4F80C3660
:104C500004F0A0FD08B1FFBEFEE704F28C53C4F8D7
:104C6000D855C4F8283603B030BD00BF002002403C
:104C7000004402584000024090380124014805F0E9
:104C8000D1BB00BF803E012402682DE9F84F504B94
:104C90009A4201D0BDE8F88F4E4D95F86836002B4A
:104CA000F8D095F85035002B7BD0002405F13C0955
:104CB00005F2625605F5AA67A04613E003F001016C
:104CC00017F811BCA9F1280000F060FBBBF1010F3F
:104CD00025D895F85035013409F154090236A2B2AD
:104CE00093422BD917F8012F002AF4D0D5F8843538
:104CF0000021327833F81400D5F8883503EB04131B
:104D000023F81200338801339BB233805FFA83FAB1
:104D10003A789A42D2D88A46A6F80080D0E7CAF3F9
:104D20004001A9F1140000F031FBBBF1020FCAF3FE
:104D30008001CED0484600F029FBCAE7002395F851
:104D40006806254909229842C5F8F8354FF4806075
:104D5000C5F8F015C5F8F4254FF400614FF4005282
:104D6000C5F8FC3508BF4FF48073C5F80006C5F8D8
:104D70000416C5F8082600221848C5F80C36C5F8F0
:104D80001026C5F8142604F005FD08B1FFBEFEE7A5
:104D900095F85025D5F884151148BDE8F84F03F073
:104DA000E3BF0D4909224FF48060C5F8F835C5F816
:104DB000F0154FF40061C5F8F4254FF40052C5F822
:104DC000FC35C5F80006C5F80416C5F80826D2E774
:104DD000002002409038012440000240803E01241F
:104DE0001C3E0124704700BF0C4B4FF60B71002294
:104DF00003F5A8601980DA6099821A6219855A63EE
:104E000099879A64C3E90122C3E90622C3E90B2208
:104E1000C3E9102254339842ECD1704790380124F2
:104E200084460FC98CE80F009CF800300B2B30D063
:104E30009CF801200F2A2CD8022900B591B041D04E
:104E4000032902D0012900D000210C91DCF80810C0
:104E5000012902D0022918BF00210D91DCF80C10A5
:104E6000022904D0032902D0012918BF00210A2BEE
:104E70000E910FD85B4800EB8320CCF810000A2B72
:104E800017D8DFE803F0A0928476685A4C3E3022AF
:104E9000090070470020F0E7534BD3F8E01041F4CD
:104EA0008061C3F8E010D3F8E03003F480630A9324
:104EB0000A9B01230BA993400B9305F005FE11B04B
:104EC0005DF804FB11210C91C0E7474BD3F8E010CB
:104ED00041F40071C3F8E010D3F8E03003F400733C
:104EE0000993099BE5E7404BD3F8E01041F480714A
:104EF000C3F8E010D3F8E03003F480730893089B04
:104F0000D7E7394BD3F8E01041F08001C3F8E01047
:104F1000D3F8E03003F080030793079BC9E7324BD7
:104F2000D3F8E01041F04001C3F8E010D3F8E030CE
:104F300003F040030693069BBBE72B4BD3F8E0102E
:104F400041F02001C3F8E010D3F8E03003F0200373
:104F50000593059BADE7244BD3F8E01041F0100119
:104F6000C3F8E010D3F8E03003F010030493049B7F
:104F70009FE71D4BD3F8E01041F00801C3F8E010A3
:104F8000D3F8E03003F008030393039B91E7164B3B
:104F9000D3F8E01041F00401C3F8E010D3F8E0309A
:104FA00003F004030293029B83E70F4BD3F8E01056
:104FB00041F00201C3F8E010D3F8E03003F002033F
:104FC0000193019B75E7084BD3F8E01041F0010114
:104FD000C3F8E010D3F8E03003F001030093009B26
:104FE00067E700BF000002580044025803780B2B0B
:104FF0002DD042780F2A2AD84168022910B590B0E6
:105000003ED0032902D0012900D000210C918168F3
:10501000012902D0022918BF00210D91C16802297F
:1050200004D0032902D0012918BF00210A2B0E91B8
:105030000ED85B4C04EB832404610A2B17D8DFE8FD
:1050400003F009A0928476685A4C3E3022007047E3
:105050000024F1E7534BD3F8E01041F00101C3F80D
:10506000E010D3F8E03003F001030093009B01232C
:105070000BA9204693400B9305F026FD10B010BD00
:1050800011210C91C3E7474BD3F8E01041F4806144
:10509000C3F8E010D3F8E03003F480630A930A9B6E
:1050A000E5E7404BD3F8E01041F40071C3F8E0109D
:1050B000D3F8E03003F400730993099BD7E7394B29
:1050C000D3F8E01041F48071C3F8E010D3F8E03079
:1050D00003F480730893089BC9E7324BD3F8E010C0
:1050E00041F08001C3F8E010D3F8E03003F0800312
:1050F0000793079BBBE72B4BD3F8E01041F040012F
:10510000C3F8E010D3F8E03003F040030693069BA9
:10511000ADE7244BD3F8E01041F02001C3F8E010D4
:10512000D3F8E03003F020030593059B9FE71D4B68
:10513000D3F8E01041F01001C3F8E010D3F8E030EC
:1051400003F010030493049B91E7164BD3F8E0108F
:1051500041F00801C3F8E010D3F8E03003F0080391
:105160000393039B83E70F4BD3F8E01041F0040156
:10517000C3F8E010D3F8E03003F004030293029B7D
:1051800075E7084BD3F8E01041F00201C3F8E010D6
:10519000D3F8E03003F002030193019B67E700BFFF
:1051A000000002580044025810B592B0ADF8041047
:1051B0000180C9B2149C0B29C460C0E901233FD00F
:1051C00090F801C0BCF10F0F3AD8022A3FD0032A51
:1051D00002D0012A00D000220E92012B02D0022B15
:1051E00018BF0023022C0F932CD0032C2AD0012CA3
:1051F00028D000230A29109327D85C4A02EB812289
:1052000002610A2914D8DFE801F0A39587796B5D64
:105210004F4133250600564BD3F8E01041F480612E
:10522000C3F8E010D3F8E03003F480630C930C9BD8
:1052300001230DA9104603FA0CF30D9305F044FC6D
:1052400012B010BD0A291094D7D90022D8E7112234
:105250000E92C2E7464BD3F8E01041F40071C3F858
:10526000E010D3F8E03003F400730B930B9BDFE7FF
:105270003F4BD3F8E01041F48071C3F8E010D3F84D
:10528000E03003F480730A930A9BD1E7384BD3F8DC
:10529000E01041F08001C3F8E010D3F8E03003F0F3
:1052A00080030993099BC3E7314BD3F8E01041F029
:1052B0004001C3F8E010D3F8E03003F04003089356
:1052C000089BB5E72A4BD3F8E01041F02001C3F862
:1052D000E010D3F8E03003F020030793079BA7E723
:1052E000234BD3F8E01041F01001C3F8E010D3F8DD
:1052F000E03003F010030693069B99E71C4BD3F8AC
:10530000E01041F00801C3F8E010D3F8E03003F0FA
:1053100008030593059B8BE7154BD3F8E01041F08C
:105320000401C3F8E010D3F8E03003F00403049361
:10533000049B7DE70E4BD3F8E01041F00201C3F867
:10534000E010D3F8E03003F002030393039B6FE710
:10535000074BD3F8E01041F00101C3F8E010D3F897
:10536000E03003F001030293029B61E70000025862
:105370000044025808B5012143780069994089B278
:1053800005F0A4FD003818BF012008BD01230A461E
:105390004178006903FA01F189B205F09DBD00BFB3
:1053A00010B5002386B0122204460493CDE90223EF
:1053B0000368022B1FDC002B01DB042305932379F8
:1053C0000A2B1FD8114800EB83206279012301A921
:1053D0009340019305F078FBA3790A2B14D80B486E
:1053E00000EB8320E279012301A99340019305F0AA
:1053F0006BFB06B010BD032BE1D106230593237987
:105400000A2BDFD90020E0E70020EBE7000002587C
:10541000634A0368934210B58CB028D0614A934226
:1054200058D0614A934200F09480604A934201D080
:105430000CB010BD5E4C5F48D4F8E03043F002037E
:10544000C4F8E030D4F8E03003F002030A930A9B7A
:10545000FFF7A6FFD4F8F43043F08003C4F8F4302B
:10546000D4F8F43003F080030B930B9BE0E7504C2F
:105470005148D4F8E03043F00203C4F8E030D4F8E7
:10548000E03003F002030193019BFFF789FFD4F89A
:10549000E83000221F2043F400131146C4F8E8301E
:1054A000D4F8E83003F400130293029BD4F8D83008
:1054B00043F00103C4F8D830D4F8D83003F0010326
:1054C0000393039B03F0B4FF1F200CB0BDE8104012
:1054D00003F0ECBF364C3948D4F8E03043F0800399
:1054E000C4F8E030D4F8E03003F080030493049B68
:1054F000D4F8E03043F00203C4F8E030D4F8E030F0
:1055000003F002030593059BFFF74AFFD4F8E83048
:105510000022212043F480031146C4F8E830D4F877
:10552000E83003F480030693069BD4F8D83043F0A8
:105530000103C4F8D830D4F8D83003F0010307933E
:10554000079B03F075FF21200CB0BDE8104003F06D
:10555000ADBF1B48FFF724FF154B00224820D3F8AE
:10556000E840114644F40004C3F8E840D3F8E840AA
:1055700004F400040894089CD3F8D84044F00104D3
:10558000C3F8D840D3F8D83003F001030993099B3E
:1055900003F04EFF48200CB0BDE8104003F086BF7A
:1055A0000054004000580040005C0040001C0058BF
:1055B00000440258A0410124003F0124E03F01249F
:1055C000C04001242DE9F0431A4B87B000254FF06D
:1055D00010099E46EC46184BFF22E04667461A70BB
:1055E0000EF118060EF13004CDE90055CDE9025553
:1055F000ADF80090BCE80F00CDE90455AEE80F000F
:105600009CE803000095ADF800908EE80300B8E830
:105610000F000FC69CE803000095ADF8009086E8E7
:1056200003000FCF0FC49CE8030084E8030007B019
:10563000BDE8F08304000024FC3E012410B5EFF324
:10564000108472B6084B1A78120602D504B962B6F5
:1056500010BD1878054B40B2C0EBC00003EB401002
:10566000143004F0DFFEF1E7FC3E0124003F01248A
:10567000014806F06BBD00BF8C3F0124014806F0D5
:1056800065BD00BF6C400124014806F05FBD00BF4E
:105690004C4101242DE9F0430D6885B0404EC5EB27
:1056A000C503032D4FEA431706EB4313036041DCA8
:1056B000CA680C46012A3DD84FEAC5084CD020687C
:1056C0009C466168A8EB0509A2680DF1100EE3681D
:1056D00006EB4919ACE80F00324B227C8CF8002015
:1056E000D9F808C00FCB0EE90F000EEB8503BCF113
:1056F000010F53F8103CC9F88C3032D0BCF1020FC6
:1057000043D0BCF1000F36D0227C8C37A8EB0505C6
:1057100000233744520006EB451601213846C6F8EF
:10572000AC30C6E92521C6E92733C6E9293306F09E
:10573000CFF918B1012005B0BDE8F0830146384625
:1057400006F010FD0028F5D10146384606F034FD7C
:10575000003818BF0120EEE70A7C103A672AAED95C
:10576000E8E702F089FA104B98420CBF0F4B104B40
:10577000C9F89030C8E702F07FFA0B4B98420CBF93
:105780000C4B0D4BC9F89030BEE702F075FA064B92
:1057900098420CBF094B0A4BC9F89030B4E700BFE0
:1057A000003F0124609C0108000E27072D0FB03038
:1057B0003211D0205F4390608A62E030200BA0104D
:1057C0001A0980102DE9F041D0F8008082B00D4612
:1057D00017461E4608F18C04204606F0BFFC202820
:1057E000FAD1D8F80C3073B96D002046089C3346C6
:1057F0003A46A9B2009406F0C1F9003818BF01205A
:1058000002B0BDE8F081089B32463946204606F0DA
:1058100073FBF2E7094B6FF0F41110225960C3F8E3
:10582000E4101A7483F8F020C3F8C41183F8D0216F
:10583000C3F8A41283F8B022704700BF003F0124D0
:1058400030B5002395B04FF48071062204460B93C7
:1058500006921393CDE90C13CDE90E33CDE9113344
:1058600002F012FA07282BD004F1100541F2883219
:1058700006A9284607F016FE28B10123184684F829
:105880005C3015B030BD0222022306A92846CDE9BE
:10589000002310220123CDE9022300224FF48003CC
:1058A000CDE9042305224FF0807306926A460F93D8
:1058B00041F2883307F062FF0028DED115B030BD19
:1058C0000323012084F85C3015B030BD00000000D7
:1058D00070B50023A4B04FF080724FF48075044679
:1058E000ADF806300D93CDE910320122CDE90E530B
:1058F000CDE91223CDE91433002943D0F02300F180
:10590000100508AEADF80630C02341F288323146AA
:105910002846089307F0C6FD28B10123184684F8ED
:105920005C3024B070BD41F288320DF1060128468A
:1059300007F022FE03460028EFD105224FF48071C4
:105940001E93284616924FF080721B9321931F924C
:1059500002AA9FED1F7BCDE91C13CDE922338DED0B
:10596000027B9FED1D7B41F2883316A98DED047BF0
:105970009FED1B7B8DED067B07F000FF0028CCD14F
:1059800024B070BD00F1100508AE612341F28832E9
:1059900031462846089307F085FD0028BDD141F225
:1059A00088320DF10601284607F064FE0028B4D1C4
:1059B000BDF80630204623F0780343F04003ADF8ED
:1059C0000630FFF73DFF00289ED0A6E7AFF300802A
:1059D00000000000010000001000000001000000B5
:1059E00000000000000040002DE9F04F00234FF4BC
:1059F000807501264FF0807804462DED028BABB008
:105A00008DF8073013932193299314950E96CDF8B2
:105A10005C80CDE91533CDE91863CDE91A33CDE9C2
:105A20002253CDE92433CDE9273306231C9302F01A
:105A30002BF9072808D004F1100741F288321CA97D
:105A4000384607F02FFD40B10123184684F85C303A
:105A50002BB0BDEC028BBDE8F08F4FF0020A4FF087
:105A6000020B4FF0050941F2883308AA1CA93846F9
:105A7000CDF89480CDF870909FED2D8BCDE908ABDB
:105A80004FF0000A4FF4800B8DED0A8BCDE90CAB83
:105A900007F074FE0028D7D141F2883238460EA9AB
:105AA00007F000FD0028CFD1402341F288320DF1EC
:105AB000070138468DF8073007F05EFD0028C3D196
:105AC00041F288330EA902AA3846CDF83890CDF8B5
:105AD0005C809FED197B8DED048BCDE906AB8DEDE0
