:020000040800F2
:1000000000000220010A0008FD090008395A000812
:10001000FD090008FD090008FD09000800000000B6
:10002000000000000000000000000000FD090008C2
:10003000FD09000800000000FD090008BD59000886
:10004000FD090008FD090008FD090008FD09000878
:10005000FD090008FD090008FD090008FD09000868
:10006000FD090008FD090008FD09000819460008FF
:100070002546000879330008314600083D4600084F
:1000800085540008453B0008FD090008FD090008EB
:10009000FD090008FD090008FD090008FD09000828
:1000A000FD090008FD090008FD090008FD09000818
:1000B00005180108111801081D180108793B0008EE
:1000C000FD090008853B0008FD09000875100108BE
:1000D00081100108B9520008E552000819530008C0
:1000E000FD090008FD09000800000000FD090008E6
:1000F000FD090008FD090008FD090008FD090008C8
:10010000FD090008FD090008291801088D100108E3
:100110004D53000881530008FD090008FD0900083F
:10012000FD090008FD090008B1100108E5100108EB
:10013000B9540008FD090008FD090008FD09000880
:1001400000000000000000000000000000000000AF
:10015000FD090008FD090008FD090008B553000865
:10016000913B0008FD090008CD590008F15900082D
:10017000FD090008155A0008FD090008FD090008DE
:10018000FD090008FD090008E95300081D54000896
:1001900099100108A5100108FD090008FD090008D3
:1001A000FD090008FD090008FD090008FD09000817
:1001B00039430008FD090008FD090008FD09000891
:1001C000FD090008FD090008310801083D08010883
:1001D000FD09000849080108FD090008FD0900089B
:1001E000FD090008FD090008FD090008FD090008D7
:1001F000FD090008FD090008FD090008FD090008C7
:10020000FD090008FD090008FD090008FD090008B6
:10021000FD090008FD090008FD090008FD090008A6
:10022000FD090008FD090008FD09000800000000A4
:10023000FD090008FD09000800000000FD09000894
:10024000FD090008FD090008FD090008FD09000876
:10025000FD090008FD090008FD090008FD09000866
:10026000FD090008FD090008FD090008FD09000856
:10027000FD090008FD0900085154000800000000B5
:10028000FD090008FD090008FD0900080000000044
:0802900000000000FD09000858
:1002A00010B5054C237833B9044B13B10448AFF3B0
:1002B00000800123237010BD100600240000000000
:1002C0000059010808B5034B1BB103490348AFF3BC
:1002D000008008BD00000000140600240059010839
:1002E00001F0FF01102A2BDB10F0070F08D010F8E7
:1002F000013B013A8B422DD010F0070F42B3F6D1EB
:10030000F0B441EA012141EA014122F007047FF003
:1003100000070023F0E80256083C85EA010586EA5A
:10032000010685FA47F5A3FA87F586FA47F6A5FA96
:1003300087F68EB9EED1F0BC01F0FF0102F00702A2
:1003400032B110F8013B013A83EA010313B1F8D14D
:100350000020704701387047002D06BF354603382E
:10036000073815F0010F07D1013015F4807F02BF67
:10037000013015F4C03F0130F0BC0138704700BFB8
:1003800081F0004102E000BF83F0004330B54FEA46
:1003900041044FEA430594EA050F08BF90EA020FB3
:1003A0001FBF54EA000C55EA020C7FEA645C7FEA46
:1003B000655C00F0E2804FEA5454D4EB5555B8BF69
:1003C0006D420CDD2C4480EA020281EA030382EADA
:1003D000000083EA010180EA020281EA0303362D6C
:1003E00088BF30BD11F0004F4FEA01314FF4801C3F
:1003F0004CEA113102D0404261EB410113F0004F51
:100400004FEA03334CEA133302D0524263EB430307
:1004100094EA050F00F0A780A4F10104D5F1200EA5
:100420000DDB02FA0EFC22FA05F2801841F1000100
:1004300003FA0EF2801843FA05F359410EE0A5F1D4
:1004400020050EF1200E012A03FA0EFC28BF4CF005
:10045000020C43FA05F3C01851EBE37101F00045BB
:1004600007D54FF0000EDCF1000C7EEB00006EEBC8
:100470000101B1F5801F1BD3B1F5001F0CD3490852
:100480005FEA30004FEA3C0C04F101044FEA4452A9
:1004900012F5800F80F09A80BCF1004F08BF5FEA30
:1004A000500C50F1000041EB045141EA050130BD10
:1004B0005FEA4C0C404141EB0101013C28BFB1F522
:1004C000801FE9D291F0000F04BF01460020B1FA6D
:1004D00081F308BF2033A3F10B03B3F120020CDA40
:1004E0000C3208DD02F1140CC2F10C0201FA0CF01E
:1004F00021FA02F10CE002F11402D8BFC2F1200C83
:1005000001FA02F120FA0CFCDCBF41EA0C01904038
:10051000E41AA2BF01EB0451294330BD6FEA040481
:100520001F3C1CDA0C340EDC04F11404C4F120026C
:1005300020FA04F001FA02F340EA030021FA04F37E
:1005400045EA030130BDC4F10C04C4F1200220FAD5
:1005500002F001FA04F340EA0300294630BD21FA13
:1005600004F0294630BD94F0000F83F4801306BFD9
:1005700081F480110134013D4EE77FEA645C18BFCD
:100580007FEA655C29D094EA050F08BF90EA020F64
:1005900005D054EA000C04BF1946104630BD91EA5C
:1005A000030F1EBF0021002030BD5FEA545C05D15F
:1005B0004000494128BF41F0004130BD14F580049E
:1005C0003CBF01F5801130BD01F0004545F0FE4112
:1005D00041F470014FF0000030BD7FEA645C1ABF47
:1005E000194610467FEA655C1CBF0B46024650EA7E
:1005F000013406BF52EA033591EA030F41F40021AA
:1006000030BD00BF90F0000F04BF0021704730B52F
:100610004FF4806404F132044FF000054FF0000104
:1006200050E700BF90F0000F04BF0021704730B5C5
:100630004FF4806404F1320410F0004548BF40429A
:100640004FF000013EE700BF42004FEAE2014FEAEF
:1006500031014FEA02701FBF12F07F4393F07F4FCA
:1006600081F06051704732F07F4208BF704793F0CD
:100670007F4F04BF41F40021704730B54FF46074E0
:1006800001F0004521F000411CE700BF50EA0102E3
:1006900008BF704730B54FF000050AE050EA01028C
:1006A00008BF704730B511F0004502D5404261EBFC
:1006B00041014FF4806404F132045FEA915C3FF43D
:1006C000D8AE4FF003025FEADC0C18BF03325FEADA
:1006D000DC0C18BF033202EBDC02C2F1200300FA8B
:1006E00003FC20FA02F001FA03FE40EA0E0021FAB0
:1006F00002F11444BDE600BF53B94AB9002908BF4E
:1007000000281CBF4FF0FF314FF0FF3000F074B9EC
:10071000ADF1080C6DE904CE00F006F8DDF804E058
:10072000DDE9022304B070472DE9F047089D044637
:100730008E46002B4DD18A42944669D9B2FA82F294
:1007400052B101FA02F3C2F1200120FA01F10CFAD0
:1007500002FC41EA030E94404FEA1C48210CBEFB08
:10076000F8F61FFA8CF708FB16E341EA034306FB91
:1007700007F199420AD91CEB030306F1FF3080F020
:100780001F81994240F21C81023E63445B1AA4B26D
:10079000B3FBF8F008FB103344EA034400FB07F70F
:1007A000A7420AD91CEB040400F1FF3380F00A8150
:1007B000A74240F207816444023840EA0640E41B45
:1007C00000261DB1D4400023C5E900433146BDE8F1
:1007D000F0878B4209D9002D00F0EF800026C5E993
:1007E000000130463146BDE8F087B3FA83F6002EAB
:1007F0004AD18B4202D3824200F2F980841A61EB23
:10080000030301209E46002DE0D0C5E9004EDDE740
:1008100002B9FFDEB2FA82F2002A40F09280A1EB28
:100820000C014FEA1C471FFA8CFE0126200CB1FB7D
:10083000F7F307FB131140EA01410EFB03F0884276
:1008400008D91CEB010103F1FF3802D2884200F203
:10085000CB804346091AA4B2B1FBF7F007FB101195
:1008600044EA01440EFB00FEA64508D91CEB040433
:1008700000F1FF3102D2A64500F2BB800846A4EB8E
:100880000E0440EA03409CE7C6F12007B34022FA79
:1008900007FC4CEA030C20FA07F401FA06F31C43A8
:1008A000F9404FEA1C4900FA06F3B1FBF9F8200CB5
:1008B0001FFA8CFE09FB181140EA014108FB0EF0FB
:1008C000884202FA06F20BD91CEB010108F1FF3A4B
:1008D00080F08880884240F28580A8F10208614457
:1008E000091AA4B2B1FBF9F009FB101144EA014165
:1008F00000FB0EFE8E4508D91CEB010100F1FF3410
:100900006CD28E456AD90238614440EA0840A0FBA7
:100910000294A1EB0E01A142C846A64656D353D07D
:100920005DB1B3EB080261EB0E0101FA07F722FAA1
:1009300006F3F1401F43C5E9007100263146BDE8CA
:10094000F087C2F12003D8400CFA02FC21FA03F32D
:10095000914001434FEA1C471FFA8CFEB3FBF7F0AE
:1009600007FB10360B0C43EA064300FB0EF69E42D3
:1009700004FA02F408D91CEB030300F1FF382FD26C
:100980009E422DD9023863449B1B89B2B3FBF7F614
:1009900007FB163341EA034106FB0EF38B4208D9ED
:1009A0001CEB010106F1FF3816D28B4214D9023E2E
:1009B0006144C91A46EA004638E72E46284605E74C
:1009C0000646E3E61846F8E64B45A9D2B9EB02081D
:1009D00064EB0C0E0138A3E74646EAE7204694E7AD
:1009E0004046D1E7D0467BE7023B614432E73046E0
:1009F00009E76444023842E7704700BFFEE700BFE2
:100A00000B480C4A904203D0121A0B4913F0D2FA49
:100A10000A480B4A904203D0121A002113F0D8FA68
:100A200005F062FA13F09AFA00F024F9FEE700BF2D
:100A3000000000240C06002434590108100600248C
:100A4000088C0124704700BF704700BF704700BF8B
:100A5000704700BF704700BF2DE9F047604D0C465E
:100A6000164628462DED028B00F0ACFA284600F021
:100A7000B5FA95F8B430002B5DD095F8BA307F2BDD
:100A800059D1584F012387F8343095F8C43023B139
:100A900095F8CA307F2B00F08780534802F002F8A7
:100AA000DFF8509195F8443089ED000A002B4BD1C6
:100AB000DFF844A19AED007AF7EE007AB4EEE77A17
:100AC000F1EE10FA5EDDCAED007A95F84C301BB1FC
:100AD00095F852307F2B5ED04EB3013E0025414F3A
:100AE0007608DFF8188101E099ED000A3D480834E6
:100AF00087ED030A12F076FBB0EE408A3B4812F015
:100B00008BFC98F80030DAED007AB54228EE000A46
:100B100007EE103A05F10105B8EEC78A20EE270A64
:100B200028EE000A04ED020A04ED010ADCD1BDEC56
:100B3000028BBDE8F0872E4B1B78002BA5D0294FE8
:100B40003B78002BA1D19DE7D5ED197AF8EEE77A35
:100B5000F5EEC07AF1EE10FA2CDDDFF89CA09AEDEC
:100B6000007A9FED1D6BB7EEC77A37EE067BB7EEC6
:100B7000C77BF7EE007A8AED007AB4EEE77AF1EE01
:100B800010FAA0DCB5EEC07A0023F1EE10FA48BFEF
:100B9000CAF8003099E7DFF8648098F8003083F0F5
:100BA000010388F8003097E7114A137883F00103B6
:100BB000137072E77FF57CAFDFF83CA09AED007A06
:100BC0009FED056BB7EEC77A37EE467BB7EEC77B76
:100BD0008AED007A70E700BF7B14AE47E17A943F5C
:100BE000640600242C060024EC2A012444990024E5
:100BF000282B01242C2B0124242B0124302B01240D
:100C0000B9B30144F0B51546A5B002F10807441E7A
:100C10004E1E01E0A6422AD014F8011F6A4638464B
:100C200001F052FE0028F5D0D5F8A8C09022694600
:100C3000D5E92B03C31A00F1010E00EBC00048BF39
:100C400063440CF1FF3C9C45E4D0D5F8A430C5F8D2
:100C5000ACE003EB001013F0ADF9D5E92A23934281
:100C6000A3EB020328BFC5F8AC30A642D4D125B00F
:100C7000F0BD70472DE9F04F00217948794C4FF0D5
:100C80007C59794F01254FF0000ADFF820B2DFF8D8
:100C900020822DED048B89B0F7EE008A00F042FA35
:100CA00004216F4800F072F96D4800F085F94FF4A7
:100CB00040732046B0EE408A238050F8041B02F0B7
:100CC0005FF804F1080001F0B7FEC8EE887A674BC0
:100CD00038469FED670AC3F80090664B87ED048A9B
:100CE0001D7087ED020AC7F80490C7F80C90C7F88A
:100CF00018A0DFED619A9FED619AC7ED057A12F0B9
:100D000045FD40F201135E483D703B8587ED070AC3
:100D100001F0C8FEDBED007A38465A4DE0EE277A46
:100D2000B0EE670AC7ED027A12F030FD284687ED73
:100D3000070AB0EE480AC7ED019A12F03BFA6F4677
:100D4000F0EE690A9FED500A85ED029AC5ED038A1F
:100D5000C5F814A0C5ED068AC5F82090B8E80F00C4
:100D60000FC798E80F0087E80F0000226946444843
:100D700001F068FE08F1100CEE46B0EE490ADFED16
:100D8000430ABCE80F00AEE80F009CE80F0087E8BC
:100D90000F00694600223E4801F054FEA8F1780099
:100DA00000F00CF93B49A8F1780000F0EDF83A4862
:100DB00002F01AF8002847D0D4F8AC70D4F8B0305C
:100DC000F91A00290A463BDB002AF0D09F42F8D0EE
:100DD00003EBC302D4F8A4000133D4F8A86000EBFD
:100DE0000211B3424FEA021291F808E0825C497A9C
:100DF000C4F8B03002D39B1BC4F8B030012ADDD157
:100E000085F834200029D9D007EE90EA9FED237AA7
:100E1000F2EE080AF8EE677AB0EE000A77EEC77ACB
:100E2000C7EEA00A12F094FDDFED1D7A20EE270A2E
:100E3000D4E92B738BED000AF91A00290A46C3DAAC
:100E4000D4F8A8200A44BFE7164801F0F5FD12487F
:100E500001F0CEFF034A1449101D01F0BBFFABE7C0
:100E6000640600247099002444990024242B012452
:100E70000000C842302B0124CDCCCC3D0AD7233C06
:100E8000B42A01242C060024CDCCCCBD3333333F0F
:100E9000EC2A0124590A00087499002400008A42AF
:100EA0000000DC4378990024010C0008342B012455
:100EB000CC0600242DE9F041264C0025DFF8C48043
:100EC00040F20F77256004F5C070656140F20116AD
:100ED0002562E56301F0E4FC04F51473C4F8905155
:100EE0002046C4F84032C4F83882A4F83C72C4F8F2
:100EF0004462194A1949C4E9925512F04DFC184C44
:100F0000154A1849184812F047FC134A174918485F
:100F100012F042FC2146104A164812F03DFC1648D9
:100F20000D4A00F1B4031549C0F8A860C0F8A43018
:100F30004FF4407345600360C0E92787C0E92B5533
:100F400012F02AFC2146044A0D48BDE8F04112F097
:100F500023BC00BF6406002400000024490A0008E6
:100F6000450A0008510A0008449900244D0A000867
:100F70002C060024EC2A012470990024550A00084C
:100F8000B42A01240080707F00F062B938B50446AD
:100F900000F066F9D4F8A850204600F07DF9284604
:100FA00001F0E4FBD4F8AC50204600F075F9284677
:100FB000BDE8384001F0DABB00F04EB9183002F05D
:100FC0006FB900BF10B50446683001F0ABFB04F107
:100FD0008800BDE8104001F0A5BB00BF10B5044675
:100FE000403001F01FFC04F1B00001F017FE04F1E5
:100FF000C000BDE8104001F011BE00BFF0B54FF4D5
:1010000081718FB000F1D80701254FF4C0624FF411
:10101000E063ADF8081000F5967402993846ADF813
:101020000C2008AEADF810300095DDE9032301F087
:101030008FFD40F201134FF480722046ADF814305A
:101040004FF48063059900950BADADF81820ADF80D
:101050001C30DDE9062301F07BFD3046072105F059
:10106000B1F996E8070085E807002946384601F0FF
:1010700097FD96E8070085E807002946204601F01D
:101080008FFD384601F0A2FD20460FB0BDE8F040CC
:1010900001F09CBD2DE9F04140F2024304460222DA
:1010A000002504F1180704F1A8062DED028B8EB07F
:1010B0009FED1B8AADF80C3005A8039901F0CEFE18
:1010C00002220DF12600ADF81020049901F0C6FEB1
:1010D0000423022205A9384601F0D4FE04F1680277
:1010E00004F18803C4E92A232946384656F8048BBC
:1010F00002F0ECF801462046019100F0CDF8002303
:10110000F0EE480A019940461A4601F0D9FA25B195
:101110000EB0BDEC028BBDE8F0810125E4E700BF15
:101120006F12033B2DE9F04104469AB0002701916C
:1011300000F08CF80199204600F06EF940F6061395
:1011400004F1B0069FED400AADF8143004F1C0057B
:101150003046059901F048FD4FF4007328469FED95
:101160003A0AADF8183004F5C878069901F03CFD4C
:1011700040F6033240F201639FED330AADF80820D8
:1011800004F140000299ADF80C70C4F8D0600FAEC5
:10119000C4F8D45007ADADF81030DDE9032301F0F9
:1011A00011FB2046FFF72AFF2046FFF773FF284672
:1011B00001F076FB01230DF12C0E04F5C07C159394
:1011C000189347F61223169719930223179395E85D
:1011D0000F008CE80F008EE80F0086E80F00BDF8C6
:1011E00040301490ADF84E30BDF84230D4E9625E24
:1011F000ADF84C30C4E9655EBEF1000F04D0724614
:101200003946284612F0E4FE13A9404604F00AFAD3
:1012100004F5D27001F010FC3021204600F020F8D7
:10122000D4F8A850204600F037F8284601F09EFA7E
:10123000D4F8AC50204600F02FF828461AB0BDE88C
:10124000F04101F093BA00BF00000000704700BFFA
:10125000143001F00DBA00BF143001F005BA00BF20
:1012600038B500F1140504462DED028B284601F037
:10127000EDF9284601F0F8F92846B0EE408A01F071
:10128000E1F9D0ED007AF8EE677A88EE277ABDECC6
:10129000028B84ED0E7A38BD90ED0E0A704700BFC8
:1012A00010B540F203338EB000244FF60B7240F2BB
:1012B0000341ADF8083009A80123ADF81020ADF8BE
:1012C00024202246ADF80C100094029907940C9447
:1012D000CDE90544CDE90A4402F0FAF804A8012357
:1012E00022460399009402F0F3F809A802F0D6F917
:1012F00010B901200EB010BD04A802F0CFF9A04231
:101300000CBF022020460EB010BD00BF2DE9F041F9
:1013100003239AB0012700240646CDE914373B4B3E
:10132000CDE9104340F20453CDE91647ADF84830FB
:10133000FFF7B6FFB842054625D0022845D040F653
:101340000132334B0DF12C081894ADF82C200B987A
:101350001997CDF84A3000F0E3F810A906F13C00E7
:1013600003F0E6F9302003224FF07E5341460D93FF
:101370000E93CDE90B02F26B06F1140001F02AF98D
:101380001AB0BDE8F0811023214A06A906908DF815
:1013900028300DF12C081F4BCDF84A2007930294FA
:1013A000CDE91804CDE9080402A802F0F7FB0823F0
:1013B000029A03A94046ADF80C508DF80E400495F2
:1013C00005930B9400F0ECF8C7E700200121104BC7
:1013D0000DF12C083A460094CDF84A304FF60B73C5
:1013E0000C94ADF82C302346CDE9180140F60131BC
:1013F0004046ADF818100699CDE90D4402F068F8A2
:101400002146404602F056F9A7E700BF0402040453
:10141000040604030704010B2DE9F04704462DEDF3
:10142000028B82B000294DD0012140F2011200232D
:101430000091ADF804208DF80630364A0127364B6E
:1014400004F10409354904F12908626040F202728E
:10145000A36040F60663E16004F1250AA4F82520A4
:10146000A4F82930278284F8277084F82B7004F0C0
:10147000F1FC054604F054FB6946064650BB4DB3EB
:1014800004F130008DF8067004F06CFC072D3CD19F
:1014900004F114052046FFF739FF284601F0E4F86F
:1014A0002846B0EE408A01F0CDF8D0ED007AF8EE93
:1014B000677A88EE277A84ED0E7A02B0BDEC028B53
:1014C000BDE8F08740F2011300918DF80610ADF8E9
:1014D0000430B2E704F1300004F044FC072D11D0D1
:1014E0004946204602F0A4FD0EB9002DD0D1504649
:1014F00002F0EAF8404602F0E7F804F1120000F0CA
:1015000079F9C5E7002EF2D1C2E74946204602F03C
:101510008FFDBDE70508050905070506050A06064E
:1015200010B584B003460124ADF8040003A8ADF85B
:101530000C30ADF80E4002F0C7F8214603A802F0C7
:10154000ADF9204604F0EAFA002103A802F0A6F95A
:10155000204604F0E3FA214603A802F09FF904B004
:1015600010BD00BF10B5C2F3002384B00C46017C4F
:101570008DF80D2043EA4402FA2402238DF80C2052
:1015800003AA009402F0A0FB18B10124204604B085
:1015900010BD04460A2004F0C1FA204604B010BD74
:1015A000034670B543F8042B044684B007C983E8AA
:1015B0000700A37983B91A210B461E22FA2523744A
:1015C0002046ADF80C20022303AA009502F07CFB14
:1015D00028B1012004B070BD1B210B46EDE70A20A5
:1015E00004F09CFA4FF4B85200950223ADF80C2099
:1015F000204603AA217C02F067FB0028E9D10A20DB
:1016000004F08CFA41F2027200950223ADF80C202E
:10161000204603AA217C02F057FB0028D9D10A20DA
:1016200004F07CFA042200950223ADF80C20204639
:1016300003AA217C02F048FB0028CAD10A2004F04A
:101640006DFA062200950223ADF80C20204603AA6D
:10165000217C02F039FB0028BBD10A2004F05EFA9D
:1016600041F2082200950223ADF80C20204603AA7F
:10167000217C02F029FB0028ABD10A20064604F0A9
:101680004DFA0095022303AA217C2046ADF80C6098
:1016900002F01AFB00289CD1304604F03FFA009576
:1016A00022790C232046002A8DF80C3003AA4FF033
:1016B000020314BF622142218DF80D10217C02F03B
:1016C00003FB002885D1304604F028FA2279D4E9BA
:1016D00002310B43DBB20AB943F0400362790AB12D
:1016E00043F020030E22FA258DF80D302046009598
:1016F00002238DF80C2003AA217C02F0E5FA0028D1
:101700007FF467AF0A2004F009FA10220095022343
:10171000ADF80C20204603AA217C02F0D5FA00285F
:101720007FF457AF0A2004F0F9F912210095022343
:10173000ADF80C1003AA217C204602F0C5FA00285F
:101740007FF447AF0A2004F0E9F90122092120467D
:10175000FFF708FF003818BF01203BE7F0B5102362
:1017600087B0234C012200250126002702A920462C
:101770000195CDE902234FF48052CDE904670BF0C7
:10178000A5FB642004F050FF02A94FF480522046CC
:10179000CDE9046702261027CDE902670BF096FB1E
:1017A0000322102302A92046CDE9022300230422AC
:1017B000CDE904234FF480520BF088FB40F2322332
:1017C000042202A9019310232046CDE90223019AA5
:1017D000012305924FF4805204930BF077FB40F6FF
:1017E000060120460BF092FB284607B0F0BD00BF73
:1017F000402B01241C4B00221C494FF0400C30B5FB
:10180000054689B00220596007219A601A620124B6
:10181000DA620A224FF4006EDC6006922022CDE9E3
:10182000000104200821CDE9020103201021CDE9A7
:10183000040108206946C3E904024FF4C072181D70
:10184000C3E906C24FF48052C3E909E20BF014FB6E
:1018500038B92846FFF782FF003818BF012009B0C9
:1018600030BD204609B030BD3C2B01244041005220
:10187000614A0021D0B513688EB00A91002B40F068
:10188000B9805E4B01214FF683700C241160022158
:10189000D3F8D4200026032742F48052C3F8D42082
:1018A000D3F8D42002F480520092009AD3F8E020BA
:1018B00042F01002C3F8E020D3F8E02002F010025A
:1018C0000192019AD3F8E02042F04002C3F8E020F0
:1018D000D3F8E02002F040020292029AD3F8E0200E
:1018E00042F00802C3F8E020D3F8E02002F008023A
:1018F0000392039AD3F8E02042F48072C3F8E02008
:10190000D3F8E02002F480720492049AD3F8E02025
:1019100042F08002C3F8E020D3F8E02002F0800219
:101920000592059AD3F8E02042F02002C3F8E020A7
:10193000D3F8E02002F020020692069AD3F8E020C5
:1019400042F00402C3F8E020D3F8E0300C9403F036
:10195000040307930323079A0B93CDE9080108A911
:10196000274806F0E7FC48F23712022308A9254869
:101970000C94CDE90823CDE90A6706F0DBFC4CF2B4
:101980000372022308A920480C94CDE90823CDE96D
:101990000A6706F0CFFC40F2FF62022308A91B4849
:1019A0000C94CDE90823CDE90A6706F0C3FC4FF695
:1019B0000C72022308A916480C94CDE90823CDE93E
:1019C0000A6706F0B7FC4FF63F02022308A9114848
:1019D0000C94CDE90823CDE90A6706F0ABFC202280
:1019E000022308A90A480C94CDE90A67CDE9082327
:1019F00006F0A0FC0EB0D0BD382B012400440258E4
:101A00000010025800180258000C0258002002581A
:101A1000001C0258001402582DE9F04FDFF8108422
:101A200006460D46144608F118002DED028B89B0CC
:101A300000AF02F075FFD8F8183073B3D8F81C3037
:101A4000D8F80490002B43690BBF4FF0080A4FF001
:101A5000100A4FF0020B4FF0040BB9F1000F2AD01F
:101A6000A200EA46012B02F1070222F00702ADEBC9
:101A7000020D6846ADEB020D694600F03F81022B76
:101A800000F0D680002B6FD02246C847D5462437B9
:101A9000BD46BDEC028BBDE8F08FD8F81C30002BA2
:101AA000F5D0D8F804904FF0080A4FF0020B4369C4
:101AB000B9F1000FD4D1FB61D8F80030BB61002B25
:101AC000E5D0D54802F09EFF6B46BBF1020F78616E
:101AD00008EE103AFB6900F083816A465146A2EB9A
:101AE000C40295466200EA46B2FBFBF2AAEBC400D0
:101AF00085460AEB8200EE46F861ADEB010DF86910
:101B00000EEB820CC7F810C0EC46ADEB010D00EBFC
:101B10008201CCF80400CCF8081001EB820138698E
:101B2000E946CCF80C1000EB8201CCF800A001EBE8
:101B30008202C9E900E0C9E90212012B00F06483C6
:101B4000022B00F06C82002B00F080816208494675
:101B50006046BB69984718EE103A24379D46BD464B
:101B6000BDEC028BBDE8F08F002C8DD01A46D8ED6D
:101B70000C6A9FEDB27A8446331D36F922E00CF1EF
:101B8000080C07EE90EA33F922E00232F8EEE77A29
:101B9000944267EE877A67EEA67A4CED027A07EEFA
:101BA00090EAF8EEE77A67EE877A67EEA67A4CED70
:101BB000017AE2D8F9612246C847984ED8ED0D6AFD
:101BC0000020F9692B1D9FED9E7A9FED9E6ADFED47
:101BD0009E5A22E0F4EEC67AF1EE10FAC0F2C88402
:101BE00047F6FE72D1ED017A45F8202066EEA77A1D
:101BF000F4EEC77AF1EE10FA40F2F080F4EEC67A15
:101C0000F1EE10FAC0F2D58447F6FE7243F82020B8
:101C10000230083184427FF639AFD1ED007A66EEAA
:101C2000A77AF4EEC77AF1EE10FAD3D83246D9E7A4
:101C3000002C3FF429AFD8ED0C6A84469FED787AEA
:101C40000022331D8E4656F822100CF1080C07EEC8
:101C5000901A53F822100232F8EEE77A944267EEB7
:101C6000877A67EEA67A4CED027A07EE901AF8EEC4
:101C7000E77A67EE877A67EEA67A4CED017AE2D8CA
:101C800071462246C7F81CE0C847664ED8ED0D6A7B
:101C90000020F9692B1D9FED6A7A9FED6A6ADFF8D3
:101CA00094C120E0F4EEC67AF1EE10FAC0F2798425
:101CB0003246D1ED017A45F8202066EEA77AF4EE9F
:101CC000C77AF1EE10FA40F28780F4EEC67AF1EEB0
:101CD00010FAC0F25E84324643F820200230083108
:101CE00084427FF6D3AED1ED007A66EEA77AF4EEA9
:101CF000C77AF1EE10FAD5D86246DAE7002C3FF445
:101D0000C3AED8ED0C6A86469FED477A4FF0000CC3
:101D1000331D56F82C200EF1080E82F40002A2F5B5
:101D2000000207EE902A53F82C200CF1020CF8EE7A
:101D3000E77A82F400026445A2F5000267EE877A32
:101D400067EEA67A4EED027A07EE902AF8EEE77A71
:101D500067EE877A67EEA67A4EED017AD9D8F961F7
:101D60002246C847314ED8ED0D6A0020F9692B1D77
:101D70009FED337A9FED336ADFF8BCC01FE0F4EECD
:101D8000C67AF1EE10FAC0F2FC833246D1ED017A48
:101D900045F8202066EEA77AF4EEC77AF1EE10FA45
:101DA00018D9F4EEC67AF1EE10FAC0F2DA833246B0
:101DB00043F820200230083184427FF667AED1ED2F
:101DC000007A66EEA77AF4EEC77AF1EE10FAD6D86A
:101DD0006246DBE76246EBE762467DE7324615E79F
:101DE000A100D6466208073121F00701ADEB010DD5
:101DF000EA46ADEB010D6946ADEB0E0D0AEB820034
:101E0000EC46ADEB0E0D01EB8202F861E946CCE940
:101E100000A0C9E9001290E6902B01240280FFFF88
:101E2000000000300082FF7F0000003482FF7F004E
:101E3000742B0124007E00807E0080FF00000038AB
:101E400004FF7FBF04FF7F3F00FEFF46002C00F031
:101E5000C982BBF1020FD8F8242000F0FA82796918
:101E6000C7F8049002EB810E5FED0C5A8A00DCF893
:101E700008100EF104007A611A46DCF80C303B6160
:101E8000331DD7F810903D61FD69C7E902CB8C4640
:101E9000834636F92210D8ED0C7A06EE101A33F983
:101EA000221006EE901A3EF92210B8EEC66A07EE2E
:101EB000101AF8EEE66A3BF92210B8EEC77A26EE61
:101EC000256A66EEA56A27EE257A26EE276A66EE73
:101ED000A76A27EE277A07EE901A51080232F8EE29
:101EE000E77A0AEB8100944280ED006A05EB8100FD
:101EF00067EEA57AC0ED006A0CEB810009EB810169
:101F000080ED007A98ED0C7A67EE877AC1ED007A61
:101F1000BFD8D7F804903D69D7E902CB6046620884
:101F2000BB6949469847D8F82C307A69D8ED0D6AD4
:101F30001A441FED3D7A1FED3D6A2B1D904602F1BC
:101F4000040A5FED3F5A0022A84ED9E900EC51E0A7
:101F5000F4EEC67AF1EE10FAC0F2C78247F6FE70D0
:101F600045F822000CEB0100D0ED007A66EEA77A6E
:101F7000F4EEC77AF1EE10FA4BD9F4EEC67AF1EE30
:101F800010FAC0F2BA8247F6FE70BBF1020F43F8B6
:101F900022002BD0D9F808000844D0ED007A66EE74
:101FA000A77AF4EEC77AF1EE10FA36D9F4EEC67AD3
:101FB000F1EE10FAC0F2CD8247F6FE7048F822002A
:101FC000D9F80C000144D1ED007A66EEA77AF4EE60
:101FD000C77AF1EE10FA1ED9F4EEC67AF1EE10FAD5
:101FE000C0F2AF8247F6FE714AF8221002329442E4
:101FF0007FF6B1AD51080EEB81008900D0ED007A7B
:1020000066EEA77AF4EEC77AF1EE10FAA0D8304661
:10201000A6E73046B9E73146E6E73046CEE7002C82
:1020200000F0E081BBF1020FD8F8243000F0E1812C
:102030007A69DCF8081003EB820EC7F8049093006D
:10204000DFED6B5A0EF1040000227B61DCF80C30EE
:102050003B61331DD7F810903D61FD69C7E902CBA4
:102060008C46834656F82210D8ED0C7A07EE101AEB
:1020700053F82210B8EEC76A07EE101A5EF8221065
:10208000F8EEC76A07EE101A26EE256A5BF82210F2
:10209000B8EEC77A66EEA56A26EE276A27EE257A9D
:1020A00066EEA76A27EE277A07EE901A51080232E9
:1020B000F8EEE77A0AEB8100944280ED006A05EBC6
:1020C000810067EEA57AC0ED006A0CEB810009EB98
:1020D000810180ED007A98ED0C7A67EE877AC1ED88
:1020E000007ABFD8D7F804903D69D7E902CB6046A3
:1020F0006208BB6949469847D8F82C307A69D8ED10
:102100000D6A1A449FED3E7A9FED3E6A131D92467A
:10211000DFF8E4C00022FB612B1D364ED9E9008EAA
:102120004EE0F4EEC67AF1EE10FAC0F2FC813046D1
:1021300045F822000EEB0100D0ED007A66EEA77A9A
:10214000F4EEC77AF1EE10FA49D9F4EEC67AF1EE60
:1021500010FAC0F2EF813046BBF1020F43F82200C3
:102160002AD0D9F808000844D0ED007A66EEA77AA4
:10217000F4EEC77AF1EE10FA35D9F4EEC67AF1EE44
:1021800010FAC0F2C98130464AF82200D9F80C0092
:102190000144D1ED007A66EEA77AF4EEC77AF1EE4B
:1021A00010FA1ED9F4EEC67AF1EE10FAC0F2AD8143
:1021B0003146F86940F82210023294427FF6CBACE7
:1021C000510808EB81008900D0ED007A66EEA77A0D
:1021D000F4EEC77AF1EE10FAA3D86046A8E760469D
:1021E000BAE76146E5E76046CEE700BF0280FFFF41
:1021F000000000300082FF7F007E0080000000347D
:1022000004FF7FBF04FF7F3F002C00F0EB807A6962
:102210000021D8F82430C7F8109003EB820ED7F8CD
:102220001C909300FD610EF104021FED0C6A7B61AE
:10223000331D154656F821204808D8ED0C6ABBF12D
:10224000020F82F40002A2F5000207EE902A53F872
:10225000212082F40002B8EEE77AA2F5000227EE10
:10226000067A07EE902A0AEB8002F8EEE77A27EE6C
:10227000267A67EE867A82ED007A09EB80024FEAD1
:10228000800067EEA67AC2ED007A27D05EF82120A2
:1022900082F40002A2F5000207EE902A55F82120F0
:1022A00082F40002B8EEE77AA2F5000227EE067A81
:1022B00007EE902ADCF80820F8EEE77A024427EED1
:1022C000267A67EE867A82ED007A98ED0C7ADCF851
:1022D0000C2067EE877A0244C2ED007A02318C420C
:1022E000A8D8D7F8109060466208BB694946FD69D6
:1022F0009847D8F82C307A69D8ED0D6A1A441FED4A
:10230000407A1FED406A131D9246DFF8C4C20022D6
:10231000FB612B1DAB4ED9E9008E4EE0F4EEC67A80
:10232000F1EE10FAC0F2C580304645F822000EEBFF
:102330000100D0ED007A66EEA77AF4EEC77AF1EEEE
:1023400010FA49D9F4EEC67AF1EE10FAC0F2BF8065
:102350003046BBF1020F43F822002AD0D9F808001A
:102360000844D0ED007A66EEA77AF4EEC77AF1EE73
:1023700010FA35D9F4EEC67AF1EE10FAC0F2AE805A
:1023800030464AF82200D9F80C000144D1ED007A19
:1023900066EEA77AF4EEC77AF1EE10FA1ED9F4EEE3
:1023A000C67AF1EE10FAC0F28B803146F86940F837
:1023B0002210023294427FF6CEAB510808EB810026
:1023C0008900D0ED007A66EEA77AF4EEC77AF1EED6
:1023D00010FAA3D86046A8E76046BAE76146E5E789
:1023E0006046CEE7224649466046BB699847FFF7FC
:1023F000B2BBC7F810B0002298ED0C6A331DDFEDB8
:10240000726AD7F81CB0786956F8221007EE901A55
:1024100053F82210B8EEE77A07EE901A510802320C
:10242000F8EEE77A27EE267A0AEB810E94420BEB60
:10243000810167EEA67A27EE067A67EE867A8EED40
:10244000007AC1ED007ADFD88300D7F810B07B6145
:102450004DE61A46C7F810B098ED0C6A331DDFED53
:102460005B6AD7F81CB0786936F9221007EE101AAB
:1024700033F9221007EE901AB8EEC77A51080232EB
:10248000F8EEE77A27EE267A0AEB810E94420BEB00
:10249000810167EEA67A27EE067A67EE867A8EEDE0
:1024A000007AC1ED007ADFD88300D7F810B07B61E5
:1024B00034E5F0EE675AFEEEE45A15EE900A34E782
:1024C000F0EE675AFEEEE45A15EE901A6EE7F0EE63
:1024D000675AFEEEE45A15EE900A3AE7F0EE675AB4
:1024E000FEEEE45A15EE900A4BE767EEA57AFDEE94
:1024F000E77A17EE900A00B232E567EEA57AFDEEB4
:10250000E77A17EE900A00B23FE5F0EE675AFEEE6A
:10251000E05A15EE901A4CE6F0EE675AFEEEE05ADD
:1025200015EE900A30E6F0EE675AFEEEE05A15EE30
:10253000900AFDE5F0EE675AFEEEE05A15EE900ABD
:102540000AE667EEA57AFDEEE77A17EE901A09B271
:102550004AE567EEA57AFDEEE77A17EE900A00B23B
:102560002CE5F0EE675AFEEEE45A15EE902A1FE4D1
:1025700067EEA57AFDEEE77A17EE902A12B2FFF722
:1025800031BBF0EE675AFEEEE45A15EE902AFFF7E3
:10259000FDBBF0EE675AFEEEE05A15EE902AFFF70B
:1025A0009BBBF0EE675AFEEEE05A15EE902AFFF75D
:1025B00080BB67EEA57AFDEEE77A17EE902A12B29D
:1025C000FFF724BB82FF7F000000003000000038CE
:1025D0007E0080FF30B5184C154685B0046004F1CC
:1025E000080EEC460FC98EE80F00D4ED047AF5EE24
:1025F000C07A8CE80F00F1EE10FA1ADDB7EE006A2F
:1026000094ED057A27EE277AC6EE276A84ED0D7AD7
:10261000C4ED0C6A6DB1204640F8185F02F080F9F5
:10262000064903690020064A2162A262E36005B000
:1026300030BD012005B030BD742B012400200030D6
:102640000000003000680830704700BFB1F5807F9F
:1026500003680A4628BF4FF48072B1F5807F9A6004
:1026600094BF0020012070470068183002F0B8B90C
:1026700030B5046883B008480D46A368A26A216A91
:102680009B00009004F1180002F04CF90020C4E90E
:10269000000503B030BD00BF191A000810B4074B85
:1026A0004FF07E5130240022032019619C60D860D5
:1026B0005DF8044B5961C3E906227047742B01246D
:1026C000F6EE007A9FED166A20EE207A0160F7EEB2
:1026D000006A80ED036A80ED020A27EE277AC6EED3
:1026E000877AF4EEE67AF1EE10FA11DDF0EE667A12
:1026F0004FF07E514FF0000C02760022C0ED017ABF
:10270000C0F814C0016143768276C0ED070A7047B5
:10271000F4EEC67AF1EE10FAEAD5F0EE467AE7E783
:10272000000000000268037E128807EE902AFBEE8C
:10273000C87A1BB1B7EE007A77EE677AD0ED056AFA
:1027400090ED047A77EEE67A437E67EE877A0BB1F6
:10275000F1EE677A90ED030A90ED017A77EEC07A98
:10276000A7EE270A80ED030A704700BF837E80ED45
:10277000020AABB9D0ED077A27EE800AF6EE007AAE
:10278000B7EE007A20EE270AC7EE007AF4EEC77A99
:10279000F1EE10FA07DDF0EE477AC0ED017A7047EE
:1027A000DFED067AE8E7F5EEC07AF1EE10FAF4D53F
:1027B000DFED037AC0ED017A704700BF6F12033B73
:1027C0000000000030B585B004460025ADF80C10BF
:1027D000ADF80820ADF8043003F09EF9BDF80C20E8
:1027E0004FF48073206004F118002283BDF80820A4
:1027F0006383E383A283257100F066FF04F11C006C
:1028000000F062FF9FED060A019904F1080000F054
:10281000EBF94FF6FF736562238405B030BD00BF4E
:1028200000000000F8B5044603F076F9002623689E
:102830002671834205D104F10800BDE8F84000F09C
:10284000EDB9012794F82050206004F11800BD4034
:10285000277101F015F86DB2284394F82150BD405E
:1028600084F8200004F11C0001F00AF894F82030EC
:102870006DB2666203F003032843022BC0B284F8F2
:10288000210009D000F003000228D4D1002BD2D1BE
:102890004FF0FF336362CEE78307CCD16762CAE7AC
:1028A000074A118830B481800024064D91884FF486
:1028B000807285600460C180C26030BC704700BF18
:1028C000605001080040003038B50446104694F8C6
:1028D00095301942237815D0032B19D094F89820FD
:1028E000002594F896300A4025700B40A26001F054
:1028F000F8021B09F82A237100F08680092B73D98E
:10290000002038BD032BFBD8DFE803F0112A510269
:10291000F7291CD094F98E2094F88E30002AEFDB32
:10292000E21801330020917384F88E3038BD94F89A
:10293000942094F8973022711940131F012B2173B2
:1029400005D994F88F3003F0FD03012B45D1002306
:10295000237018B19022211D11F02CFB012038BDED
:1029600094F8973094F894201940131F2173012B89
:1029700005D994F88F3003F0FD03012B29D10023F2
:10298000237000284CD09022211D11F013FB94F8E5
:1029900094200120032AB4D1237B772BB1D90922BB
:1029A000783B227184F8942084F8913038BD94F8F3
:1029B000973094F894201940012A617300D181B1B5
:1029C00018B19022211D11F0F5FA00230120237087
:1029D00038BD022300202370DCE70223002023708F
:1029E00038BD00232371EBE70122072B227019D198
:1029F00001F00703A56084F88F30CBB90322184695
:102A000084F88E30227038BD0823237194F89930F1
:102A100000221940227084F8901000289AD19DE776
:102A20000120B7E7082BF1D0284684F8943038BD50
:102A30004B077FF565AF8AE700220A230270037116
:102A4000704700BFDFED167A8C46B4EE670A10B50A
:102A500004468646F1EE10FA2DED028B80ED080A51
:102A600048BFB0EE670AC0ED090AB0EE608A80F890
:102A70003420BCE80F00AEE80F009CE80F008EE8A1
:102A80000F0010F001FFF0EE407AB0EE480AC4EDFE
:102A90000A7A10F0F9FE84ED0B0ABDEC028B10BD32
:102AA00095BFD63390F8343010B50446032B4BD87D
:102AB000DFE803F03B2A1502FFF734FE60EE006A00
:102AC000D4ED087A94ED097A26EE800A37EE677A1B
:102AD000E0EE077AC4ED0C7AB0EE670A10BDFFF79E
:102AE00021FE94ED0A7AD4ED0B7A77EEC77AA0EE48
:102AF000277AB0EE470A10F055FEF0EE407A84EDEA
:102B00000C0AB0EE670A10BDFFF70CFED4ED087A90
:102B100094ED097A20EE000A37EE677AE0EE077A44
:102B2000B0EE670AC4ED0C7A10BDFFF7FBFDD4EDE3
:102B3000087A94ED097A37EE677AE0EE077AB0EE1C
:102B4000670AC4ED0C7A10BDD0ED0C7AC4E700BF63
:102B500030B585B004469FED110A9DF82050ADF8C0
:102B60000C100399ADF808202A46ADF804308DED1D
:102B7000000A0DF05FFD9DED000A2A46029904F15E
:102B80001C000DF057FD9DED000A2A46019904F145
:102B9000380005B0BDE830400DF04CBD00007A446F
:102BA00038B50C46054691ED000A0DF067FD94ED31
:102BB000010A05F11C000DF061FD94ED020A05F11A
:102BC0003800BDE838400DF059BD00BF10B50446CF
:102BD0000DF066FD04F11C000DF062FD04F13800FB
:102BE000BDE810400DF05CBD70B5044682B0C1F385
:102BF0000726CDB2ADF8041002F08EFF4FF48072BC
:102C00004FF001232060A01DA571A280E671A36092
:102C100002B0BDE8704000F057BD00BF38B50446B3
:102C200002F07AFF002223682271834210D0012231
:102C3000A57AE37A954020602271A01D6DB243B958
:102C400000F01EFE40B22843C0B27F28A0720AD016
:102C500038BD00F015FEB0FA80F040092843C0B23C
:102C60007F28A072F4D102F057FF07EE900AF8EE29
:102C7000677AC4ED037A38BD704700BF30B5D0F82D
:102C80000C44ADF2044D3CB3D0F80824D0F8043421
:102C90009A4224D0EC460021E6460131D0F80834AF
:102CA000D0F804249B1AC3F30903002BF6D0D0F804
:102CB00004345A1C0344C2F309021D79C0F80424E9
:102CC000D0F80824D0F804340EF8015B9A42E4D11D
:102CD000D0F810246046A0470DF2044D30BD00210D
:102CE000EC46F5E7F8B5254CE378002B43D00B68AC
:102CF0000E46002B3FD0002105460F465B1A032BE2
:102D000030D96B5C294413F00E0F2BD003F00F0366
:102D1000234493F818382BB3013B481C50FA83F036
:102D2000D4F80434D4F80824013B9B1AC3F30903F4
:102D300013B311F801CFD4F80434D4F80824013BBC
:102D40009B1AC3F30903002BF5D0D4F80834814251
:102D500003F101022344C2F3090283F804C0C4F85A
:102D60000824DDD104372046FFF788FF3368BFB25F
:102D70009F423946C2D3F8BDE370F3E7AC2B012480
:102D8000CAB2114BA2F1010210B5B2FA82F282B0BE
:102D90000E4C5209ADF8041004600120A4F8011093
:102DA00011461870204600920DF0A0FC00230A2066
:102DB000E37002F0B3FE009A2046054902B0BDE878
:102DC00010400DF019BD00BF5C5E0124AC2B012446
:102DD000E52C000803684FF0010CC3F80C1483F8CD
:102DE00003C0C3F8102470470368D878704700BF49
:102DF0000368D3F80424C3F80824704730B54FF4AF
:102E00004072114C114BA4F8012004F61805104A29
:102E100003F1100E04F6280CC4F838284FF60F0200
:102E2000A4F83C28072284F83E280FCB85E80F0041
:102E30009EE80F008CE80F002046064A0649BDE8D0
:102E4000304010F0A9BC00BFAC2B01246850010831
:102E500080707FF000000024792C000800B583B05A
:102E60004FF0000E4FF0030C4274ADF80410BDF8A3
:102E7000043080F810E0A0F802C0038003B05DF8D1
:102E800004FB00BF2DE9F04FDFF81C8300258DB057
:102E9000C04C037008F140034260074601920E46A1
:102EA000202229464046C4F86831C4F86481CDE93F
:102EB0000255CDE90455CDE90655CDE90855CDE9D2
:102EC0000A5511F085F82022294604F5A170C4F8AE
:102ED0003151C4F83551C4F83951C4F83D5111F09D
:102EE00077F8019B84F8485284F830317A68002AD8
:102EF0006AD02B4604F59871454606F1100A9E46A5
:102F0000F01856F803B0E2180EF1010ED0F80CC01C
:102F1000D0F80490D0F8088044F803B0C2F80CC090
:102F20004FF0000CC2F80490C2F80880008A25F81F
:102F300002CB10821AF8032001F8012F002A70D06A
:102F40007A684FF001001233724584F84802D7D8EE
:102F50004FF4802290489DF8043008214FF000087B
:102F60004FF00009C4F884310023C4E95B02012258
:102F7000C4F8743184F88031C4E95E2194F84812B1
:102F8000C4E96489A9B3C4F89821002284F8813186
:102F900084F888313B78C4E96722002B38D00122BD
:102FA00000200121013B84F8A421C4E96C01082B15
:102FB00030D8DFE813F0BD00C200C700CC00D1005C
:102FC000D600DB00E100E8009DF804300121C4F8E0
:102FD0007421C4F884314FF4802384F880216E4A30
:102FE000C4E95B2308230022C4E95E130023C4E97B
:102FF00064230123002284F88131002384F888317E
:103000000323C4F898313B78C4E96722002BC6D16A
:1030100084F8A431614803F03FFF034638B1FFBE96
:10302000FEE77A68123372453FF66AAF90E702A96D
:103030005A48029304F08EF88246002876D1042282
:1030400040F2FF710A90CDE9081294F83021002A6D
:1030500000F0F3804FF006080AEBCA034FEACA09F2
:1030600004EB43035B7C072B07D8DFE803F0595CD4
:103070005653504D4A04072307930FFA8AF6D1445A
:1030800006EBC60604EB490904EB46077500384613
:1030900000F01AFB99F81030042B00F3AA80022BE1
:1030A00000F3BD8000F0B98004EB0A03002283F82E
:1030B000202114F81630002B78D0022B00F08A80E3
:1030C000012B40F0B2807B78012B00F0B080002B08
:1030D000334B18BF002305A93048CDE9053803F06C
:1030E00007FB002840F0AC800AF1010A94F8303167
:1030F0005FFA8AFA534540F2A0802A4B53F82A809F
:10310000AAE706230793B8E705230793B5E7042347
:103110000793B2E703230793AFE702230793ACE7D4
:1031200000230793A9E701230793A6E7FFBEFEE765
:1031300003224023C4E96A236CE707226023C4E921
:103140006A2367E70F228023C4E96A2362E71F220C
:10315000A023C4E96A235DE73F22C023C4E96A23B0
:1031600058E77F22E023C4E96A2353E7FF224FF4A4
:103170008073C4E96A234DE740F2FF124FF4907365
:10318000C4E96A2346E740F2FF324FF4A073C4E972
:103190006A233FE7F0330124002002405C3501241C
:1031A0000002B025C4500108004100307B78062B96
:1031B00037D0072B3DD0022B4AD0032B4AD0002B0F
:1031C0004CD0012B48D0042B4AD0052B254B18BFDF
:1031D000002380E77B78042B25D0052B2BD08BB3E5
:1031E000012B31D0022B31D0032B1F4B18BF0023F2
:1031F00071E70323043504EB0A0B4FF00009254463
:103200008BF82031284609F1010900F05DFA9BF89E
:10321000203104354B45F5DC4BE70123EAE7022377
:10322000E8E7124B57E7124B55E7002353E7114BE2
:1032300051E7114B4FE7114B4DE70DB0BDE8F08F53
:10324000FFBEFEE70E4B46E70E4B44E70E4B42E750
:103250000E4B40E70E4B3EE70E4B3CE70E4B3AE77A
:103260000E4B38E70000B84F002090360800900C55
:103270001000C0102000F0148000501D00018021BB
:103280000004002A0008302E001060320040C03ACE
:103290000080F03E00005247000021430000844BB4
:1032A00038B5094C40F2FF724FF0011104F5B675C4
:1032B000284603F0FDFE94F83021D4F86411284626
:1032C000BDE8384003F068BCF0330124034B0F29FC
:1032D000D3F8640198BF00EB41007047F03301243C
:1032E000214B02689A4200D07047204A00232048B0
:1032F000D2F8D81030B51F4C41F0200183B0C4F88B
:10330000D001092004F5E875C4E975034FF4806025
:10331000C2F8D810D2F8D8204FF40061C4E9773051
:1033200094F8480202F02002C4F8E4114FF400516E
:10333000984201922846C4F8E811C4E97C33019B05
:1033400014BF00234FF48073C4F8EC3104F028F963
:1033500008B1FFBEFEE704F5B673C4F8B851C4F86F
:10336000083203B030BD00BF0020024000440258C4
:1033700040000240F0330124014804F089BC00BF42
:10338000C035012402682DE9F84F4B4B9A4201D019
:10339000BDE8F88F494D95F84832002BF8D095F8E4
:1033A0003031002B77D0002405F10C0905F5A1760A
:1033B00005F59877A04613E003F0010117F811BC5A
:1033C000A9F1080000F06AFABBF1010F25D895F8C1
:1033D0003031013409F112090236A2B293422BD9DD
:1033E00017F8012F002AF4D0D5F864310021327883
:1033F00033F81400D5F8683103EB041323F81200F6
:10340000338801339BB233805FFA83FA3A789A4269
:10341000D2D88A46A6F80080D0E7CAF34001A9F1C5
:10342000040000F03BFABBF1020FCAF38001CED0DA
:10343000484600F033FACAE7002395F848022049CD
:1034400009229842C5F8D8314FF48060C5F8D011F0
:10345000C5F8D4214FF400614FF40052C5F8DC31B7
:1034600008BF4FF48073C5F8E821C5E97801002250
:103470001448C5E97B32C5F8F42104F091F808B18D
:10348000FFBEFEE795F83021D5F864110E48BDE87F
:10349000F84F03F081BB0A4909224FF48060C5F858
:1034A000D831C5E974124FF400614FF40052C5E9F8
:1034B0007730C5E97912DAE700200240F0330124C1
:1034C00040000240C03501245C350124704700BF34
:1034D00010B592B0ADF804100180C9B2149C0B294C
:1034E000C460C0E901233FD090F801C0BCF10F0FC8
:1034F0003AD8022A3FD0032A02D0012A00D0002263
:103500000E92012B02D0022B18BF0023022C0F9326
:103510002CD0032C2AD0012C28D000230A29109368
:1035200027D85C4A02EB812202610A2914D8DFE81D
:1035300001F0A39587796B5D4F4133250600564B0B
:10354000D3F8E01041F48061C3F8E010D3F8E03024
:1035500003F480630C930C9B01230DA9104603FA1E
:103560000CF30D9304F0E6FE12B010BD0A2910947E
:10357000D7D90022D8E711220E92C2E7464BD3F8E2
:10358000E01041F40071C3F8E010D3F8E03003F428
:1035900000730B930B9BDFE73F4BD3F8E01041F434
:1035A0008071C3F8E010D3F8E03003F480730A931D
:1035B0000A9BD1E7384BD3F8E01041F08001C3F803
:1035C000E010D3F8E03003F080030993099BC3E7D0
:1035D000314BD3F8E01041F04001C3F8E010D3F8CC
:1035E000E03003F040030893089BB5E72A4BD3F87B
:1035F000E01041F02001C3F8E010D3F8E03003F010
:1036000020030793079BA7E7234BD3F8E01041F073
:103610001001C3F8E010D3F8E03003F01003069374
:10362000069B99E71C4BD3F8E01041F00801C3F862
:10363000E010D3F8E03003F008030593059B8BE717
:10364000154BD3F8E01041F00401C3F8E010D3F8B3
:10365000E03003F004030493049B7DE70E4BD3F8A2
:10366000E01041F00201C3F8E010D3F8E03003F0BD
:1036700002030393039B6FE7074BD3F8E01041F07D
:103680000101C3F8E010D3F8E03003F00103029326
:10369000029B61E7000002580044025808B501216E
:1036A00043780069994089B205F04CF8003818BF9A
:1036B000012008BD01230A464178006903FA01F19F
:1036C00089B205F045B800BF8378022B30B50446B7
:1036D0008FB037D0032B33D0012B31D000230A9386
:1036E000E378012B2AD0022B28D000230B93002350
:1036F00020460C9302F076FE0546204602F07AFE44
:1037000023780990082B13D8DFE803F01F324558BF
:103710006B7E91A40500594BD3F8E02042F48072EF
:10372000C3F8E020D3F8E03003F480730893089BDB
:1037300009A9284604F0FEFD0FB030BD0B93D6E773
:103740000A93CDE711230A93CAE74C4B09A92846EF
:10375000D3F8E02042F00102C3F8E020D3F8E030D3
:1037600003F001030093009B04F0E4FD0FB030BDB3
:10377000424B09A92846D3F8E02042F00202C3F8E0
:10378000E020D3F8E03003F002030193019B04F042
:10379000D1FD0FB030BD394B09A92846D3F8E02040
:1037A00042F00402C3F8E020D3F8E03003F0040351
:1037B0000293029B04F0BEFD0FB030BD2F4B09A950
:1037C0002846D3F8E02042F00802C3F8E020D3F8FE
:1037D000E03003F008030393039B04F0ABFD0FB04C
:1037E00030BD264B09A92846D3F8E02042F010024C
:1037F000C3F8E020D3F8E03003F010030493049BF7
:1038000004F098FD0FB030BD1C4B09A92846D3F831
:10381000E02042F02002C3F8E020D3F8E03003F0CB
:1038200020030593059B04F085FD0FB030BD134BBD
:1038300009A92846D3F8E02042F04002C3F8E0206E
:10384000D3F8E03003F040030693069B04F072FDCA
:103850000FB030BD094B09A92846D3F8E02042F04B
:103860008002C3F8E020D3F8E03003F08003079330
:10387000079B04F05FFD0FB030BD00BF004402584D
:1038800038B5054602F0AEFD0446284602F0B2FD0A
:1038900001462046BDE8384004F054BF70B50646E6
:1038A0000D4602F09FFD0446304602F0A3FD2A1E9D
:1038B0000146204618BF0122BDE8704004F048BF11
:1038C0000023122270B586B0CDE902230493036869
:1038D000032B01D804230593061D841D304602F0F6
:1038E00081FD0546304602F085FD034601A92846C4
:1038F000019304F01FFD204602F074FD03462046AC
:103900001C4602F077FD01A903462046019304F00E
:1039100011FD06B070BD00BF634A0368934210B545
:103920008CB028D0614A934258D0614A934200F04B
:103930009480604A934201D00CB010BD5E4C5F4849
:10394000D4F8E03043F00203C4F8E030D4F8E030BB
:1039500003F002030A930A9BFFF7B2FFD4F8F43096
:1039600043F08003C4F8F430D4F8F43003F080035B
:103970000B930B9BE0E7504C5148D4F8E03043F0F8
:103980000203C4F8E030D4F8E03003F002030193FE
:10399000019BFFF795FFD4F8E83000221F2043F485
:1039A00000131146C4F8E830D4F8E83003F40013EB
:1039B0000293029BD4F8D83043F00103C4F8D83006
:1039C000D4F8D83003F001030393039B03F036FCD3
:1039D0001F200CB0BDE8104003F06EBC364C3948D7
:1039E000D4F8E03043F08003C4F8E030D4F8E0309D
:1039F00003F080030493049BD4F8E03043F0020307
:103A0000C4F8E030D4F8E03003F002030593059BDE
:103A1000FFF756FFD4F8E8300022212043F480035A
:103A20001146C4F8E830D4F8E83003F48003069374
:103A3000069BD4F8D83043F00103C4F8D830D4F84A
:103A4000D83003F001030793079B03F0F7FB212015
:103A50000CB0BDE8104003F02FBC1B48FFF730FF4F
:103A6000154B00224820D3F8E840114644F40004E6
:103A7000C3F8E840D3F8E84004F400040894089C34
:103A8000D3F8D84044F00104C3F8D840D3F8D83074
:103A900003F001030993099B03F0D0FB48200CB00D
:103AA000BDE8104003F008BC00540040005800403E
:103AB000005C0040001C005800440258C838012433
:103AC0004036012418370124F03701242DE9F04352
:103AD0001A4B87B000254FF010099E46EC46184B54
:103AE000FF22E04667461A700EF118060EF1300408
:103AF000CDE90055CDE90255ADF80090BCE80F00C6
:103B0000CDE90455AEE80F009CE803000095ADF840
:103B100000908EE80300B8E80F000FC69CE8030091
:103B20000095ADF8009086E803000FCF0FC49CE825
:103B3000030084E8030007B0BDE8F083040000241C
:103B40003C36012410B5EFF3108472B6084B1A7896
:103B5000120602D504B962B610BD1B78D8220548FA
:103B60005BB202FB0300143004F092F8F2E700BFEE
:103B70003C36012440360124014805F081BC00BFD9
:103B8000CC360124014805F07BBC00BFA4370124DA
:103B9000014805F075BC00BF7C3801242DE9F043D5
:103BA0000F68D8243F4D85B007FB04F4032F05EBC5
:103BB0000403036040DCCB680E46012B3CD84DD09B
:103BC0004FF0D808B646DFF8FC9008FB0758BEE86F
:103BD0000F00C446ACE80F00DEF800300DF1100E07
:103BE000CCF80030D8F808C099E80F000EE90F00B3
:103BF0000EEB8703BCF1010F53F8103CC8F88C3072
:103C000031D0BCF1020F42D0BCF1000F35D0317C75
:103C10008C34D823002201202C4403FB0753490095
:103C2000C3E92602C3F894102046C3E92822C3E959
:103C30002A2205F017FA18B1012005B0BDE8F0837B
:103C40000146204605F028FC0028F5D10146204613
:103C500005F04CFC003818BF0120EEE70B7C103B50
:103C6000672BADD9E8E702F0F3F80F4B98420CBF91
:103C70000E4B0F4BC8F89030C9E702F0E9F80A4B39
:103C800098420CBF0B4B0C4BC8F89030BFE702F0CA
:103C9000DFF8054B98420CBF084B094BC8F8903031
:103CA000B5E700BF40360124000E27072D0FB030C6
:103CB0003211D0205F4390608A62E030200BA01068
:103CC0001A098010885001082DE9F041D0F80080D1
:103CD00082B00D4617461E4608F18C04204605F0BA
:103CE000D7FB2028FAD1D8F80C3073B96D002046E4
:103CF000089C33463A46A9B2009405F009FA003808
:103D000018BF012002B0BDE8F081089B3246394659
:103D1000204605F0D1FAF2E7044B10221A7483F81A
:103D2000E82083F8C02183F89822704740360124A8
:103D300030B5002395B04FF48071062204460B93F2
:103D400006921393CDE90C13CDE90E33CDE911336F
:103D500002F080F807282BD004F1100541F28832D8
:103D600006A9284606F014FB28B10123184684F85A
:103D70005C3015B030BD0222022306A92846CDE9E9
:103D8000002310220123CDE9022300224FF48003F7
:103D9000CDE9042305224FF0807306926A460F9303
:103DA00041F2883306F060FC0028DED115B030BD4A
:103DB0000323012084F85C3015B030BD0000000002
:103DC00070B50023A4B04FF080724FF480750446A4
:103DD000ADF806300D93CDE910320122CDE90E5336
:103DE000CDE91223CDE91433002943D0F02300F1AB
:103DF000100508AEADF80630C02341F288323146D6
:103E00002846089306F0C4FA28B10123184684F81E
:103E10005C3024B070BD41F288320DF106012846B5
:103E200006F020FB03460028EFD105224FF48071F5
:103E30001E93284616924FF080721B9321931F9277
:103E400002AA9FED1F7BCDE91C13CDE922338DED36
:103E5000027B9FED1D7B41F2883316A98DED047B1B
:103E60009FED1B7B8DED067B06F0FEFB0028CCD181
:103E700024B070BD00F1100508AE612341F2883214
:103E800031462846089306F083FA0028BDD141F256
:103E900088320DF10601284606F062FB0028B4D1F5
:103EA000BDF80630204623F0780343F04003ADF818
:103EB0000630FFF73DFF00289ED0A6E7AFF3008055
:103EC00000000000010000001000000001000000E0
:103ED00000000000000040002DE9F04F00234FF4E7
:103EE000807501264FF0807804462DED028BABB033
:103EF0008DF8073013932193299314950E96CDF8DE
:103F00005C80CDE91533CDE91863CDE91A33CDE9ED
:103F10002253CDE92433CDE9273306231C9301F046
:103F200099FF072808D004F1100741F288321CA934
:103F3000384606F02DFA40B10123184684F85C306B
:103F40002BB0BDEC028BBDE8F08F4FF0020A4FF0B2
:103F5000020B4FF0050941F2883308AA1CA9384624
:103F6000CDF89480CDF870909FED2D8BCDE908AB06
:103F70004FF0000A4FF4800B8DED0A8BCDE90CABAE
:103F800006F072FB0028D7D141F2883238460EA9DC
:103F900006F0FEF90028CFD1402341F288320DF11E
:103FA000070138468DF8073006F05CFA0028C3D1C7
:103FB00041F288330EA902AA3846CDF83890CDF8E0
:103FC0005C809FED197B8DED048BCDE906AB8DED0B
:103FD000027B06F049FB03460028ADD1CDF8709076
:103FE0004FF00109CDF894804FF00008219308AA02
:103FF00029931CA938462295CDE92333CDE92733EF
:1040000041F288338DED0A8BCDE90CABCDE90889FF
:1040100006F02AFB002893D0304684F85C608FE7D6
:1040200010000000010000004000000040000000FF
:104030002DE9F043624CA3B00D46046001F00AFF85
:10404000072800F0A980286823466968AA6807C382
:104050001E46AB8926F8043B3046257B677B06F07D
:1040600079F9E0B9574B012D4FF00108E061236168
:1040700014BF4FF480134FF40003C4E9058893FA8A
:10408000A3F3B3FA83F34FF48079013BC4F824908F
:10409000C4E90B003046236206F0F0F838B1012283
:1040A000134684F85C20184623B0BDE8F0836623ED
:1040B0000B90139041F2883206A90693CDE90C903B
:1040C000CDE90E00CDE91100304606F061F9002877
:1040D000E5D1992341F2883206A93046069306F0CD
:1040E00057F90028DBD105231C9019906A461493D8
:1040F0004FF08073219014A91D9341F288339FEDF6
:104100002A7BCDE91A90CDE91F008DED007B9FED54
:10411000287B30468DED027B9FED277B8DED047B68
:1041200006F0A2FA0028BAD129462046FFF748FE39
:104130000028B4D12046FFF7CFFE03460028AED1B9
:10414000002FB0D1189330460027002606AA14A9E4
:10415000CDF86890CDE91F33EB2314934FF44063FF
:104160001B934FF4005317934FF440431C93A02329
:104170001693062319934FF0805321934FF0407309
:10418000CDE906671D9306F0E7FA034600288AD0BA
:10419000434684F85C8086E701230322184684F8AE
:1041A0005C2023B0BDE8F0830000000001000000A7
:1041B00010000000010000000000000000004000AE
:1041C000A0390124005000522DE9F04F8FB0414B2F
:1041D0000024026800AF9A427C63C7E90944C7E93A
:1041E0000B4403D03C37BD46BDE8F08F3A4B40F658
:1041F00009213A48EB46D3F8D42007F11C0607F111
:10420000220A4FF0020942F480424FF00308C3F83B
:10421000D420D3F8D42002F48042BA60BA68D3F82C
:10422000E02042F04002C3F8E020D3F8E02002F0A2
:104230004002FA60FA68D3F8E02042F02002C3F8A6
:10424000E020D3F8E02002F020023A613A69D3F886
:10425000E02042F01002C3F8E020D3F8E02002F0A2
:1042600010027A617A69D3F8E02042F00202C3F8C2
:10427000E020D3F8E030F86103F002033984BB6139
:10428000174B7B60BB697B6853F8040F7B6002F0BF
:10429000A9F87B680546186802F0ACF816F8013BEF
:1042A000786207F124012846C7F830807B63C7E9AC
:1042B0000A9404F03FF85645E5D100225C201146EF
:1042C00002F0BCFF5C2002F0F7FF3C37DD46BD4644
:1042D000BDE8F08F00500052004402580A0A090954
:1042E000FC390124114B02689A4200D07047104AF1
:1042F00070B5D2F8D4300F4C23F4804304F1180683
:10430000C2F8D43054F8040F02F06CF80546206867
:1043100002F070F80146284604F04CF9B442F1D19D
:104320005C20BDE8704002F0D5BF00BF00500052D5
:1043300000440258FC390124014806F099BA00BF34
:10434000B0390124084B1A1D981D03F1080110B45F
:104350009C1C9A6603F10A02C3E91834C3E91B01E5
:104360005DF8044B5A677047A039012438B50368DB
:1043700071B9026A00F1280500F5AC74012A0CBF7E
:10438000002140218BBB1D4B5722C0F858310DE056
:10439000426A00F1C00500F5E874012A0CBF002153
:1043A0004021EBB1164B5A22C0F8D03100232046F1
:1043B000C4E901214FF480524FF48061636262616D
:1043C0004FF48042C4E903314FF48073C4E90623FB
:1043D0004FF40033236203F0E3F858B1FFBEFEE769
:1043E000084B5822C0F8D031E0E7074B5922C0F8FB
:1043F0005831DBE7C5E92044A56338BD1000024011
:104400007000024028000240580002402DE9F043AD
:10441000821D05468BB0031D05F10A010830CDE968
:10442000052305F10C02AB69CDE907010992002BC8
:104430003DD0EB69B3FA83F84FEA58180123022202
:1044400005AE0AAF4FF006090393CDE9012356F8F4
:10445000044B2B792278934216D02B68F3B1012BB1
:1044600002D1F2B10A230493204601F0C3FF0346B0
:104470002046009301F0B6FF694603F05BFFBE42A1
:10448000E5D10BB0BDE8F083697963789942E4D156
:10449000B8F1000FF3D02B68002BE0D1CDF81090CD
:1044A000E2E76378022B14BF0A230823DBE74FF00F
:1044B0000108C3E7534A0368934230B505468BB001
:1044C00055D02032934252D04F4A934204D02032EA
:1044D000934201D00BB030BD4C4C4D48D4F8E03085
:1044E00043F00103C4F8E030D4F8E03003F00103F6
:1044F0000593059BD4F8E03043F00803C4F8E0309E
:10450000D4F8E03003F008030693069BD4F8E030BB
:1045100043F04003C4F8E030D4F8E03003F0400347
:104520000793079BD4F8F03043F40003C4F8F0304D
:10453000D4F8F03003F400030893089BFFF766FFFC
:10454000D4F8D830296843F001032F4A3048C4F822
:10455000D830891AD4F8D83018BF012103F00103EC
:104560000993099B0BB0BDE83040FFF7FFBE274C15
:104570002848D4F8E03043F00103C4F8E030D4F820
:10458000E03003F001030093009BD4F8E03043F0E7
:104590001003C4F8E030D4F8E03003F010030193C6
:1045A000019BD4F8E03043F04003C4F8E030D4F885
:1045B000E03003F040030293029BD4F8F03043F460
:1045C0008003C4F8F030D4F8F03003F48003039390
:1045D000039BFFF71BFFD4F8D830296843F0010391
:1045E000084A0C48C4F8D830891AD4F8D83018BF13
:1045F000012103F001030493049B0BB0BDE830409C
:10460000FFF7B4BE04580140045C01400044025866
:10461000743C0124183A0124014803F039BB00BF5F
:10462000703B0124014803F033BB00BFE83B012489
:10463000014803F02DBB00BFCC3D0124014803F02D
:1046400027BB00BF443E01241A4A0368934210B4BA
:104650000BD02032934208D0174A934216D0203212
:10466000934213D05DF8044B7047144B0022D3F8EB
:104670005442C3F85822002CF4D0D3F84802D3E9AE
:10468000931223465DF8044B520818470B4B002247
:10469000D3F8B044C3F8B424002CE3D0D3F8AC244E
:1046A000D3F8A814D3F8A404520823465DF8044BA9
:1046B000184700BF04580140045C0140183A012427
:1046C000184A0368934210B40BD02032934208D0AA
:1046D000154A934217D02032934214D05DF8044B10
:1046E0007047124BD3E994245208C3F85822002C87
:1046F000F4D0D3E99201234601EB820100EB820062
:104700005DF8044B1847094BD3F8AC24D3F8B044F8
:104710005208C3F8B424002CE0D0D3F8A814D3F87E
:10472000A404E8E704580140045C0140183A01245D
:104730002DE9F04F0C684FF41776754F87B004FBE6
:1047400006F6012C07EB060AC0F800A000F3A080D3
:104750000D468E464FF00008D44669A3D3E90023E6
:1047600069A1D1E90001CDE9022306ABCAF8508264
:1047700003EB8403CDE9040153F810BC53F8083C63
:10478000CAE992880193BEE80F00ACE80F00BEE8CA
:104790000F00ACE80F00019B9EE80300CAF828B0A8
:1047A000CAF8C0308CE803002B69042B0CD8DFE872
:1047B00003F0737D879103004FF41773554A03FB91
:1047C00004739A64C3F8E020AA692B6A002A43D0D4
:1047D000002B4FF4177308BF022203FB047318BFAA
:1047E0000322DA6201221A63EA696B6A002A40D165
:1047F000191E4FF4177318BF012103FB0473C3E99B
:1048000031126B69022B05D8434A12F80380434AE0
:1048100052F823904FF4177306F128004246494698
:1048200003FB04740023384463646363E365C4F8E2
:10483000DC30C4F8CC30C4F8F430C4E90F33C4E938
:104840001533C4E93533C4E93B33022308F0B2F829
:10485000002849D0FFBEFEE7191E4FF4177318BF9A
:10486000012103FB0473C3E90B12EA696B6A002A96
:10487000BED0002B4FF4177308BF022203FB047352
:1048800018BF0322C3F8C4200122C3F8C820B8E728
:10489000012007B0BDE8F08F4FF417734FF4FA52C0
:1048A00003FB04739A64C3F8E0208DE74FF4177399
:1048B0004FF47A5203FB04739A64C3F8E02083E751
:1048C0004FF417734FF4FA4203FB04739A64C3F86E
:1048D000E02079E74FF417734BF6803203FB047343
:1048E0009A64C3F8E0206FE706F1C0000223424655
:1048F0004946384408F05EF80028CAD0FFBEFEE7FB
:1049000004580140045C014024580140245C0140EB
:10491000183A0124007701000451010808510108E8
:104920000068704770B5046882B015460E46C4F83A
:104930005032C4E99212069AC4F85422A269012A9C
:1049400026D0626A012A9AB211D0294604F1C00029
:10495000019208F0EBF8236A019A012B10D0294646
:1049600004F1280008F0E2F8002002B070BD04F164
:10497000C000019208F06CF9236A019A012BEED174
:10498000314604F1280008F063F9002002B070BD40
:10499000226A012A9AB211D0294604F12800019214
:1049A00008F0C4F8636A019A012B10D0294604F17B
:1049B000C00008F0BBF8002002B070BD04F1280070
:1049C000019208F045F9636A019A012BEED1314654
:1049D00004F1C00008F03CF9002002B070BD00BF37
:1049E00003681B69042B05D8044A02EB830393ED8B
:1049F000000A70479FED020A704700BF145101087A
:104A000000803B470368D3F8580270471F4BC168CA
:104A10000268F0B5D3F88C5083B00369ADB24D1B7A
:104A2000A2B1AB4212D00446866811D2F018E91A3E
:104A3000CDE9001000F0AAFF0023DDE90010D4E961
:104A40000062B047E3682561AB421BD003B0F0BD04
:104A5000F018C91ACDE9000100F098FF0023DDE944
:104A60000001D4E90072B8473046294600F08EFFB5
:104A700000233046626829462668B047E36825610E
:104A8000AB42E3D10023236103B0F0BD000002403C
:104A90002DE9F84F04460F4690461E4600F13405B6
:104AA000284608F061FC2028FAD14FF480630020EA
:104AB000C4F8D030C4F848314FF44033C4F8CC00C7
:104AC000C4F8E030C4F858314E4BC4F8DC00C4F8E8
:104AD000C03003F57A73C4F8E400C4F838314023D9
:104AE000C4F8C800C4F84031E369C4F84401C4F80C
:104AF0005401C4F85C01C4E93500C4E95300072B34
:104B00000BD8DFE803F061535A373E454C0451237C
:104B1000C4F8C4305223C4F83C3104F59C794846AB
:104B200002F03EFD08B1FFBEFEE7C4F8A890C4F84D
:104B30007051EFF3108972B6DFF8D0B094F91C30E1
:104B4000DFF8CCA08BF800300A9B2F4CCAF800305D
:104B50000B9B23600EB11846B0471FFA88F2394606
:104B6000284608F0EBF9B0BBB9F1000F00D162B6EE
:104B7000BDE8F88F3F23C4F8C4304023C4F83C316B
:104B8000CBE74123C4F8C4304223C4F83C31C4E726
:104B90004723C4F8C4304823C4F83C31BDE74F2351
:104BA000C4F8C4305023C4F83C31B6E72B23C4F812
:104BB000C4302C23C4F83C31AFE72D23C4F8C430F3
:104BC0002E23C4F83C31A8E72923C4F8C4302A2393
:104BD000C4F83C31A1E7FF238BF800300023CAF86A
:104BE000003023600A9B3BB10B98012198470120BC
:104BF000B9F1000FBCD1BAE70120B9F1000FB7D16C
:104C0000B5E700BF88000240084E0124044E01248D
:104C1000004E01242DE9F84F04460F4690461E46EB
:104C200000F13405284608F09FFB2028FAD14FF404
:104C300080630020C4F8D030C4F848314FF44033CA
:104C4000C4F8CC00C4F8E030C4F858314E4BC4F876
:104C5000DC00C4F8C03003F57A73C4F8E400C4F88B
:104C600038314023C4F8C800C4F84031E369C4F8BF
:104C70004401C4F85401C4F85C01C4E93500C4E936
:104C80005300072B0BD8DFE803F061535A373E453A
:104C90004C045123C4F8C4305223C4F83C3104F10D
:104CA000C009484602F07CFC08B1FFBEFEE7C4F82C
:104CB000AC90C4F8F850EFF3108972B6DFF8D0B0BA
:104CC00094F91C30DFF8CCA08BF800300A9B2F4CF5
:104CD000CAF800300B9B23600EB11846B0471FFA8C
:104CE00088F23946284608F07BF9B0BBB9F1000FCD
:104CF00000D162B6BDE8F88F3F23C4F8C43040232A
:104D0000C4F83C31CBE74123C4F8C4304223C4F893
:104D10003C31C4E74723C4F8C4304823C4F83C31CD
:104D2000BDE74F23C4F8C4305023C4F83C31B6E784
:104D30002B23C4F8C4302C23C4F83C31AFE72D2317
:104D4000C4F8C4302E23C4F83C31A8E72923C4F8A2
:104D5000C4302A23C4F83C31A1E7FF238BF800308C
:104D60000023CAF8003023600A9B3BB10B98012155
:104D700098470120B9F1000FBCD1BAE70120B9F181
:104D8000000FB7D1B5E700BF88000240084E0124EC
:104D9000044E0124004E01242DE9F0410D4682B05D
:104DA000EFF3108772B6002948D1FF23254A264C1D
:104DB000237013682BB1002029461060234A106825
:104DC000984723781B0625D5DFF888800025204EDC
:104DD000444605E001351C3406F5D876092D19D076
:104DE000A369012B1BD0002BF4D121683046002988
:104DF000F0D06369019323690093E3682289FFF788
:104E000009FF0028E6D1C5EBC50508EB850348F886
:104E10002500586007B962B602B0BDE8F08161684C
:104E20000029D7D063693046019323690093E36872
:104E30002289FFF72DFE0028CCD1E4E709F090FD90
:104E4000B3E700BF004E0124044E0124084E0124A4
:104E5000D03E01244C000024F0B5002387B002228C
:104E600004460493CDE90223027EC3690B2A4FEA6C
:104E7000430523D1A27E0B2A02D1002007B0F0BD4A
:104E800048496B1C484851F8233045780178187818
:104E9000E67E884269D0824277D0D87803F1030C4D
:104EA00081426ED0824278D0987903F1060C884214
:104EB0006FD0824233D0012007B0F0BD394B3A4861
:104EC00053F8253001784678187894F819C0814253
:104ED0003DD0824241D0D87803F1030E814240D0C8
:104EE00082424AD0987903F1060E884241D082422C
:104EF000E1D1DB796345DED1734604F118069B7876
:104F00003046059301F06EFA034630461E4601F026
:104F100071FA01A90190304603F00CFAAAE7DB7997
:104F2000B342C8D163461A349B782046059301F0FA
:104F300059FA034620461C4601F05CFA034601A9D3
:104F40002046019303F0F6F9002007B0F0BD93F876
:104F500001E0B645BFD08242BDD158786045BAD194
:104F6000CBE71F79B742BBD1BCE75F78AF4292D1A4
:104F700093E7D979B142BAD19DE718796045B1D1AB
:104F8000BAE71F79AF428DD18EE75878B04284D10D
:104F9000C9E7D979A9428CD18DE71879B04283D17C
:104FA000C0E700BF64010024600100247E4A03685A
:104FB0009342F0B58FB000F0E380A2F54C429342EB
:104FC00000F0E08002F58062934200F0DD8002F59F
:104FD0008062934200F0DA8002F58062934200F032
:104FE000D98002F54442934200F0D280A2F51C42DF
:104FF000934200F0D18002F58062934200F0CE80AF
:105000006A4A934240F0CC800826694D4FF4D87428
:1050100004FB0654A07E01F0F5F9207E01F0F2F9C0
:10502000E369082B13D8DFE803F03B495765738128
:105030008F9D05005F4BD3F8F42042F00802C3F8BF
:10504000F420D3F8F43003F008030893089B2046BB
:10505000FFF702FF012801D1FFBEFEE74FF4D8742D
:105060000EAA554F0DF1240C04FB0654E36902EB24
:1050700043050FCFACE80F003B680022ACF80030CE
:10508000114635F9140C02F0D9F8E3690EAA02EBC7
:10509000430333F9140C0FB0BDE8F04002F00CB933
:1050A000444BD3F8F02042F01002C3F8F020D3F8BC
:1050B000F03003F010030093009BC8E73D4BD3F89A
:1050C000E82042F40032C3F8E820D3F8E83003F4D3
:1050D00000330193019BBAE7364BD3F8E82042F442
:1050E0008022C3F8E820D3F8E83003F48023029349
:1050F000029BACE72F4BD3F8E82042F40022C3F820
:10510000E820D3F8E83003F400230393039B9EE7E1
:10511000284BD3F8E82042F48012C3F8E820D3F8F3
:10512000E83003F480130493049B90E7214BD3F8F9
:10513000F02042F02002C3F8F020D3F8F03003F062
:1051400020030593059B82E71A4BD3F8E82042F031
:105150008042C3F8E820D3F8E83003F08043069398
:10516000069B74E7134BD3F8E82042F00042C3F8E3
:10517000E820D3F8E83003F000430793079B66E785
:10518000002642E7012640E702263EE703263CE7E9
:1051900005263AE7042638E7062636E7072634E7E9
:1051A00000239B7EFFDE00BF00100140000C005872
:1051B000D03E012400440258985001082DE9F04FD8
:1051C00091B0002301223A490DF1240A09938B463C
:1051D00001F11C09CAF814305446CDF800A001F1C1
:1051E0003808CDF804A001F15407CDF808A001F16A
:1051F0007006CDF80CA001F18C05CDF814A001F1DA
:10520000C40E01F1E00CCAE90133CAE903330F927D
:10521000FF22284B1A7001F1A803CDE906AA0493D6
:10522000BAE80F00ABE80F009AE807008BE8070028
:105230000FCC009CA9E80F009AE8070089E8070056
:105240000FCC019CA8E80F009AE8070088E8070047
:105250000FCC029C0FC79AE8070087E807000FCC25
:10526000039C0FC69AE8070086E807000FCC0FC51D
:105270009AE80700059C85E807000FCC049C0FC442
:105280009AE8070084E80700069C0FCCAEE80F0000
:105290009AE80700079C8EE807000FCCACE80F00E7
:1052A0009AE807008CE8070011B0BDE8F08F00BF56
:1052B0004C000024044E012410B5094C04F13400C4
:1052C00007F060FF237D1BB1636BDB69DB0600D455
:1052D00010BD2046FFF79AFB636B10221A6210BDC7
:1052E000D03E012410B50B4C04F5F27007F04AFFD4
:1052F00094F8C43123B1D4F8E431DB69DB0600D47F
:1053000010BD04F5D870FFF781FBD4F8E43110220A
:105310001A6210BDD03E012410B50B4C04F5657027
:1053200007F030FF94F8743323B1D4F89433DB6979
:10533000DB0600D410BD04F55870FFF767FBD4F806
:10534000943310221A6210BDD03E012410B50B4CCC
:1053500004F2445007F016FF94F8243523B1D4F832
:105360004435DB69DB0600D410BD04F5A260FFF70D
:105370004DFBD4F8443510221A6210BDD03E0124F2
:1053800010B50B4C04F2F46007F0FCFE94F8D43630
:1053900023B1D4F8F436DB69DB0600D410BD04F584
:1053A000D860FFF733FBD4F8F43610221A6210BD30
:1053B000D03E012410B50B4C04F6A40007F0E2FE29
:1053C00094F8843823B1D4F8A438DB69DB0600D420
:1053D00010BD04F50760FFF719FBD4F8A4381022BC
:1053E0001A6210BDD03E012410B50B4C04F65420B7
:1053F00007F0C8FE94F8343A23B1D4F8543ADB6984
:10540000DB0600D410BD04F52260FFF7FFFAD4F8E4
:10541000543A10221A6210BDD03E012410B50B4C34
:1054200004F6044007F0AEFE94F8E43B23B1D4F850
:10543000043CDB69DB0600D410BD04F53D60FFF7DA
:10544000E5FAD4F8043C10221A6210BDD03E0124C3
:1054500010B50B4C04F6B45007F094FE94F8943D4C
:1054600023B1D4F8B43DDB69DB0600D410BD04F5EC
:105470005860FFF7CBFAD4F8B43D10221A6210BD81
:10548000D03E012410B5EFF3108472B6084B1A78A1
:10549000120602D504B962B610BD1B784FF4D8725B
:1054A00004485BB202FB0300C03002F0F1FBF1E7FD
:1054B000044E0124D03E012410B5EFF3108472B6DF
:1054C000094B1A78120602D504B962B610BD1B78D2
:1054D0004FF4D87205485BB202FB030000F59C70E4
:1054E00002F0D6FBF0E700BF044E0124D03E0124B9
:1054F0000021FFF751BC00BF214A036893422BD023
:10550000A2F54C42934229D002F58062934227D003
:1055100002F58062934225D002F58062934223D047
:1055200002F54442934221D0A2F51C4293421FD07F
:1055300002F5806293421DD0124A93421CD1082288
:105540004FF4D871104B01FB0233197D11B118468D
:10555000FFF75CBAFFF720BC0022F1E70122EFE77A
:105560000222EDE70322EBE70422E9E70522E7E761
:105570000622E5E70722E3E700231B7DFFDE00BFED
:1055800000100140000C0058D03E0124204A03685E
:10559000934229D0A2F54C42934227D002F5806273
:1055A000934225D002F58062934223D002F58062B7
:1055B000934221D002F5444293421FD0A2F51C42EF
:1055C00093421DD002F5806293421BD0114A934250
:1055D0001AD1082310484FF4D87202FB0300037D50
:1055E00003B97047FFF712BA0023F3E70123F1E78D
:1055F0000223EFE70323EDE70423EBE70523E9E7C5
:105600000623E7E70723E5E700231B7DFFDE00BF56
:1056100000100140000C0058D03E01240121FFF78A
:10562000BBBB00BF2DE9F0414F684FF4D876DFF8DF
:10563000C0808E4607FB06F60C46082F08EB0605D1
:10564000056005F1180CBEE80F00ACE80F009EE8FD
:1056500007008CE8070002D86B6A022B02D90120F0
:10566000BDE8F0812A6A032AF9D8A96A0229F6D886
:10567000E86A0228F3D80131DFF878C034368900AF
:105680005CF8277046446F63A469A9641549AC634C
:1056900051F823306B64144B53F82230134A2B64B7
:1056A000002352F8201001223046EB65E963C5E97A
:1056B0001333C5E9153209F053F90028CFD101465B
:1056C000304609F0A5F90028C9D10146304609F055
:1056D000F1F90028C3D1304609F07CF90028BED189
:1056E0002875BDE74C51010858510108685101085F
:1056F000D03E012428510108534B0122002047F6D7
:10570000122130B4C3E97420C3E97721C3E9E02052
:10571000C3E9E3211A62DA6258621963C3F83025DB
:10572000C3F83405C3F83C25C3F84015C3F8E02698
:10573000C3F8E406C3F8EC26C3F8F016C3F89028C3
:10574000C3F89408C3F89C28C3F8A018C3F8402AEB
:10575000C3F8440AC3F84C2AC3F8501AC3F8F02B14
:10576000C3F8F40BC3F8FC2BC3F8001CC3F8A40D5A
:105770003648C3F8A02DC3F8AC2DC3F8B01D02887D
:10578000837833490068334CCA804FEA104C0B725F
:105790003149E2802372A1F80320A4F80320637149
:1057A0004B712E4CCA800B722D492E4DE280237214
:1057B000A1F80320A4F8032063714B712A4CCA801E
:1057C0000B722A49EA8008802B7281F802C0E280BD
:1057D0002372A1F803204B71CA800B722449A1F8EF
:1057E00003204B71CA800B722249A1F803204B7130
:1057F000CA800B722049088081F802C0A1F80320FA
:105800004B71CA800B721D49088081F802C0A1F853
:1058100003204B71CA800B721949088081F802C0BD
:105820001848A1F803204B71CA800B721649A0F8E2
:1058300003204371C2800372A1F803204B71CA8018
:105840000B7230BC704700BFD03E012460010024C1
:10585000E80100240C020024000200242402002499
:1058600018020024F4010024D0010024304E012449
:1058700030020024DC0100240C4E0124244E0124BB
:10588000184E012454010024480100243E4B0022FC
:105890000B20114610B5D3F8D84082B044F0010473
:1058A000C3F8D840D3F8D84004F001040094009C19
:1058B000D3F8D84044F00204C3F8D840D3F8D83025
:1058C00003F002030193019B01F0B8FC0B2001F0EF
:1058D000F3FC00220C20114601F0B0FC0C2001F07A
:1058E000EBFC00220D20114601F0A8FC0D2001F078
:1058F000E3FC00220E20114601F0A0FC0E2001F076
:10590000DBFC00220F20114601F098FC0F2001F073
:10591000D3FC00221020114601F090FC102001F071
:10592000CBFC00223C20114601F088FC3C2001F019
:10593000C3FC00221120114601F080FC112001F06F
:10594000BBFC00223820114601F078FC382001F021
:10595000B3FC00223920114601F070FC392001F01F
:10596000ABFC00223A20114601F068FC3A2001F01D
:10597000A3FC00223B20114601F060FC3B2002B05A
:10598000BDE8104001F098BC0044025820F01F0010
:105990002031BFF34F8F002907DD064A0144C2F8CA
:1059A0005C0220300B1A002BF9DCBFF34F8FBFF3E2
:1059B0006F8F704700ED00E0704700BF08B500F042
:1059C00021FEBDE8084001F001BD00BF064808B552
:1059D00003680BB102F0C0FE044803681BB1BDE8C8
:1059E000084003F067BE08BD505601244852012408
:1059F000064808B503680BB102F0AEFE0448036820
:105A00001BB1BDE8084003F055BE08BD5056012447
:105A100048520124064808B503680BB102F09CFE09
:105A2000044803681BB1BDE8084003F043BE08BD4D
:105A30005056012448520124364BDA6A520062D58E
:105A40009A6A9A6A9A6A9B6A180600D500BE314B18
:105A50009B6A990600D500BE2E4B9B6ADA0600D5DC
:105A600000BE2C4B9B6A1B0700D500BE294B9B6ACE
:105A7000980700D500BE274B9B6AD90700D500BE0A
:105A8000244B9B6A1A0400D500BE224B9B6A9B04E0
:105A900000D500BE1F4B9B6AD80400D500BE1D4B2D
:105AA0009B6A190500D500BE1A4B9B6A5A0500D5A2
:105AB00000BE184B9B6A9B0500D500BE154B9B6A28
:105AC000D80500D500BE134B9B6A990100D500BED6
:105AD000104B9B6ADA0100D500BE0E4B9B6A1B037C
