:020000040800F2
:1000000000000220110A00080D0A00089983000868
:100010000D0A00080D0A00080D0A00080000000083
:100020000000000000000000000000000D0A0008B1
:100030000D0A0008000000000D0A00081D830008DA
:100040000D0A00080D0A00080D0A00080D0A000834
:100050000D0A00080D0A00080D0A00080D0A000824
:100060000D0A00080D0A00080D0A0008796F000843
:10007000856F0008DD5C0008916F00089D6F000827
:10008000E57D0008A96400080D0A00080D0A0008B3
:100090000D0A00080D0A00080D0A00080D0A0008E4
:1000A0000D0A00080D0A00080D0A00080D0A0008D4
:1000B0005D4801086948010875480108DD640008C9
:1000C0000D0A0008E96400080D0A0008CD40010887
:1000D000D9400108197C0008457C0008797C00089B
:1000E0000D0A00080D0A0008000000000D0A0008B3
:1000F0000D0A00080D0A00080D0A00080D0A000884
:100100000D0A00080D0A000881480108E5400108B1
:10011000AD7C0008E17C00080D0A00080D0A00080B
:100120000D0A00080D0A0008094101083D410108B7
:10013000197E00080D0A00080D0A00080D0A0008C3
:1001400000000000000000000000000000000000AF
:100150000D0A00080D0A00080D0A0008157D0008A8
:10016000F56400080D0A00082D830008518300087B
:100170000D0A0008758300080D0A00080D0A000822
:100180000D0A00080D0A0008497D00087D7D000861
:10019000F1400108FD4001080D0A00080D0A0008A1
:1001A0000D0A00080D0A00080D0A00080D0A0008D3
:1001B000996C00080D0A00080D0A00080D0A0008D5
:1001C0000D0A00080D0A0008B9550008C5550008B9
:1001D0000D0A0008D15500080D0A00080D0A000894
:1001E0000D0A00080D0A00080D0A00080D0A000893
:1001F0000D0A00080D0A00080D0A00080D0A000883
:100200000D0A00080D0A00080D0A00080D0A000872
:100210000D0A00080D0A00080D0A00080D0A000862
:100220000D0A00080D0A00080D0A00080000000071
:100230000D0A00080D0A0008000000000D0A000861
:100240000D0A00080D0A00080D0A00080D0A000832
:100250000D0A00080D0A00080D0A00080D0A000822
:100260000D0A00080D0A00080D0A00080D0A000812
:100270000D0A00080D0A0008B17D0008000000000A
:100280000D0A00080D0A00080D0A00080000000011
:08029000000000000D0A000847
:1002A00010B5054C237833B9044B13B10448AFF3B0
:1002B00000800123237010BD880700240000000087
:1002C0006CCB010808B5034B1BB103490348AFF3DE
:1002D000008008BD000000008C0700246CCB0108E2
:1002E000034613F8012B002AFBD1181A0138704776
:1002F00001F0FF01102A2BDB10F0070F08D010F8D7
:10030000013B013A8B422DD010F0070F42B3F6D1DA
:10031000F0B441EA012141EA014122F007047FF0F3
:1003200000070023F0E80256083C85EA010586EA4A
:10033000010685FA47F5A3FA87F586FA47F6A5FA86
:1003400087F68EB9EED1F0BC01F0FF0102F0070292
:1003500032B110F8013B013A83EA010313B1F8D13D
:100360000020704701387047002D06BF354603381E
:10037000073815F0010F07D1013015F4807F02BF57
:10038000013015F4C03F0130F0BC0138704700BFA8
:1003900081F0004102E000BF83F0004330B54FEA36
:1003A00041044FEA430594EA050F08BF90EA020FA3
:1003B0001FBF54EA000C55EA020C7FEA645C7FEA36
:1003C000655C00F0E2804FEA5454D4EB5555B8BF59
:1003D0006D420CDD2C4480EA020281EA030382EACA
:1003E000000083EA010180EA020281EA0303362D5C
:1003F00088BF30BD11F0004F4FEA01314FF4801C2F
:100400004CEA113102D0404261EB410113F0004F40
:100410004FEA03334CEA133302D0524263EB4303F7
:1004200094EA050F00F0A780A4F10104D5F1200E95
:100430000DDB02FA0EFC22FA05F2801841F10001F0
:1004400003FA0EF2801843FA05F359410EE0A5F1C4
:1004500020050EF1200E012A03FA0EFC28BF4CF0F5
:10046000020C43FA05F3C01851EBE37101F00045AB
:1004700007D54FF0000EDCF1000C7EEB00006EEBB8
:100480000101B1F5801F1BD3B1F5001F0CD3490842
:100490005FEA30004FEA3C0C04F101044FEA445299
:1004A00012F5800F80F09A80BCF1004F08BF5FEA20
:1004B000500C50F1000041EB045141EA050130BD00
:1004C0005FEA4C0C404141EB0101013C28BFB1F512
:1004D000801FE9D291F0000F04BF01460020B1FA5D
:1004E00081F308BF2033A3F10B03B3F120020CDA30
:1004F0000C3208DD02F1140CC2F10C0201FA0CF00E
:1005000021FA02F10CE002F11402D8BFC2F1200C72
:1005100001FA02F120FA0CFCDCBF41EA0C01904028
:10052000E41AA2BF01EB0451294330BD6FEA040471
:100530001F3C1CDA0C340EDC04F11404C4F120025C
:1005400020FA04F001FA02F340EA030021FA04F36E
:1005500045EA030130BDC4F10C04C4F1200220FAC5
:1005600002F001FA04F340EA0300294630BD21FA03
:1005700004F0294630BD94F0000F83F4801306BFC9
:1005800081F480110134013D4EE77FEA645C18BFBD
:100590007FEA655C29D094EA050F08BF90EA020F54
:1005A00005D054EA000C04BF1946104630BD91EA4C
:1005B000030F1EBF0021002030BD5FEA545C05D14F
:1005C0004000494128BF41F0004130BD14F580048E
:1005D0003CBF01F5801130BD01F0004545F0FE4102
:1005E00041F470014FF0000030BD7FEA645C1ABF37
:1005F000194610467FEA655C1CBF0B46024650EA6E
:10060000013406BF52EA033591EA030F41F4002199
:1006100030BD00BF90F0000F04BF0021704730B51F
:100620004FF4806404F132044FF000054FF00001F4
:1006300050E700BF90F0000F04BF0021704730B5B5
:100640004FF4806404F1320410F0004548BF40428A
:100650004FF000013EE700BF42004FEAE2014FEADF
:1006600031014FEA02701FBF12F07F4393F07F4FBA
:1006700081F06051704732F07F4208BF704793F0BD
:100680007F4F04BF41F40021704730B54FF46074D0
:1006900001F0004521F000411CE700BF50EA0102D3
:1006A00008BF704730B54FF000050AE050EA01027C
:1006B00008BF704730B511F0004502D5404261EBEC
:1006C00041014FF4806404F132045FEA915C3FF42D
:1006D000D8AE4FF003025FEADC0C18BF03325FEACA
:1006E000DC0C18BF033202EBDC02C2F1200300FA7B
:1006F00003FC20FA02F001FA03FE40EA0E0021FAA0
:1007000002F11444BDE600BF53B94AB9002908BF3D
:1007100000281CBF4FF0FF314FF0FF3000F074B9DC
:10072000ADF1080C6DE904CE00F006F8DDF804E048
:10073000DDE9022304B070472DE9F047089D044627
:100740008E46002B4DD18A42944669D9B2FA82F284
:1007500052B101FA02F3C2F1200120FA01F10CFAC0
:1007600002FC41EA030E94404FEA1C48210CBEFBF8
:10077000F8F61FFA8CF708FB16E341EA034306FB81
:1007800007F199420AD91CEB030306F1FF3080F010
:100790001F81994240F21C81023E63445B1AA4B25D
:1007A000B3FBF8F008FB103344EA034400FB07F7FF
:1007B000A7420AD91CEB040400F1FF3380F00A8140
:1007C000A74240F207816444023840EA0640E41B35
:1007D00000261DB1D4400023C5E900433146BDE8E1
:1007E000F0878B4209D9002D00F0EF800026C5E983
:1007F000000130463146BDE8F087B3FA83F6002E9B
:100800004AD18B4202D3824200F2F980841A61EB12
:10081000030301209E46002DE0D0C5E9004EDDE730
:1008200002B9FFDEB2FA82F2002A40F09280A1EB18
:100830000C014FEA1C471FFA8CFE0126200CB1FB6D
:10084000F7F307FB131140EA01410EFB03F0884266
:1008500008D91CEB010103F1FF3802D2884200F2F3
:10086000CB804346091AA4B2B1FBF7F007FB101185
:1008700044EA01440EFB00FEA64508D91CEB040423
:1008800000F1FF3102D2A64500F2BB800846A4EB7E
:100890000E0440EA03409CE7C6F12007B34022FA69
:1008A00007FC4CEA030C20FA07F401FA06F31C4398
:1008B000F9404FEA1C4900FA06F3B1FBF9F8200CA5
:1008C0001FFA8CFE09FB181140EA014108FB0EF0EB
:1008D000884202FA06F20BD91CEB010108F1FF3A3B
:1008E00080F08880884240F28580A8F10208614447
:1008F000091AA4B2B1FBF9F009FB101144EA014155
:1009000000FB0EFE8E4508D91CEB010100F1FF34FF
:100910006CD28E456AD90238614440EA0840A0FB97
:100920000294A1EB0E01A142C846A64656D353D06D
:100930005DB1B3EB080261EB0E0101FA07F722FA91
:1009400006F3F1401F43C5E9007100263146BDE8BA
:10095000F087C2F12003D8400CFA02FC21FA03F31D
:10096000914001434FEA1C471FFA8CFEB3FBF7F09E
:1009700007FB10360B0C43EA064300FB0EF69E42C3
:1009800004FA02F408D91CEB030300F1FF382FD25C
:100990009E422DD9023863449B1B89B2B3FBF7F604
:1009A00007FB163341EA034106FB0EF38B4208D9DD
:1009B0001CEB010106F1FF3816D28B4214D9023E1E
:1009C0006144C91A46EA004638E72E46284605E73C
:1009D0000646E3E61846F8E64B45A9D2B9EB02080D
:1009E00064EB0C0E0138A3E74646EAE7204694E79D
:1009F0004046D1E7D0467BE7023B614432E73046D0
:100A000009E76444023842E7704700BFFEE700BFD1
:100A10000B480C4A904203D0121A0B4916F0B4FF4F
:100A20000A480B4A904203D0121A002116F0BAFF6E
:100A300007F016FF16F074FF02F0F4FAFEE700BFAD
:100A40000000002488070024A4CB010888070024A4
:100A50005C9F0724704700BF704700BF704700BF0E
:100A6000704700BF704700BF704700BF49424FF456
:100A700080621030C9B216F095BF00BF704700BF4A
:100A80004020704780207047704700BF10B5044673
:100A90004FF4826116F059F8204610BDB9B30144F5
:100AA000F0B51546A5B002F10807441E4E1E01E040
:100AB000A6422AD014F8011F6A46384604F0DCFA30
:100AC0000028F5D0D5F8A8C090226946D5E92B03B7
:100AD000C31A00F1010E00EBC00048BF63440CF1E3
:100AE000FF3C9C45E4D0D5F8A430C5F8ACE003EB5E
:100AF000001016F049FFD5E92A239342A3EB020325
:100B000028BFC5F8AC30A642D4D125B0F0BD70479F
:100B10002DE9F04F4FF0B00885B0054600F1080709
:100B200000F18F0600F28F494FF47A7B4FF0000AF4
:100B3000297B022303AA3846CDF800B0A6F1800431
:100B40008DF80CA08DF80D8005F070FD297B022337
:100B500003AA3846CDF800B08DF80CA08DF80DA092
:100B600005F064FD4FF0100C297B022303AA3846E0
:100B7000CDF800B08DF80CA08DF80DC005F056FD35
:100B80004FF47A7014F801CF4FF0400E297B022306
:100B9000009003AA38468DF80CE08DF80DC005F0E2
:100BA00045FDB442ECD104F1800608F101084E4540
:100BB0005FFA88F8B8D105B0BDE8F08F7F291ED85C
:100BC0003F2A1CD86BB1D3084FF0010C02F007028A
:100BD00001EBC3130CFA02F2C1180B7C1A430A741E
:100BE0007047D3084FF0010C02F0070201EBC3136A
:100BF0000CFA02FCC1180A7C22EA0C020A74704743
:100C00002DE9F04F83B05C1A0C9E002C9DF83490B7
:100C1000A6EB0208B8BF6442B8F1000FB8BFC8F134
:100C200000088B428CBF4FF0010A4FF0FF3A96420A
:100C3000A4EB080C51D84FF0FF357F2B019512D84B
:100C40003F2E10D8F50806F0070E012703EBC51557
:100C50000544B9F1000F47D007FA0EF795F810E0F8
:100C600047EA0E072F74964201D18B4229D0C8F172
:100C700000077F2914D83F2A12D8D50802F0070BA5
:100C80004FF0010E01EBC5150544B9F1000F1BD063
:100C90000EFA0BFE95F810B04EEA0B0E85F810E038
:100CA000B7EB4C0F4FEA4C0502DAACEB080C5144A1
:100CB000AC4202DD019DA4442A449942D9D1964216
:100CC000D7D103B0BDE8F08F0EFA0BFB95F810E01A
:100CD0002EEA0B0E85F810E0E2E701257F2B019547
:100CE000C5D83F2EAED9C2E707FA0EFE2F7C96423A
:100CF00027EA0E072F74B8D0B9E700BF0000000044
:100D00002DE9F04F2DED068B83B01F4680460D4632
:100D10009DF8503016460193139B002BC0F22182A0
:100D2000129A134406EE103ADDED127AB8EEC66B55
:100D30009FEDCD4BB8EEE77B9FEDCD5B27EE047BBF
:100D400026EE046B87EE050B86EE05ABF7EEC08B47
:100D5000B0EE680A15F000FF07EE907AB7EECAAB66
:100D6000F8EE679AB0EE408AB0EE680A16F0ECFA38
:100D700060EE698AB0EE4A0A15F0EEFEB0EE409AD7
:100D8000B0EE4A0A16F0E0FA20EE690A29EE888AE7
:100D900029EE899A70EE687AF0EE006A39EE487AA8
:100DA00067EEA77AE7EE077AF4EEE67AF1EE10FA4C
:100DB00006D5139BB42B40F396804FF0010901E058
:100DC0004FF00009012478424FF0000C0095E31B1E
:100DD000214627462246A340B9F1000F6AD142427C
:100DE00006EE90CACCF1000107EE102AB8EEE66AD2
:100DF00007EE901A06EE900AB8EEC77A139A66EEDE
:100E0000084AF8EEE77AB42A27EE284AF8EEE66AAE
:100E100067EE885A74EEC43A26EEA85A26EE096A9E
:100E200066EE806A67EE897A27EE007AF5EEC03AC0
:100E300040F3F280F1EE10FA00F17F8176EE473A4E
:100E400074EEC54AF5EEC03AF1EE10FAF5EEC04A7E
:100E5000CCBF01220022F1EE10FA00F1778136EECC
:100E6000666A35EEC55AB5EEC06AF1EE10FAB5EE17
:100E7000C05ACCBF01210021F1EE10FA00F16F81C0
:100E800077EEE66AF5EEC06AF1EE10FACCBF012704
:100E9000002775EEC45AF5EEC05AF1EE10FA00F1D3
:100EA000478177EEC77AF5EEC07AF1EE10FACCBF43
:100EB00001240024002A40F08A80002964D1BFB9AF
:100EC000C4BB9C4558DB0CF1010C03EB4C0E1CEB36
:100ED000000F0EF1010E00F0C08098424FDB734608
:100EE00000287FF779AF03B0BDEC068BBDE8F08F2B
:100EF000009DA6EB0C0E00EB050ABAF17F0FDFD8C0
:100F0000BEF13F0FDCD84FEADE0B019D0AEBCB1A96
:100F1000002D00F0B1800EF0070BC2444FF0010E1F
:100F20000EFA0BFE9AF810B04EEA0B0E8AF810E09B
:100F3000002CC6D0009DA6EB0C0EA5EB000ABAF162
:100F40007F0FBED8BEF13F0FBBD84FEADE0B019D2D
:100F50000AEBCB1A002D00F0AE800EF0070BC24456
:100F60004FF0010E9C450EFA0BFE9AF810B04EEAB7
:100F70000B0E8AF810E0A6DA98429E46AFDA0130EE
:100F80000EEB40030133ABE7009D0CEB060E00EBCC
:100F9000050ABAF17F0F92D8BEF13F0F8FD84FEA02
:100FA000DE0B019D0AEBCB1A002D73D00EF0070B60
:100FB000C2444FF0010E0EFA0BFE9AF810B04EEA42
:100FC0000B0E8AF810E0002F3FF47AAF90E7009DF7
:100FD0000CEB060EA5EB000ABAF17F0F3FF66DAFE2
:100FE000BEF13F0F3FF669AF4FEADE0B019D0AEB02
:100FF000CB1A002D6DD00EF0070BC2444FF0010E3E
:101000000EFA0BFE9AF810B04EEA0B0E8AF810E0BA
:1010100000293FF454AFB7E7F1EE10FA7ED44A4608
:1010200074EEC54AF5EEC04AF1EE10FA6CD4002118
:1010300035EEC55AB5EEC05AF1EE10FA5AD4002773
:1010400075EEC45AF5EEC05AF1EE10FA3FF529AF2D
:101050000024002A3FF431AFB9E798428FDB002328
:101060003BE700BFAFF300807A008BFCFA21094018
:101070000000000000806640C2444FF0010B0EF0FB
:10108000070E0BFA0EFE9AF810B02BEA0E0E8AF835
:1010900010E015E7C2444FF0010B0EF0070E0BFAFB
:1010A0000EFE9AF810B02BEA0E0E8AF810E0002F10
:1010B0003FF406AF1CE7C2444FF0010B0EF0070EE1
:1010C0000BFA0EFE9AF810B02BEA0E0E8AF810E01A
:1010D000F7E6C2444FF0010B0EF0070E0BFA0EFEBE
:1010E0009AF810B02BEA0E0E8AF810E000293FF4AF
:1010F000E6AE49E777EEE66AF5EEC06AF1EE10FA81
:10110000CCBF012700279BE736EE666AB5EEC06AC2
:10111000F1EE10FACCBF0121002189E776EE473AC3
:10112000F5EEC03AF1EE10FACCBF0122002277E7CB
:101130000124002A3FF4C1AE49E774EEC54A0122FA
:10114000F5EEC04AF1EE10FA7FF589AE35EEC55ADC
:101150000121B5EEC05AF1EE10FA7FF591AE0127EC
:1011600097E6DDE91223134406EE102A1293139B2F
:101170005B421393D8E500BF2DE9F04F89B008AC6E
:101180009DF84870019104E90C000B78002B00F0E9
:10119000AB801A469DF818809DF8193006464546E2
:1011A00090460393079B0593A8F12004E3B25E2BBE
:1011B00000F29E8033685E4ADB68934240F09B8079
:1011C0008020B3882B44834200F392803368594ACD
:1011D0009B68934240F092804020F188039A0291EC
:1011E0008B18834200F38480002A00F0918002FB78
:1011F00004F46FF00049059BA1441444B6F804B010
:1012000003EB4909023BCDF8108003EB44030C4685
:101210009A4639F802CFA5B304F007034FF0010E48
:10122000E20859460EFA03FE0BF110034FFA8EFE48
:1012300003EBC21200236FEA0E0832440DE07F294F
:1012400006D83F2C04D8107897B14EEA00001070F1
:10125000013301320131AB4213D00CFA03F0000428
:10126000EDD47F29F4D83F2CF2D81078002FECD0A1
:10127000013308EA000001320131AB4202F8010CEF
:10128000EBD1D14504F10104C3D1DDF810803268FF
:101290000BEB05042649D368A4B28B4234D18020DD
:1012A000844204D3D36822498B423AD17F24936885
:1012B000204AB480934224D14020029B834206D32B
:1012C00033681C4A9B68934225D13F230293029BBB
:1012D000F380019B1878404507D113F8018F0193E3
:1012E000B8F1000F7FF460AF002009B0BDE8F08FC7
:1012F0004FF00008EDE73046984762E730469847E0
:101300006BE730469847D8E7304698473268C7E7DA
:10131000B6F804B0BBE730469847013883B2029371
:10132000D5E7304698470138326884B2BFE700BF3E
:10133000850A0008810A00082DE9F04F964683B01F
:1013400006461F461EF8014B91460D460C9B0D9814
:101350009DF83880002C00F010814FF0000C1EF832
:10136000014B0CF1010C002CF9D11FFA8CFC3C78DC
:101370007A7814FB0CFC11B20FFA8CFC2CEAEC7C92
:10138000082800F2E580DFE800F04A5DBAD17484F5
:101390009DA405009A88B3F800A09244B3F90620F2
:1013A000AAEB0C0A002A1FFA8AFA49DB5C88F18052
:1013B00004EB6204A6F804C0A6F800A0A4EB510157
:1013C0008CB274802B68DFF8D4B1DA685A454CD1FE
:1013D0008020504505D8DA685A4540F0D5804FF056
:1013E0007F0A9B68A5F804A0DFF8B4A1534540F03C
:1013F000C1804020A04205D82B689B68534540F02F
:10140000BE803F24EC804946CDF80080284697E80E
:101410000C00FFF7B1FE304603B0BDE8F08FB3F922
:101420000420B3F800A0002AB8BF01320AEB620A18
:10143000B3F90620AAEB6C0A002A1FFA8AFAB5DA79
:101440000132B3E7B3F900A0B3F902402B68DFF82B
:101450004CB1DA68A6F800A01FFA8AFA5A457480DF
:10146000A6F804C0A4B2F180B2D0284690472B68F9
:10147000AFE75C88D888B3F900A00444A6F804C09C
:10148000A6F800A01FFA8AFAA21AF18094B274801A
:1014900098E7B3F90400B3F800A00028B8BF013002
:1014A0000AEB600AAAEB6C0A5C881FFA8AFADB88EE
:1014B000A6F804C01C44F180A6F800A0A21A94B2B9
:1014C00074807FE7B3F800A098888244AAEB0C0AE6
:1014D000EAE7B3F906205C88002AB3F900A0F1809E
:1014E000B8BF0132A6F800A0A6F804C01FFA8AFA15
:1014F00004EB6204A4EB51018CB2748062E7B3F98F
:101500000420B3F800A0002AB3F90240A6F804C0F2
:10151000B8BF01327480F180A4B20AEB620AAAEB70
:101520006C0C1FFA8CFAA6F800A04BE7B3F800A0E9
:101530009A88B3F902409244A6F804C07480A4B219
:10154000AAEB0C0CF1801FFA8CFAA6F800A039E780
:101550002B680024DFF844B0DA6834805A45748080
:10156000B480F48017D19B68DFF834A0AC80534579
:101570003FF448AF284698473CE7A446F7E628469C
:101580009847013884B23DE72846904701382B68D8
:101590001FFA80FA25E7A24667E700BF850A000820
:1015A000810A00082DE9F04F87B09DF84850109C43
:1015B0002E4601959DF844509EB399422ED89946E7
:1015C000A24228D87F29164694BF0023012308E0B1
:1015D0009CF810804EEA080E8CF810E00136B442F8
:1015E00019D33F2EFAD8002BF8D14FEAD60C06F0CB
:1015F000070E4FF0010801EBCC1C08FA0EFE8444E4
:10160000002DE5D19CF810B001362BEA0E0AB44249
:101610008CF810A0E5D201318945D1D207B0BDE8E0
:10162000F08FA3EB0108B8F1000FB8BFC8F10008B4
:101630009942C0F04E817F2B4FF0FF3A94BF0026B5
:1016400001263F2A009694BF002701270297A6B9DA
:101650009FB9D60802F0070C012703EBC616064413
:10166000002D00F0948107FA0CF796F810C047EAB5
:101670000C073774002602960096994200F0978175
:10168000464694468E46BEF17F0F16D8BCF13F0FFA
:1016900013D84FEADC070CF0070B4FF001090EEBF3
:1016A000C7170744002D00F0398109FA0BF997F8A4
:1016B00010B049EA0B0987F81090770018BFD6449C
:1016C000B84502DD46440CF1FF3C7345DBD1624571
:1016D000D9D100260496A4EB0209009FB9F1000FAE
:1016E000B8BFC9F100093F2C94BF00260126A242D1
:1016F000C9F100080396C0F02381002F40F050810B
:10170000002E40F04D814FF0FF360096E60803EBC7
:10171000C6160644002D00F01E814FF0010C04F0A7
:1017200007070CFA07F796F810C047EA0C0737745A
:1017300000260396A24200F03D81C44616461F468D
:1017400005927F2F15D83F2E13D84FEAD60E06F0FC
:10175000070B4FF0010A07EBCE1E8644002D00F068
:10176000E6800AFA0BFA9EF810B04AEA0B0A8EF8E5
:1017700010A0B8EB4C0F4FEA4C0E02DAACEB090CA0
:10178000013FBEF1000F01D0009A1644BB42D8D1F0
:10179000B442D6D1059AA1EB030EBEF1000FB8BF3B
:1017A000CEF1000E7F2994BF4FF0000A4FF0010ADE
:1017B00099428CBF4FF001094FF0FF39BAF1000F89
:1017C00013D1039E8EB9E60801EBC6160644002D20
:1017D00000F0D3804FF0010C04F007070CFA07F774
:1017E00096F810C047EA0C073774049E26BB77466C
:1017F00026467F2B14D83F2E12D84FEAD60C06F07F
:10180000070B4FF0010803EBCC1C8444002D73D070
:1018100008FA0BF89CF810B048EA0B088CF8108016
:101820005FEA470C18BF4B44E64501DD7744013EB3
:101830009942DED1B442DCD1A2EB040EBEF1000F1E
:10184000B8BFCEF1000EA2428CBF4FF001084FF09E
:10185000FF38CEF1000CBAF1000F0ED1029B63B934
:10186000D30802F00707012601EBC3130344002D40
:101870007CD0BE401F7C3E431E74019B002B7FF436
:10188000CDAE66460B467F2B12D83F2C10D8E7080A
:1018900004F0070A4FF0010903EBC7170744A5B38B
:1018A00009FA0AF997F810A049EA0A0987F810908E
:1018B000BCEB460F4FEA460702DAA6EB0E06013BE9
:1018C00007B144449942DED1A242DCD107B0BDE861
:1018D000F08F3F2A4FF0010A94BF002601267F2B8C
:1018E000029694BF002701270097002E7FF4C8AE10
:1018F000002F3FF4AEAEC3E608FA0BFB9CF8108055
:1019000028EA0B088CF810808AE709FA0AFA97F897
:10191000109029EA0A0987F81090C9E709FA0BFB29
:1019200097F8109029EA0B0987F81090C5E60AFA93
:101930000BFB9EF810A02AEA0B0A8EF810A018E7FD
:1019400097BB8EBB01260096E60803EBC61606443D
:10195000002D7FF4E2AE012704F0070C039507FA8F
:101960000CFC377C27EA0C073774E3E606FA07F726
:101970001E7C26EA07061E747FE7012704F0070C89
:1019800007FA0CFC377C27EA0C0737742DE707FAB7
:101990000CFC377C029527EA0C07009537746CE63F
:1019A0004FF0FF360096C5E601260096C5E60126F3
:1019B000049690E601260196EDE600BF2DE9F04F72
:1019C00085B0A1F1200504AC9DF83870009104E9C0
:1019D0000C00EBB25E2B00F29580036880465D4AF6
:1019E000DB689DF8084093429DF8096040F09480C0
:1019F0008020B8F804302344834200F38380D8F871
:101A00000030554A9B68934240F088804020B8F8E7
:101A1000062093190192834274DC002E00F0898025
:101A200006FB05F56FF00040039B964628442E44C4
:101A3000B8F804A003EB4000023B03EB460B30F880
:101A4000026FBCB30EF007034FF0010C4FEADE0249
:101A500051460CFA03FC0AF110034FFA8CFC03EB1D
:101A6000C21200236FEA0C0942440EE07F2907D816
:101A7000BEF13F0F04D815789FB14CEA05051570EB
:101A80000133013201319C4214D006FA03F52D04D2
:101A9000ECD47F29F4D8BEF13F0FF1D81578002F90
:101AA000EBD0013309EA0505013201319C4202F80D
:101AB000015CEAD158450EF1010EC0D1D8F80030D2
:101AC00054442449DA68A4B28A422DD18020844249
:101AD0001CD29B68204AA8F80440934221D14020A0
:101AE000019B834207D3D8F800301B4A9B6893427E
:101AF00029D13F230193DDE90003A8F8063005B0A2
:101B0000BDE8F08F002005B0BDE8F08FDA6811491C
:101B10008A4211D17F24DCE798476AE7404698471C
:101B200075E740469847DBE740469047D8F80030D5
:101B3000CDE7B8F804A0C1E7404690470138D8F88F
:101B4000003084B2C5E740469847013883B201931C
:101B5000D1E700BF850A0008810A000808B5274BB5
:101B60001B78042B0DD8DFE803F0111F2D3B030079
:101B70009FED231ADFED230AB0EE410A224803F05D
:101B8000E7FB2248BDE8084001F040BD9FED1D1A6B
:101B90001D48F0EE410A9FED1A0A03F0D9FB1B48DD
:101BA000BDE8084001F032BD9FED161A1648B0EEB0
:101BB000410ADFED130A03F0CBFB1448BDE80840EF
:101BC00001F024BDDFED0F0A0F48B0EE600A9FED73
:101BD0000C1A03F0BDFB0D48BDE8084001F016BD2E
:101BE000DFED070A0848B0EE600A9FED061A03F021
:101BF000AFFB0648BDE8084001F008BD9439072452
:101C00009A99993E00000000740A00249C0900245F
:101C1000124B93F8B4201AB193F8BA207F2A13D04C
:101C200093F8C4207AB193F8CA307F2B0BD10C48BB
:101C30000C4A03780133A2FB031202F4FE7101EB9C
:101C400092029B1A0370704705490A7812B9042260
:101C50000A70E5E7013A0A70E2E700BF9C09002438
:101C600094390724CDCCCCCC2DE9F0419448954C47
:101C7000954D2DED028B03F06FF8944884ED000A2A
:101C800003F06AF8924B85ED000A1B78042B00F2F2
:101C90000B81DFE813F048008000BC00F80005006D
:101CA0008C4ED4ED008A96ED008A8B4803F0D2FA70
:101CB00038EE688A894FDFF86C82B0EEC88A8848AF
:101CC0009FED7D6BB7EEC88AB4EEC68BD5ED008A6A
:101CD00097ED008AF1EE10FAC8BF88ED000A03F014
:101CE000B9FA38EE687A7F4BD8F80020B0EEC77AA0
:101CF0009FED716BB7EEC77AB4EEC67BD5ED007A77
:101D0000F1EE10FAD4BF93ED000A83ED000A764B92
:101D10001A6083ED010A2368C7ED007A3360BDECD9
:101D2000028BBDE8F0816B4ED4ED008A96ED008AFF
:101D30006E4803F08FFA38EE688A684FDFF8E88162
:101D4000B0EEC88A6A489FED5C6BB7EEC88AB4EE05
:101D5000C68BD5ED008A97ED008AF1EE10FAC8BF68
:101D600088ED000A03F076FA38EE687A9FED526B40
:101D7000B0EEC77AB7EEC77AB4EEC67BF1EE10FAD2
:101D800002DD5C4B83ED000AD8F800205A4BD5EDFC
:101D9000007A5A60BFE74F4ED4ED008A96ED008A74
:101DA000564803F057FA38EE688A4C4FDFF87C81CA
:101DB000B0EEC88A52489FED406BB7EEC88AB4EEC9
:101DC000C68BD5ED008A97ED008AF1EE10FAC8BFF8
:101DD00088ED000A03F03EFA38EE687A494BD8F8ED
:101DE0000020B0EEC77A9FED346BB7EEC77AB4EE41
:101DF000C67BD5ED007AF1EE10FAD4BF93ED000A60
:101E000083ED000A404B9A6083ED010A83E7314E6F
:101E1000D4ED008A96ED008A3C4803F01BFA38EEB8
:101E2000688A2E4FDFF80881B0EEC88A38489FEDE7
:101E3000226BB7EEC88AB4EEC68BD5ED008A97ED5B
:101E4000008AF1EE10FAC8BF88ED000A03F002FA2A
:101E500038EE687A2F4BD8F80020B0EEC77A9FEDA5
:101E6000166BB7EEC77AB4EEC67BD5ED007AF1EE0D
:101E700010FAD4BF93ED000A83ED000A264B9A6056
:101E800083ED030A47E70E4802F066FF234B0F4835
:101E900083ED000A02F060FF214B0E4ED5ED007A73
:101EA0000E4F83ED000A36E7F0EE407A094E0B4FF5
:101EB00031E700BFAFF300802D431CEBE2360A3F51
:101EC000040A0024C43D0724C83D0724240A002432
:101ED00094390724D03D07244C080024D43D07241E
:101EE00014080024E03D07247C9C0024DC07002427
:101EF000A4070024F03D072470090024840800246E
:101F0000BC080024D83D07242C0900243C390724B0
:101F1000043907249C390724F4080024A439072431
:101F2000A0390724DC3D0724F43D07249839072411
:101F3000903907243C4A002130B492F84C303B4C95
:101F400021601BB192F852307F2B25D0384B1B7883
:101F50005BB3013B032B13D892F8441091B9DFED2A
:101F6000357A354BB7EE007A2160D3ED006A77EE13
:101F7000A67AF4EEC77AF1EE10FA37DD83ED007A37
:101F800030BC7047516E9FED2D7A07EE901AF8EE37
:101F9000E77A67EE877AE4E729490B7883F0010353
:101FA0000B70234B1B78002BD3D192F8441041BB0C
:101FB0009FED207A234DF1EE0C6AD5ED007AF8EE14
:101FC000E77A77EE877AFDEEE77A17EE900AF8EE79
:101FD000E77A2860F4EEE67AF1EE10FA16DD0723D0
:101FE0002B60194803700029B9D0CBE7F5EEC07A11
:101FF000002230BCF1EE10FA54BFC3ED007A1A6033
:102000007047D2ED197AB8EEE77AD3E7F5EEC07AE9
:10201000F1EE10FA04D4C0B2072898BF0346E0E7F7
:1020200000202860DDE700BF9C090024BC3D072498
:102030009439072400000000E43D0724CDCCCC3DBA
:10204000C03D0724F83D07247009002470B53048CE
:1020500003F07CFB00284CD02E4CD4F8AC50D4F8C4
:10206000B030E91A00290A463DDB002A40D09D42E3
:10207000F8D003EBC302D4F8A4000133D4F8A8606D
:1020800000EB0211B3424FEA021291F808C0825CE1
:10209000497AC4F8B03002D39B1BC4F8B030012A8F
:1020A000DDD11D4B83F834200029D8D007EE90CA2B
:1020B0009FED1A7AF2EE080AF8EE677AB0EE000A9F
:1020C00077EEC77AC7EEA00A14F0AAFFDFED147A04
:1020D000144A20EE270AD4E92B5382ED000AE91AAC
:1020E00000290A46C1DAD4F8A8200A44002ABED141
:1020F00070BD0D48A0F1080403F076F8201D03F030
:1021000029FB22460949201D03F016FBA5E700BF65
:10211000C4A70624C0A70624F408002400008A42AD
:102120000000DC43CC3D0724C8A706249D0A000814
:102130002DE9F04F2DED028B89B015460C4606F0C7
:102140009DF9604B9860FFF709FD5F4801F042FA86
:102150005D4801F04BFAFFF75BFDFFF7EBFEFFF781
:1021600083FD5A4802F078FE594803F049F959486E
:1021700003F046F9FFF76AFF002D5FD0013D00260E
:10218000DFF86CB16B08DFF86CA1534DDFF8689194
:10219000DFF86881514F0393DAED007A08349BED44
:1021A000000A4F4BA0EE270A4B481B78082B28BF8C
:1021B000002385ED020A2B7013F022FF464885EDBF
:1021C000070A13F063FD474814F0F2F9B0EE408AB5
:1021D000454813F041FC07AB28EE008A05AA00939E
:1021E00004A906AB41488DED048A8DED058A14F0F3
:1021F00053F8F7EE007AD8ED005AD9ED006A731C57
:102200009DED066A37EEE57A9DED075A26EE866A61
:10221000039A66EE856A27EE087A96421E46A5EE78
:10222000867A04ED027A97ED007A77EEC77A67EE48
:10223000887AE7EE267A44ED017AADD106F01EF9F0
:1022400020498A6891ED017A821A0B7807EE902A6C
:10225000F8EE677A67EE877A63B10023C1ED057AFD
:10226000C1ED037AC1ED047A0B7009B0BDEC028BAD
:10227000BDE8F08F134B93ED047AF4EEC77AF1EEDC
:1022800010FAC8BFC3ED047A0E4B93ED037AF4EE57
:10229000C77AB7EE007AF1EE10FA48BFC3ED037AC1
:1022A000084BD3ED066A93ED056A37EE667A27EEA2
:1022B000067AA7EEA67A83ED057A09B0BDEC028B0B
:1022C000BDE8F08F743907249C090024DC09002440
:1022D0004C0A00245C0A002470090024EC3D072409
:1022E000F83D07242C090024F40800247C9C0024D9
:1022F000CC3D0724F03D0724E43D0724E83D0724B6
:102300002DE9F04FDFF848B24FF4806200210BF165
:1023100010002DED048BF9B015F044FB824B1B78B7
:10232000ABB9824B0DF5B07A814D54461E780FCD76
:102330000FC495E80F0084E80F00042E00F2038517
:10234000DFE816F058049004B104E0041302794B5E
:1023500018AADFED798A38ACD3ED037A154693EDF0
:10236000059A104667EEA87A93ED048A73490DF535
:10237000B07A0892B7EEE77A079453EC172B16F071
:10238000C3F869EE287A6E492046B7EEE77A53EC37
:10239000172B16F0B9F868EE287A6A495046B7EE5E
:1023A000E77A53EC172B16F0AFF8674A01235478FD
:1023B0001178CBF8043052682B7803940692002BE6
:1023C00070D007EE90AA0495203BDAB25E2A67D857
:1023D000BBF8048008EB010EBEF1800F60DCBBF897
:1023E0000620039805920244402A59DC002842D076
:1023F000039A6FF0004C059D02FB03F39C441344C9
:10240000069A02EB4C0C023A02EB430A3CF8026FCC
:1024100069B305F007030127EA0840469F4008F129
:1024200010037FB203EBC21200236FEA07095A447C
:102430000BE07F2804D83F2D02D814783C43147059
:102440000133013201308B4211D006FA03F4240427
:10245000EFD47F28F4D83F2DF2D81478013301321D
:10246000013009EA04048B4202F8014CEDD1D44555
:1024700005F10105CAD1059A1FFA8EFE04983F2A7C
:1024800010F8013F28BF3F22BEF17F0F049028BF04
:102490004FF07F0EABF80620ABF804E0002B93D191
:1024A00017EE90AA294B079ACBF804301378002B2B
:1024B00000F08A8007EE90AA0492203BDAB25E2AEE
:1024C00000F28080BBF8048008EB010EBEF1800FA3
:1024D00078DCBBF80620039805920244402A71DCA0
:1024E000002859D0039A6FF0004C059D02FB03F3BE
:1024F0009C441344069A02EB4C0C023A02EB430A4A
:102500003CF8026F002943D005F007030127EA08D1
:1025100040469F4008F110037FB203EBC212002334
:102520006FEA07095A4421E0C03D07249439072483
:1025300068A80108743907240000C8423CA90108B2
:102540004CA901085CA90108FC0200240100130049
:10255000A83907247F2804D83F2D02D814783C439B
:1025600014700133013201308B4211D006FA03F4AA
:102570002404EFD47F28F4D83F2DF2D81478013307
:102580000132013009EA04048B4202F8014CEDD11A
:10259000E24505F10105B3D1059A1FFA8EFE0498B4
:1025A0003F2A10F8013F28BF3F22BEF17F0F049061
:1025B00028BF4FF07F0EABF80620ABF804E0002BED
:1025C0007FF47BAF17EE90AAA64BCBF804309DF8B2
:1025D0006031002B71D007EE90AACDF810A0203BFF
:1025E000DAB25E2A67D8BBF8048008EB010EBEF1B0
:1025F000800F60DCBBF80620039805920244402A55
:1026000059DC002842D0039A6FF0004C059D02FB74
:1026100003F39C441344069A02EB4C0C023A02EB7F
:10262000430A3CF8026F69B305F007030127EA0883
:1026300040469F4008F110037FB203EBC212002313
:102640006FEA07095A440BE07F2804D83F2D02D8CF
:1026500014783C4314700133013201308B4211D0A5
:1026600006FA03F42404EFD47F28F4D83F2DF2D8DF
:10267000147801330132013009EA04048B4202F874
:10268000014CEDD1E24505F10105CAD1059A1FFAC9
:102690008EFE04983F2A10F8013F28BF3F22BEF16A
:1026A0007F0F049028BF4FF07F0EABF80620ABF8E9
:1026B00004E0002B93D117EE90AA089802F084FC56
:1026C000079802F081FC504602F07EFCDFF8BC81E6
:1026D0004FF0B0094FF47A760025022352469BF85A
:1026E0000C1010276048A8F1800400968DF8605106
:1026F0008DF8619103F09AFF022352469BF80C106B
:10270000594800968DF860518DF8615103F08EFFA5
:10271000022352469BF80C10534800968DF86051E6
:102720008DF8617103F082FF4FF47A7714F8015F3E
:102730004026022352469BF80C104B4800978DF818
:1027400060618DF8615103F071FF4445ECD109F1EE
:10275000010904F180085FFA89F9B9F1B80FB9D11C
:1027600079B0BDEC048BBDE8F08F40490CAC404A19
:1027700010AD91ED007A234618AE38AFB7EEC77AA8
:102780000B950896079707CA8DED007B03C32021A0
:102790001A802846374A15F083FE374B374A93EDA7
:1027A000007AB7EEC77A8DED007B2021304615F018
:1027B00077FE334B334A202193ED007A3846B7EE4B
:1027C000C77A8DED007B15F06BFE9DF860300A93A3
:1027D0009DF8403009932C4A012351781578CBF8A5
:1027E00004305268237805910692002B00F08A800D
:1027F00007EE90AA0394203BDAB25E2A00F28080B2
:10280000BBF8048008EB050EBEF1800F78DCBBF846
:102810000620059904920A44402A71DC002959D007
:10282000059A6FF0004C049C02FB03F39C44134494
:10283000069A02EB4C0C023A02EB430A3CF8026F98
:10284000002D43D004F007030127E20841469F40D2
:1028500008F110037FB203EBC21200236FEA0709ED
:102860005A4421E001002400B0390724DC3D07244C
:1028700020AA010810AA0108E03D07242CAA01089B
:10288000E43D0724C4A90108F4020024373A0724D0
:102890007F2904D83F2C02D81078384310700133B8
:1028A00001320131AB4211D006FA03F00004EFD43B
:1028B0007F29F4D83F2CF2D810780133013201314E
:1028C00009EA0000AB4202F8010CEDD1E24504F147
:1028D0000104B3D1049B1FFA8EFE039A3F2B28BF3D
:1028E0003F23BEF17F0FABF8063028BF4FF07F0EBD
:1028F00012F8013FABF804E00392002B7FF47BAFAA
:1029000017EE90AA9A4B9B4A1978CBF804205A7874
:102910005B6803920693099B002B71D00B9A07EE1C
:1029200090AA0492203BDAB25E2A67D8BBF80480F2
:1029300008EB010EBEF1800F60DCBBF806200398A7
:1029400005920244402A59DC002842D0039A6FF0D5
:10295000004C059D02FB03F39C441344069A02EBD2
:102960004C0C023A02EB430A3CF8026F69B305F0E3
:1029700007030127EA0840469F4008F110037FB291
:1029800003EBC21200236FEA07095A440BE07F28C9
:1029900004D83F2D02D814783C431470013301321F
:1029A00001308B4211D006FA03F42404EFD47F28BF
:1029B000F4D83F2DF2D8147801330132013009EAFE
:1029C00004048B4202F8014CEDD1D44505F1010518
:1029D000CAD1059A1FFA8EFE04983F2A10F8013FCB
:1029E00028BF3F22BEF17F0F049028BF4FF07F0E1B
:1029F000ABF80620ABF804E0002B93D117EE90AAB9
:102A00005D4BCBF804300A9B002B71D0089A07EE7F
:102A100090AA0492203BDAB25E2A67D8BBF8048001
:102A200008EB010EBEF1800F60DCBBF806200398B6
:102A300005920244402A59DC002842D0039A6FF0E4
:102A4000004C059D02FB03F39C441344069A02EBE1
:102A50004C0C023A02EB430A3CF8026F69B305F0F2
:102A600007030127EA0840469F4008F110037FB2A0
:102A700003EBC21200236FEA07095A440BE07F28D8
:102A800004D83F2D02D814783C431470013301322E
:102A900001308B4211D006FA03F42404EFD47F28CE
:102AA000F4D83F2DF2D8147801330132013009EA0D
:102AB00004048B4202F8014CEDD1E24505F1010519
:102AC000CAD1059A1FFA8EFE04983F2A10F8013FDA
:102AD00028BF3F22BEF17F0F049028BF4FF07F0E2A
:102AE000ABF80620ABF804E0002B93D117EE90AAC8
:102AF000224B079ACBF804301378002B3FF4E6AD55
:102B000007EE90AA0492203BDAB25E2A6FD8BBF897
:102B1000048008EB010EBEF1800F68DCBBF80620D4
:102B2000039805920244402A61DC00284AD0039AA7
:102B30006FF0004C059D02FB03F39C441344069A7E
:102B400002EB4C0C023A02EB430A3CF8026FA9B3C9
:102B500005F007030127EA0840469F4008F11003EB
:102B60007FB203EBC21200236FEA07095A4413E055
:102B7000FC0200240100130001001E0001002900D6
:102B80007F2804D83F2D02D814783C4314700133B9
:102B900001320130994211D006FA03F42404EFD433
:102BA0007F28F4D83F2DF2D8147801330132013058
:102BB00009EA0404994202F8014CEDD1E24505F11D
:102BC0000105C2D1059A1FFA8EFE04983F2A10F81B
:102BD000013F28BF3F22BEF17F0F049028BF4FF076
:102BE0007F0EABF80620ABF804E0002B8BD117EE7C
:102BF00090AA6BE55E4A10AD5E4B0CAC92ED007A8C
:102C000018AE5D4AB7EEC77A0B9593E803008DEDD9
:102C1000007B84E803002021284615F041FC574B37
:102C2000574A202193ED007A30460896B7EEC77ACE
:102C30008DED007B15F034FC524B78AA20211B68E7
:102C400002EB830338AA174653F8803C07923846B4
:102C50004D4A15F025FC9DF860300A939DF84030F0
:102C60000993B8E549490CAC494A10AD91ED007A99
:102C7000234618AE38AFB7EEC77A0B95089607977C
:102C800007CA8DED007B03C320211A802846414AE4
:102C900015F006FC404B414A93ED007AB7EEC77A37
:102CA0008DED007B81E53E4A10AD3E4B0CAC92EDC4
:102CB000007A18AE3C4AB7EEC77A0B9593E803004A
:102CC0008DED007B84E803002021284615F0E8FB09
:102CD000364B374A202193ED007A30460896B7EEFE
:102CE000C77A8DED007B15F0DBFB324B324A202199
:102CF00093ED007A38ABB7EEC77A184607938DED9F
:102D0000007B60E52D490CAC2D4A10AD91ED007AA9
:102D1000234618AE38AFB7EEC77A0B9508960797DB
:102D200007CA8DED007B03C320211A702846254A6F
:102D300015F0B6FB244B254A93ED007AB7EEC77A1F
:102D40008DED007B31E5002210A90CAC204B0B91DE
:102D500018A98DF84020254609928DF860200A9226
:102D600038AA089107920FCB07C52B8033E500BF27
:102D7000F43D07246CA9010874A90108F03D07245B
:102D800084A90108F83D072490A90108983907246F
:102D90009CA90108A8A90108D83D0724B8A90108E1
:102DA00090390724D0A90108D8A901089C39072423
:102DB000E8A90108E43D0724C4A90108A4390724AF
:102DC000F8A9010804AA0108A039072410AA0108DB
:102DD0003CAA010884B070B584B004464FF47A76FA
:102DE00009AD85E80E009DF83830294600250371AD
:102DF00003F086FBAE2303AA00968DF80D30204623
:102E0000217902238DF80C5003F010FCD52303AA7E
:102E10000096204621798DF80D3002238DF80C5054
:102E200003F004FC802303AA0096204621798DF844
:102E30000D3002238DF80C5003F0F8FBA82303AAF1
:102E40000096204621798DF80D3002238DF80C5024
:102E500003F0ECFB3F2303AA0096204621798DF86E
:102E60000D3002238DF80C5003F0E0FBDA2303AAA7
:102E70000096204621798DF80D3002238DF80C50F4
:102E800003F0D4FB122303AA0096204621798DF883
:102E90000D3002238DF80C5003F0C8FBD32303AA96
:102EA0000096204621798DF80D3002238DF80C50C4
:102EB00003F0BCFB03AA00960223217920468DF87B
:102EC0000C508DF80D5003F0B1FB402303AA00967F
:102ED000204621798DF80D3002238DF80C5003F037
:102EE000A5FBA62303AA0096204621798DF80D3074
:102EF00002238DF80C5003F099FBA42303AA00963B
:102F0000204621798DF80D3002238DF80C5003F006
:102F10008DFB8D2303AA0096204621798DF80D3074
:102F200002238DF80C5003F081FB142303AA0096B2
:102F3000204621798DF80D3002238DF80C5003F0D6
:102F400075FBA12303AA0096204621798DF80D3048
:102F500002238DF80C5003F069FBC82303AA0096E6
:102F6000204621798DF80D3002238DF80C5003F0A6
:102F70005DFB812303AA0096204621798DF80D3050
:102F800002238DF80C5003F051FB8F2303AA009607
:102F9000204621798DF80D3002238DF80C5003F076
:102FA00045FBD92303AA0096204621798DF80D30E0
:102FB00002238DF80C5003F039FB252303AA009659
:102FC000204621798DF80D3002238DF80C5003F046
:102FD0002DFBDB2303AA0096204621798DF80D30C6
:102FE00002238DF80C5003F021FB342303AA009632
:102FF000204621798DF80D3002238DF80C5003F016
:1030000015FBAF21009603AA02238DF80D10204670
:1030100021798DF80C5003F009FB04B0BDE8704035
:1030200004B070472DE9F04FCA494FF00008DFF8AF
:10303000F0A34FF07C55C84FC848C94ADFF8E4B345
:10304000C84BCBF80020C84EC84CDFF8DC932DED00
:10305000088B9FEDC78AF7EE008A1D608DB081ED69
:10306000008AC449C44BC1F80080C44986ED008A77
:10307000C1ED008AC249DFEDC3AACAF80010C249F7
:103080003960C2490860C249C2480A60C24A136036
:10309000C24A1360C24B83ED008AC24B83ED008AA3
:1030A000C14B83ED008AC14B83ED008AC04B83ED99
:1030B000008AC04B83F8008000F0DCFB4146B54835
:1030C00000F044FB0421B34800F066FAB14800F078
:1030D0007BFA4046B0EE409A01F084FFAD4800F024
:1030E00073FAAC48B0EE40AA00F06CFA07EE900A12
:1030F000F8EEE79A05F064FB9FEDAF6A07EE900AE1
:103100004FF44073AD4ACAEE296A20462380AC4B87
:1031100050F8041BDA6089EE8ABA1A615A614FF0DE
:1031200001021A70F8EE677A86EE267A67EE8B7ADD
:10313000C8EEA76A37EE286AC7EE067AC3ED016AC1
:10314000C3ED067A02F0CEFA04F108009D4C02F0BD
:103150004BF8C8EE897A9FED9C0A20466560E560D1
:1031600084ED049A84ED020A84ED068AC4ED057AA2
:1031700012F046FF40F2011284ED070A4846B0EE15
:10318000490A22850422C4ED01AA227013F0F4F941
:10319000DBF80020B0EE490A8C4CC9F808203268F0
:1031A00020468B4EC9F8042012F03EFCDAF80030BD
:1031B000B0EE490A30462562A3603B68C4ED068A3A
:1031C000E36084ED058A12F0A7FF824B04AC824DC8
:1031D000F0EE680A73602746804BB0EE480A336011
:1031E0000FCD0FC495E80F0005F1100684E80F001D
:1031F000424639467A4801F0FDFFBC46F0EE6A0AC5
:103200009FED780A0FCEACE80F0096E80F0084E837
:103210000F0042463946744801F0ECFFA5F1100E4C
:10322000BC46DFED720A9FED720ABEE80F00ACE803
:103230000F0095E80F0084E80F00022239466D4820
:1032400001F0D8FFA6F1100EBC46F0EE680AB0EE11
:10325000480ABEE80F00ACE80F0096E80F0084E8CB
:103260000F0042463946644801F0C4FFA5F1100E34
:10327000BC46F0EE680AB0EE480ABEE80F00ACE8C3
:103280000F0095E80F0084E80F00424639465B487E
:1032900001F0B0FF05F1100EBC46F0EE680AB0EE8A
:1032A000480ABEE80F00ACE80F0096E80F0084E87B
:1032B0000F0042463946524801F09CFFA5F1100E1E
:1032C000BC46F0EE680AB0EE480ABEE80F00ACE873
:1032D0000F0095E80F0084E80F0042463946494840
:1032E00001F088FF05F1100EBC46DFED470A9FEDA7
:1032F000470ABEE80F00ACE80F0096E80F0084E82C
:103300000F0002223946424801F074FF012341496F
:103310003C2206931023CDF81C808DF8203007AB9B
:10332000CDF8108005918DF8242093E807008DE8F2
:103330000700394897E80E00FFF74CFDA5F178002B
:1033400000F044F93549A5F1780000F023F9FEF7C3
:10335000D7FFFCE7F03D07249C3907243333333F84
:1033600000007A44F43D0724D83D0724C0A7062472
:1033700000000000F83D07249A99993EB83D0724C3
:103380000AD7233CCDCCCC3DCDCC4C3EDC3D0724F4
:10339000E03D07249C090024E83D0724EC3D072478
:1033A000E43D0724D43D0724D03D0724C83D07242D
:1033B000C43D0724C03D0724DB0FC9400000C07F87
:1033C00074390724700900240000C842F40800245E
:1033D0007C9C002400A08C46040A00249A99593F42
:1033E000DC070024CDCCCCBDA407002400401C4643
:1033F0000000484284080024BC0800243C3907240B
:10340000043907244C08002400409C46000048432F
:103410001408002401080109B039072431210008EB
:1034200090390724983907242C0900242DE9F84302
:103430003E4C0025DFF8588140F20F77256004F5F7
:10344000C070656140F201192562E56301F000FE7C
:1034500004F51473C4F890512046C4F83882A4F8D7
:103460003C72C4F84032C4F844923149314EC4E948
:103470009255314C224613F063FB3048304B2246C4
:1034800030498560036013F05BFB2F4822462F49CB
:1034900000F1B403C0F8A8904560C0F8A4304FF420
:1034A0004073C0E927870360C0E92B5513F048FB40
:1034B00022462749274813F043FB2246264927483E
:1034C00013F03EFB22462649264813F039FB2246DC
:1034D0002549264813F034FB22463146244813F090
:1034E0002FFB22463146234813F02AFB2246314661
:1034F000214813F025FB22463146204813F020FBDB
:10350000224631461E4813F01BFB224631461D4819
:1035100013F016FB224631461B4813F011FB2246DE
:1035200031461A48BDE8F84313F00ABB9C09002451
:10353000590A0008550A000800000024A839072489
:1035400054AA01087D0A0008C0A70624890A0008B9
:10355000610A0008700900245D0A0008F4080024CC
:10356000690A00082C090024650A00087C9C0024D4
:10357000DC070024A407002484080024BC080024DD
:103580003C390724043907244C080024140800247B
:103590000080707F00F070B938B5044600F074F90F
:1035A000D4F8A850204600F091F9284601F0F8FB25
:1035B000D4F8AC50204600F089F92846BDE83840E0
:1035C00001F0EEBB00F07CB900F05AB9183002F0FF
:1035D00019BB00BF10B50446683001F0BDFB04F113
:1035E0008800BDE8104001F0B7BB00BF10B504462D
:1035F000403001F031FC04F1B00001F001FF04F1B2
:10360000C000BDE8104001F0FBBE00BF10B504468D
:10361000D83001F0CDFE04F59670BDE8104001F001
:10362000C7BE00BFF0B54FF481718FB000F1D8076D
:1036300001254FF4C0624FF4E063ADF8081000F5C7
:10364000967402993846ADF80C2008AEADF81030EB
:103650000095DDE9032301F053FE40F201134FF41E
:1036600080722046ADF814304FF4806305990095C0
:103670000BADADF81820ADF81C30DDE9062301F0E4
:103680003FFE3046072105F0C9FD96E8070085E8B2
:1036900007002946384601F075FE96E8070085E8E0
:1036A00007002946204601F06DFE384601F080FEF5
:1036B00020460FB0BDE8F04001F07ABE2DE9F041A0
:1036C00040F2024304460222002504F1180704F1E7
:1036D000A8062DED028B8EB09FED1B8AADF80C3045
:1036E00005A8039902F06CF802220DF12600ADF84E
:1036F0001020049902F064F80423022205A9384638
:1037000002F072F804F1680204F18803C4E92A2384
:103710002946384656F8048B02F08AFA01462046BC
:10372000019100F0D3F80023F0EE480A01994046D9
:103730001A4601F0DFFA25B10EB0BDEC028BBDE8F0
:10374000F0810125E4E700BF6F12033B2DE9F04152
:1037500004469AB00027019100F08CF801992046A8
:1037600000F074F940F6061304F1B0069FED400A2C
:10377000ADF8143004F1C0053046059901F026FE7D
:103780004FF4007328469FED3A0AADF8183004F55F
:10379000C878069901F01AFE40F6033240F2016340
:1037A0009FED330AADF8082004F140000299ADF80E
:1037B0000C70C4F8D0600FAEC4F8D45007ADADF8AB
:1037C0001030DDE9032301F017FB2046FFF72AFF45
:1037D0002046FFF773FF284601F03AFC01230DF164
:1037E0002C0E04F5C07C1593189347F612231697F8
:1037F00019930223179395E80F008CE80F008EE8C9
:103800000F0086E80F00BDF840301490ADF84E3040
:10381000BDF84230D4E9625EADF84C30C4E9655E73
:10382000BEF1000F04D072463946284614F0BAF8AB
:1038300013A9404604F0A6FB04F5D27001F0D4FCB5
:103840003021204600F020F8D4F8A850204600F09F
:103850003DF8284601F0A4FAD4F8AC50204600F018
:1038600035F828461AB0BDE8F04101F099BA00BF1A
:1038700000000000704700BF143001F013BA00BF11
:10388000143001F00BBA00BF38B500F1140504463E
:103890002DED028B284601F0F3F9284601F0FEF9E0
:1038A0002846B0EE408A01F0E7F9D0ED007AF8EE54
:1038B000677A88EE277ABDEC028B84ED0E7A38BDEC
:1038C00008B5143001F0D8F9006808BD90ED0E0A73
:1038D000704700BF10B540F203338EB000244FF69E
:1038E0000B7240F20341ADF8083009A80123ADF88E
:1038F0001020ADF824202246ADF80C100094029957
:1039000007940C94CDE90544CDE90A4402F092FAFB
:1039100004A8012322460399009402F08BFA09A817
:1039200002F06EFB10B901200EB010BD04A802F029
:1039300067FBA0420CBF022020460EB010BD00BFA6
:103940002DE9F04103239AB0012700240646CDE972
:1039500014373B4BCDE9104340F20453CDE91647F1
:10396000ADF84830FFF7B6FFB842054625D002282B
:1039700045D040F60132334B0DF12C081894ADF8C8
:103980002C200B981997CDF84A3000F0E3F810A9D5
:1039900006F13C0003F07CFB302003224FF07E5305
:1039A00041460D930E93CDE90B02F26B06F1140024
:1039B00001F02AF91AB0BDE8F0811023214A06A9C6
:1039C00006908DF828300DF12C081F4BCDF84A20B9
:1039D00007930294CDE91804CDE9080402A802F087
:1039E0008FFD0823029A03A94046ADF80C508DF8CC
:1039F0000E40049505930B9400F0ECF8C7E7002007
:103A00000121104B0DF12C083A460094CDF84A30B4
:103A10004FF60B730C94ADF82C302346CDE918010A
:103A200040F601314046ADF818100699CDE90D4435
:103A300002F000FA2146404602F0EEFAA7E700BF86
:103A400004020404040604030704010B2DE9F047F3
:103A500004462DED028B82B000294DD0012140F2A9
:103A6000011200230091ADF804208DF80630364A8B
:103A70000127364B04F10409354904F12908626035
:103A800040F20272A36040F60663E16004F1250A89
:103A9000A4F82520A4F82930278284F8277084F818
:103AA0002B7004F093FE054604F0F0FC69460646D0
:103AB00050BB4DB304F130008DF8067004F008FEE1
:103AC000072D3CD104F114052046FFF739FF2846A5
:103AD00001F0E4F82846B0EE408A01F0CDF8D0EDD0
:103AE000007AF8EE677A88EE277A84ED0E7A02B0D3
:103AF000BDEC028BBDE8F08740F2011300918DF818
:103B00000610ADF80430B2E704F1300004F0E0FD37
:103B1000072D11D04946204602F03AFF0EB9002D7C
:103B2000D0D1504602F082FA404602F07FFA04F10A
:103B3000120000F079F9C5E7002EF2D1C2E749463C
:103B4000204602F025FFBDE7050805090507050623
:103B5000050A060610B584B003460124ADF804003A
:103B600003A8ADF80C30ADF80E4002F05FFA214624
:103B700003A802F045FB204604F086FC002103A8C0
:103B800002F03EFB204604F07FFC214603A802F031
:103B900037FB04B010BD00BF10B5C2F3002384B0E2
:103BA0000C46017C8DF80D2043EA4402FA240223DE
:103BB0008DF80C2003AA009402F038FD18B10124FE
:103BC000204604B010BD04460A2004F05DFC2046E7
:103BD00004B010BD034670B543F8042B044684B00E
:103BE00007C983E80700A37983B91A210B461E226F
:103BF000FA2523742046ADF80C20022303AA009571
:103C000002F014FD28B1012004B070BD1B210B4649
:103C1000EDE70A2004F038FC4FF4B8520095022377
:103C2000ADF80C20204603AA217C02F0FFFC0028FE
:103C3000E9D10A2004F028FC41F202720095022327
:103C4000ADF80C20204603AA217C02F0EFFC0028EE
:103C5000D9D10A2004F018FC042200950223ADF803
:103C60000C20204603AA217C02F0E0FC0028CAD1E7
:103C70000A2004F009FC062200950223ADF80C206E
:103C8000204603AA217C02F0D1FC0028BBD10A20E7
:103C900004F0FAFB41F2082200950223ADF80C2053
:103CA000204603AA217C02F0C1FC0028ABD10A20E7
:103CB000064604F0E9FB0095022303AA217C204676
:103CC000ADF80C6002F0B2FC00289CD1304604F044
:103CD000DBFB009522790C232046002A8DF80C305E
:103CE00003AA4FF0020314BF622142218DF80D1088
:103CF000217C02F09BFC002885D1304604F0C4FBF7
:103D00002279D4E902310B43DBB20AB943F0400314
:103D100062790AB143F020030E22FA258DF80D30A6
:103D20002046009502238DF80C2003AA217C02F086
:103D30007DFC00287FF467AF0A2004F0A5FB102269
:103D400000950223ADF80C20204603AA217C02F046
:103D50006DFC00287FF457AF0A2004F095FB122178
:103D600000950223ADF80C1003AA217C204602F036
:103D70005DFC00287FF447AF0A2004F085FB012298
:103D800009212046FFF708FF003818BF01203BE754
:103D9000F0B5102387B0234C01220025012600270F
:103DA00002A920460195CDE902234FF48052CDE9C6
:103DB00004670BF0B7FF642005F062FB02A94FF423
:103DC00080522046CDE9046702261027CDE902671C
:103DD0000BF0A8FF0322102302A92046CDE90223FD
:103DE00000230422CDE904234FF480520BF09AFF04
:103DF00040F23223042202A9019310232046CDE988
:103E00000223019A012305924FF4805204930BF090
:103E100089FF40F6060120460BF0A4FF284607B0B4
:103E2000F0BD00BF043E07241C4B00221C494FF08C
:103E3000400C30B5054689B00220596007219A60D0
:103E40001A620124DA620A224FF4006EDC600692E4
:103E50002022CDE9000104200821CDE90201032040
:103E60001021CDE9040108206946C3E904024FF49A
:103E7000C072181DC3E906C24FF48052C3E909E2BB
:103E80000BF026FF38B92846FFF782FF003818BF2D
:103E9000012009B030BD204609B030BD003E0724E6
:103EA00040410052614A0021D0B513688EB00A919A
:103EB000002B40F0B9805E4B01214FF683700C243B
:103EC00011600221D3F8D4200026032742F4805247
:103ED000C3F8D420D3F8D42002F480520092009A80
:103EE000D3F8E02042F01002C3F8E020D3F8E0203D
:103EF00002F010020192019AD3F8E02042F0400251
:103F0000C3F8E020D3F8E02002F040020292029AC7
:103F1000D3F8E02042F00802C3F8E020D3F8E02014
:103F200002F008020392039AD3F8E02042F4807270
:103F3000C3F8E020D3F8E02002F480720492049ADF
:103F4000D3F8E02042F08002C3F8E020D3F8E0206C
:103F500002F080020592059AD3F8E02042F0200298
:103F6000C3F8E020D3F8E02002F020020692069A7F
:103F7000D3F8E02042F00402C3F8E020D3F8E030A8
:103F80000C9403F0040307930323079A0B93CDE9E2
:103F9000080108A9274807F0F9F848F23712022368
:103FA00008A925480C94CDE90823CDE90A6707F054
:103FB000EDF84CF20372022308A920480C94CDE9D5
:103FC0000823CDE90A6707F0E1F840F2FF62022317
:103FD00008A91B480C94CDE90823CDE90A6707F02E
:103FE000D5F84FF60C72022308A916480C94CDE9B7
:103FF0000823CDE90A6707F0C9F84FF63F0202230C
:1040000008A911480C94CDE90823CDE90A6707F007
:10401000BDF82022022308A90A480C94CDE90A67BA
:10402000CDE9082307F0B2F80EB0D0BDFC3D07245F
:10403000004402580010025800180258000C0258A0
:1040400000200258001C0258001402582DE9F04FBD
:10405000DFF8108406460D46144608F118002DEDD1
:10406000028B89B000AF03F00BF9D8F8183073B3A6
:10407000D8F81C30D8F80490002B43690BBF4FF0E0
:10408000080A4FF0100A4FF0020B4FF0040BB9F181
:10409000000F2AD0A200EA46012B02F1070222F00B
:1040A0000702ADEB020D6846ADEB020D694600F06C
:1040B0003F81022B00F0D680002B6FD02246C847EC
:1040C000D5462437BD46BDEC028BBDE8F08FD8F84D
:1040D0001C30002BF5D0D8F804904FF0080A4FF0B0
:1040E000020B4369B9F1000FD4D1FB61D8F800305D
:1040F000BB61002BE5D0D54803F034F96B46BBF12A
:10410000020F786108EE103AFB6900F083816A467D
:104110005146A2EBC40295466200EA46B2FBFBF2AE
:10412000AAEBC40085460AEB8200EE46F861ADEBCF
:10413000010DF8690EEB820CC7F810C0EC46ADEB30
:10414000010D00EB8201CCF80400CCF8081001EB63
:1041500082013869E946CCF80C1000EB8201CCF8FA
:1041600000A001EB8202C9E900E0C9E90212012BBB
:1041700000F06483022B00F06C82002B00F0808141
:10418000620849466046BB69984718EE103A2437E2
:104190009D46BD46BDEC028BBDE8F08F002C8DD056
:1041A0001A46D8ED0C6A9FEDB27A8446331D36F973
:1041B00022E00CF1080C07EE90EA33F922E002321B
:1041C000F8EEE77A944267EE877A67EEA67A4CEDCE
:1041D000027A07EE90EAF8EEE77A67EE877A67EE02
:1041E000A67A4CED017AE2D8F9612246C847984E8A
:1041F000D8ED0D6A0020F9692B1D9FED9E7A9FED89
:104200009E6ADFED9E5A22E0F4EEC67AF1EE10FAD5
:10421000C0F2C88447F6FE72D1ED017A45F820203D
:1042200066EEA77AF4EEC77AF1EE10FA40F2F0806B
:10423000F4EEC67AF1EE10FAC0F2D58447F6FE72BB
:1042400043F820200230083184427FF639AFD1EDA7
:10425000007A66EEA77AF4EEC77AF1EE10FAD3D8B8
:104260003246D9E7002C3FF429AFD8ED0C6A8446DA
:104270009FED787A0022331D8E4656F822100CF1FD
:10428000080C07EE901A53F822100232F8EEE77A83
:10429000944267EE877A67EEA67A4CED027A07EED3
:1042A000901AF8EEE77A67EE877A67EEA67A4CED19
:1042B000017AE2D871462246C7F81CE0C847664E2C
:1042C000D8ED0D6A0020F9692B1D9FED6A7A9FEDEC
:1042D0006A6ADFF894C120E0F4EEC67AF1EE10FAD3
:1042E000C0F279843246D1ED017A45F8202066EE9D
:1042F000A77AF4EEC77AF1EE10FA40F28780F4EE76
:10430000C67AF1EE10FAC0F25E84324643F82020FD
:104310000230083184427FF6D3AED1ED007A66EEEA
:10432000A77AF4EEC77AF1EE10FAD5D86246DAE74A
:10433000002C3FF4C3AED8ED0C6A86469FED477A59
:104340004FF0000C331D56F82C200EF1080E82F4AD
:104350000002A2F5000207EE902A53F82C200CF17F
:10436000020CF8EEE77A82F400026445A2F500023E
:1043700067EE877A67EEA67A4EED027A07EE902A0C
:10438000F8EEE77A67EE877A67EEA67A4EED017A65
:10439000D9D8F9612246C847314ED8ED0D6A0020C0
:1043A000F9692B1D9FED337A9FED336ADFF8BCC0AE
:1043B0001FE0F4EEC67AF1EE10FAC0F2FC8332464A
:1043C000D1ED017A45F8202066EEA77AF4EEC77A9F
:1043D000F1EE10FA18D9F4EEC67AF1EE10FAC0F246
:1043E000DA83324643F820200230083184427FF6D7
:1043F00067AED1ED007A66EEA77AF4EEC77AF1EEF9
:1044000010FAD6D86246DBE76246EBE762467DE704
:10441000324615E7A100D6466208073121F00701B0
:10442000ADEB010DEA46ADEB010D6946ADEB0E0DAE
:104430000AEB8200EC46ADEB0E0D01EB8202F86157
:10444000E946CCE900A0C9E9001290E6543E0724F1
:104450000280FFFF000000300082FF7F0000003478
:1044600082FF7F00383E0724007E00807E0080FFB0
:104470000000003804FF7FBF04FF7F3F00FEFF46BF
:10448000002C00F0C982BBF1020FD8F8242000F004
:10449000FA827969C7F8049002EB810E5FED0C5A3D
:1044A0008A00DCF808100EF104007A611A46DCF884
:1044B0000C303B61331DD7F810903D61FD69C7E9B1
:1044C00002CB8C46834636F92210D8ED0C7A06EEE4
:1044D000101A33F9221006EE901A3EF92210B8EEA7
:1044E000C66A07EE101AF8EEE66A3BF92210B8EE3B
:1044F000C77A26EE256A66EEA56A27EE257A26EEAD
:10450000276A66EEA76A27EE277A07EE901A510807
:104510000232F8EEE77A0AEB8100944280ED006AFD
:1045200005EB810067EEA57AC0ED006A0CEB810017
:1045300009EB810180ED007A98ED0C7A67EE877ABD
:10454000C1ED007ABFD8D7F804903D69D7E902CB16
:1045500060466208BB6949469847D8F82C307A69AA
:10456000D8ED0D6A1A441FED3D7A1FED3D6A2B1DF3
:10457000904602F1040A5FED3F5A0022A84ED9E9A5
:1045800000EC51E0F4EEC67AF1EE10FAC0F2C78208
:1045900047F6FE7045F822000CEB0100D0ED007AE2
:1045A00066EEA77AF4EEC77AF1EE10FA4BD9F4EE84
:1045B000C67AF1EE10FAC0F2BA8247F6FE70BBF18D
:1045C000020F43F822002BD0D9F808000844D0EDA0
:1045D000007A66EEA77AF4EEC77AF1EE10FA36D9D1
:1045E000F4EEC67AF1EE10FAC0F2CD8247F6FE7014
:1045F00048F82200D9F80C000144D1ED007A66EEAB
:10460000A77AF4EEC77AF1EE10FA1ED9F4EEC67A64
:10461000F1EE10FAC0F2AF8247F6FE714AF82210AE
:10462000023294427FF6B1AD51080EEB8100890051
:10463000D0ED007A66EEA77AF4EEC77AF1EE10FAC2
:10464000A0D83046A6E73046B9E73146E6E730461F
:10465000CEE7002C00F0E081BBF1020FD8F8243047
:1046600000F0E1817A69DCF8081003EB820EC7F8EC
:1046700004909300DFED6B5A0EF1040000227B6181
:10468000DCF80C303B61331DD7F810903D61FD69BB
:10469000C7E902CB8C46834656F82210D8ED0C7A37
:1046A00007EE101A53F82210B8EEC76A07EE101A78
:1046B0005EF82210F8EEC76A07EE101A26EE256A99
:1046C0005BF82210B8EEC77A66EEA56A26EE276A76
:1046D00027EE257A66EEA76A27EE277A07EE901A6C
:1046E00051080232F8EEE77A0AEB8100944280ED3D
:1046F000006A05EB810067EEA57AC0ED006A0CEB5D
:10470000810009EB810180ED007A98ED0C7A67EE6B
:10471000877AC1ED007ABFD8D7F804903D69D7E910
:1047200002CB60466208BB6949469847D8F82C30EE
:104730007A69D8ED0D6A1A449FED3E7A9FED3E6A84
:10474000131D9246DFF8E4C00022FB612B1D364E9C
:10475000D9E9008E4EE0F4EEC67AF1EE10FAC0F21E
:10476000FC81304645F822000EEB0100D0ED007AC6
:1047700066EEA77AF4EEC77AF1EE10FA49D9F4EEB4
:10478000C67AF1EE10FAC0F2EF813046BBF1020FAB
:1047900043F822002AD0D9F808000844D0ED007A66
:1047A00066EEA77AF4EEC77AF1EE10FA35D9F4EE98
:1047B000C67AF1EE10FAC0F2C98130464AF82200FA
:1047C000D9F80C000144D1ED007A66EEA77AF4EE38
:1047D000C77AF1EE10FA1ED9F4EEC67AF1EE10FAAD
:1047E000C0F2AD813146F86940F82210023294429D
:1047F0007FF6CBAC510808EB81008900D0ED007A40
:1048000066EEA77AF4EEC77AF1EE10FAA3D8604606
:10481000A8E76046BAE76146E5E76046CEE700BF35
:104820000280FFFF000000300082FF7F007E0080DA
:104830000000003404FF7FBF04FF7F3F002C00F026
:10484000EB807A690021D8F82430C7F8109003EB88
:10485000820ED7F81C909300FD610EF104021FED4B
:104860000C6A7B61331D154656F821204808D8EDA7
:104870000C6ABBF1020F82F40002A2F5000207EEFF
:10488000902A53F8212082F40002B8EEE77AA2F5CC
:10489000000227EE067A07EE902A0AEB8002F8EE75
:1048A000E77A27EE267A67EE867A82ED007A09EBC0
:1048B00080024FEA800067EEA67AC2ED007A27D028
:1048C0005EF8212082F40002A2F5000207EE902A91
:1048D00055F8212082F40002B8EEE77AA2F5000232
:1048E00027EE067A07EE902ADCF80820F8EEE77A41
:1048F000024427EE267A67EE867A82ED007A98EDFA
:104900000C7ADCF80C2067EE877A0244C2ED007A5C
:1049100002318C42A8D8D7F8109060466208BB6973
:104920004946FD699847D8F82C307A69D8ED0D6A68
:104930001A441FED407A1FED406A131D9246DFF8BE
:10494000C4C20022FB612B1DAB4ED9E9008E4EE0A4
:10495000F4EEC67AF1EE10FAC0F2C580304645F8A2
:1049600022000EEB0100D0ED007A66EEA77AF4EE9D
:10497000C77AF1EE10FA49D9F4EEC67AF1EE10FAE0
:10498000C0F2BF803046BBF1020F43F822002AD0AC
:10499000D9F808000844D0ED007A66EEA77AF4EE64
:1049A000C77AF1EE10FA35D9F4EEC67AF1EE10FAC4
:1049B000C0F2AE8030464AF82200D9F80C0001441B
:1049C000D1ED007A66EEA77AF4EEC77AF1EE10FA2E
:1049D0001ED9F4EEC67AF1EE10FAC0F28B803146A1
:1049E000F86940F82210023294427FF6CEAB5108AB
:1049F00008EB81008900D0ED007A66EEA77AF4EE2C
:104A0000C77AF1EE10FAA3D86046A8E76046BAE785
:104A10006146E5E76046CEE7224649466046BB6907
:104A20009847FFF7B2BBC7F810B0002298ED0C6AA8
:104A3000331DDFED726AD7F81CB0786956F8221082
:104A400007EE901A53F82210B8EEE77A07EE901AA4
:104A500051080232F8EEE77A27EE267A0AEB810E49
:104A600094420BEB810167EEA67A27EE067A67EE99
:104A7000867A8EED007AC1ED007ADFD88300D7F810
:104A800010B07B614DE61A46C7F810B098ED0C6A7D
:104A9000331DDFED5B6AD7F81CB0786936F9221058
:104AA00007EE101A33F9221007EE901AB8EEC77A03
:104AB00051080232F8EEE77A27EE267A0AEB810EE9
:104AC00094420BEB810167EEA67A27EE067A67EE39
:104AD000867A8EED007AC1ED007ADFD88300D7F8B0
:104AE00010B07B6134E5F0EE675AFEEEE45A15EE45
:104AF000900A34E7F0EE675AFEEEE45A15EE901A8B
:104B00006EE7F0EE675AFEEEE45A15EE900A3AE7C9
:104B1000F0EE675AFEEEE45A15EE900A4BE767EEA8
:104B2000A57AFDEEE77A17EE900A00B232E567EE5D
:104B3000A57AFDEEE77A17EE900A00B23FE5F0EEB7
:104B4000675AFEEEE05A15EE901A4CE6F0EE675A00
:104B5000FEEEE05A15EE900A30E6F0EE675AFEEEF1
:104B6000E05A15EE900AFDE5F0EE675AFEEEE05AC7
:104B700015EE900A0AE667EEA57AFDEEE77A17EEE3
:104B8000901A09B24AE567EEA57AFDEEE77A17EECC
:104B9000900A00B22CE5F0EE675AFEEEE45A15EEEC
:104BA000902A1FE467EEA57AFDEEE77A17EE902AC9
:104BB00012B2FFF731BBF0EE675AFEEEE45A15EE83
:104BC000902AFFF7FDBBF0EE675AFEEEE05A15EEB5
:104BD000902AFFF79BBBF0EE675AFEEEE05A15EE07
:104BE000902AFFF780BB67EEA57AFDEEE77A17EE15
:104BF000902A12B2FFF724BB82FF7F000000003032
:104C0000000000387E0080FF30B5184C154685B096
:104C1000046004F1080EEC460FC98EE80F00D4EDD5
:104C2000047AF5EEC07A8CE80F00F1EE10FA1ADD86
:104C3000B7EE006A94ED057A27EE277AC6EE276A6A
:104C400084ED0D7AC4ED0C6A6DB1204640F8185F12
:104C500002F016FB064903690020064A2162A2629F
:104C6000E36005B030BD012005B030BD383E0724FB
:104C7000002000300000003000680830704700BF9E
:104C8000B1F5807F03680A4628BF4FF48072B1F502
:104C9000807F9A6094BF0020012070470068183020
:104CA00002F04EBB30B5046883B008480D46A368D7
:104CB000A26A216A9B00009004F1180002F0E2FA57
:104CC0000020C4E9000503B030BD00BF4D4000081E
:104CD00010B4074B4FF07E5130240022032019619D
:104CE0009C60D8605DF8044B5961C3E906227047A7
:104CF000383E0724F6EE007A9FED166A20EE207A01
:104D00000160F7EE006A80ED036A80ED020A27EE8B
:104D1000277AC6EE877AF4EEE67AF1EE10FA11DD24
:104D2000F0EE667A4FF07E514FF0000C02760022D2
:104D3000C0ED017AC0F814C0016143768276C0EDFF
:104D4000070A7047F4EEC67AF1EE10FAEAD5F0EEF3
:104D5000467AE7E7000000000268037E128807EE4B
:104D6000902AFBEEC87A1BB1B7EE007A77EE677A2D
:104D7000D0ED056A90ED047A77EEE67A437E67EE31
:104D8000877A0BB1F1EE677A90ED030A90ED017A24
:104D900077EEC07AA7EE270A80ED030A704700BFBE
:104DA000837E80ED020AABB9D0ED077A27EE800A48
:104DB000F6EE007AB7EE007A20EE270AC7EE007A08
:104DC000F4EEC77AF1EE10FA07DDF0EE477AC0EDA7
:104DD000017A7047DFED067AE8E7F5EEC07AF1EE8A
:104DE00010FAF4D5DFED037AC0ED017A704700BF09
:104DF0006F12033B0000000030B585B0044600256B
:104E0000ADF80C10ADF80820ADF8043003F034FB19
:104E1000BDF80C204FF48073206004F11800228349
:104E2000BDF808206383E383A283257101F0FEF8B7
:104E300004F11C0001F0FAF89FED060A019904F153
:104E4000080000F0C3FA4FF6FF736562238405B0D3
:104E500030BD00BF00000000F8B5044603F00CFBB5
:104E6000002623682671834205D104F10800BDE8BD
:104E7000F84000F0C5BA012794F82050206004F1F2
:104E80001800BD40277101F0ADF96DB2284394F8C8
:104E90002150BD4084F8200004F11C0001F0A2F96B
:104EA00094F820306DB2666203F003032843022BAE
:104EB000C0B284F8210009D000F003000228D4D148
:104EC000002BD2D14FF0FF336362CEE78307CCD102
:104ED0006762CAE7704700BFF8B5134F3C687F2C84
:104EE00007D98023114A42F224411C463B60A2F8B4
:104EF0007E100F4D2B68012B0AD90C4E0D4D22460A
:104F00003146284600F032FB0028F8D13860F8BD61
:104F100022460649074800F029FB0028F7D12B68F4
:104F2000386001332B60F8BD743E0724783E0724B7
:104F3000703E0724F83E072430B4154C2168F1B1C7
:104F40004B1E144DE81810F801298C4619460A2A00
:104F500001D00D2A02D14BB1013BF4E70CF1020361
:104F60007F2B10D98023236030BC7047012202239D
:104F700023600D200A236854AB5430BC70470122D3
:104F80000223044DF4E70CF101026146F0E700BF93
:104F9000743E0724783E072410B5094C02460B46A0
:104FA000084821680844C1F1800113F0F9FA236828
:104FB00018442060FFF7C0FFFFF78EFF10BD00BF51
:104FC000743E0724783E07240FB400B583B004A9CB
:104FD00051F8040B0191FFF7DFFF03B05DF804EB1C
:104FE00004B0704710B5044600210A4800F038FAB2
:104FF000002C094B14BF0222002208481A60FFF758
:10500000E3FF0748FFF7E0FF0A20BDE8104003F088
:105010003BBA00BFF83E0724703E072488AA010867
:1050200098AA0108064A0749074808B511F088FD03
:10503000034A04490548BDE8084011F081BD00BF9E
:1050400000000024D54E0008F83E0724FC3E07244B
:10505000074A118830B481800024064D91884FF4AE
:10506000807285600460C180C26030BC704700BF40
:1050700088A801080040003038B50446104694F86E
:1050800095301942237815D0032B19D094F8982025
:10509000002594F896300A4025700B40A26001F07C
:1050A000F8021B09F82A237100F08680092B73D9B6
:1050B000002038BD032BFBD8DFE803F0112A510292
:1050C000F7291CD094F98E2094F88E30002AEFDB5B
:1050D000E21801330020917384F88E3038BD94F8C3
:1050E000942094F8973022711940131F012B2173DB
:1050F00005D994F88F3003F0FD03012B45D100232F
:10510000237018B19022211D12F03EFC012038BD01
:1051100094F8973094F894201940131F2173012BB1
:1051200005D994F88F3003F0FD03012B29D100231A
:10513000237000284CD09022211D12F025FC94F8F9
:1051400094200120032AB4D1237B772BB1D90922E3
:10515000783B227184F8942084F8913038BD94F81B
:10516000973094F894201940012A617300D181B1DD
:1051700018B19022211D12F007FC0023012023709A
:1051800038BD022300202370DCE7022300202370B7
:1051900038BD00232371EBE70122072B227019D1C0
:1051A00001F00703A56084F88F30CBB903221846BD
:1051B00084F88E30227038BD0823237194F899301A
:1051C00000221940227084F8901000289AD19DE79F
:1051D0000120B7E7082BF1D0284684F8943038BD79
:1051E0004B077FF565AF8AE700220A23027003713F
:1051F000704700BFDFED167A8C46B4EE670A10B533
:1052000004468646F1EE10FA2DED028B80ED080A79
:1052100048BFB0EE670AC0ED090AB0EE608A80F8B8
:105220003420BCE80F00AEE80F009CE80F008EE8C9
:105230000F0011F091FEF0EE407AB0EE480AC4ED96
:105240000A7A11F089FE84ED0B0ABDEC028B10BDC9
:1052500095BFD63390F8343010B50446032B4BD8A5
:10526000DFE803F03B2A1502FFF776FD60EE006AE7
:10527000D4ED087A94ED097A26EE800A37EE677A43
:10528000E0EE077AC4ED0C7AB0EE670A10BDFFF7C6
:1052900063FD94ED0A7AD4ED0B7A77EEC77AA0EE2F
:1052A000277AB0EE470A11F0E5FDF0EE407A84ED82
:1052B0000C0AB0EE670A10BDFFF74EFDD4ED087A78
:1052C00094ED097A20EE000A37EE677AE0EE077A6D
:1052D000B0EE670AC4ED0C7A10BDFFF73DFDD4EDCA
:1052E000087A94ED097A37EE677AE0EE077AB0EE45
:1052F000670AC4ED0C7A10BDD0ED0C7AC4E700BF8C
:1053000030B585B004469FED110A9DF82050ADF8E8
:105310000C100399ADF808202A46ADF804308DED45
:10532000000A0EF069FA9DED000A2A46029904F17E
:105330001C000EF061FA9DED000A2A46019904F165
:10534000380005B0BDE830400EF056BA00007A448F
:1053500010B52DED028BF0EE608A0446B0EE418A66
:105360000EF06EFA04F11C00B0EE680A0EF068FA56
:10537000B0EE480A04F13800BDEC028BBDE81040E5
:105380000EF05EBA38B50C46054691ED000A0EF0F7
:1053900057FA94ED010A05F11C000EF051FA94ED54
:1053A000020A05F13800BDE838400EF049BA00BFE6
:1053B00010B504460EF056FA04F11C000EF052FA35
:1053C00004F13800BDE810400EF04CBA70B5044648
:1053D00082B0C1F30726CDB2ADF8041003F04CF84B
:1053E0004FF480724FF001232060A01DA571A280B0
:1053F000E671A36002B0BDE8704000F017BE00BFC8
:1054000038B5044603F038F800222368227183423D
:1054100010D00122A57AE37A954020602271A01D68
:105420006DB243B900F0DEFE40B22843C0B27F281F
:10543000A0720AD038BD00F0D5FEB0FA80F0400965
:105440002843C0B27F28A072F4D103F015F807EE0C
:10545000900AF8EE677AC4ED037A38BD704700BF52
:10546000012910B506D0022915D051B1BDE8104070
:1054700007F06EBD0A46344834490DF011FDE8B11D
:10548000FEE7334B0A46334C334934481C600DF079
:1054900007FD68B1FEE701222C492B480DF000FD05
:1054A00000B1FEE72E4928480DF01CFDC0B1FEE713
:1054B0002B492A480DF016FD60B1FEE72849224825
:1054C0000DF010FD00B1FEE726491F480DF098FCD5
:1054D00008B3FEE7244921480DF092FCA8B1FEE78D
:1054E000204919480DF08CFC00B1FEE716480DF07C
:1054F0000FFD024640B9164B164C174917481C6061
:105500000DF0CEFC68B1FEE7FEE714480DF000FD9B
:105510000028ABD0FEE70C480DF0FAFC0028A5D01F
:10552000FEE70F490D480DF0DDFC00B1FEE70E4926
:105530000A480DF065FC00B1FEE708480DF0E8FCF4
:10554000002893D0FEE700BF9C410724900200246E
:10555000384407245D54000874020024003F0724E7
:105560000C0300245402002444020024084691B293
:1055700008B503F065FA003818BF012008BD00BF68
:1055800010B50B4B012A0B4C08461960216006D060
:10559000022A01D03AB110BD03F068FA2068BDE8D4
:1055A000104003F069BABDE8104003F05FBA00BFD5
:1055B000384407243C440724014806F0A7BF00BF35
:1055C000E0860724014806F0A1BF00BFE08607245B
:1055D000014806F09BBF00BFE0860724704700BF6C
:1055E00030B5D0F80C44ADF2044D3CB3D0F80824EB
:1055F000D0F804349A4224D0EC460021E64601312A
:10560000D0F80834D0F804249B1AC3F30903002B04
:10561000F6D0D0F804345A1C0344C2F309021D79B1
:10562000C0F80424D0F80824D0F804340EF8015B44
:105630009A42E4D1D0F810246046A0470DF2044D00
:1056400030BD0021EC46F5E7F8B5254CE378002B9A
:1056500043D00B680E46002B3FD0002105460F4675
:105660005B1A032B30D96B5C294413F00E0F2BD03F
:1056700003F00F03234493F818382BB3013B481C65
:1056800050FA83F0D4F80434D4F80824013B9B1A70
:10569000C3F3090313B311F801CFD4F80434D4F8D9
:1056A0000824013B9B1AC3F30903002BF5D0D4F85F
:1056B0000834814203F101022344C2F3090283F852
:1056C00004C0C4F80824DDD104372046FFF788FF62
:1056D0003368BFB29F423946C2D3F8BDE370F3E7E7
:1056E00044440724CAB2114BA2F1010210B5B2FA28
:1056F00082F282B00E4C5209ADF804100460012011
:10570000A4F801101146187020460092FFF7A8FE79
:1057100000230A20E37002F0B7FE009A20460549F4
:1057200002B0BDE81040FFF72BBF00BF4044072484
:10573000444407244956000803684FF0010CC3F89D
:105740000C1483F803C0C3F8102470470368D8789A
:10575000704700BF0368D3F80424C3F808247047D7
:1057600030B54FF44072114C114BA4F8012004F6EF
:105770001805104A03F1100E04F6280CC4F8382856
:105780004FF60F02A4F83C28072284F83E280FCBDE
:1057900085E80F009EE80F008CE80F002046064ABF
:1057A0000649BDE8304011F0CBB900BF444407249E
:1057B00090A8010880707FF000000024DD550008EB
:1057C00000B583B04FF0000E4FF0030C4274ADF8FB
:1057D0000410BDF8043080F810E0A0F802C0038087
:1057E00003B05DF804FB00BF2DE9F04FDFF81C8328
:1057F00000258DB0C04C037008F14003426007469D
:1058000001920E46202229464046C4F86831C4F869
:105810006481CDE90255CDE90455CDE90655CDE9C0
:105820000855CDE90A5512F0BDF82022294604F5A5
:10583000A170C4F83151C4F83551C4F83951C4F8D5
:105840003D5112F0AFF8019B84F8485284F8303192
:105850007A68002A6AD02B4604F59871454606F10D
:10586000100A9E46F01856F803B0E2180EF1010E29
:10587000D0F80CC0D0F80490D0F8088044F803B0F9
:10588000C2F80CC04FF0000CC2F80490C2F80880B7
:10589000008A25F802CB10821AF8032001F8012FA4
:1058A000002A70D07A684FF001001233724584F8F4
:1058B0004802D7D84FF4802290489DF80430082140
:1058C0004FF000084FF00009C4F884310023C4E908
:1058D0005B020122C4F8743184F88031C4E95E218E
:1058E00094F84812C4E96489A9B3C4F89821002245
:1058F00084F8813184F888313B78C4E96722002B31
:1059000038D0012200200121013B84F8A421C4E900
:105910006C01082B30D8DFE813F0BD00C200C700CF
:10592000CC00D100D600DB00E100E8009DF8043097
:105930000121C4F87421C4F884314FF4802384F821
:1059400080216E4AC4E95B2308230022C4E95E1368
:105950000023C4E964230123002284F88131002359
:1059600084F888310323C4F898313B78C4E967226E
:10597000002BC6D184F8A431614804F0B9F903467C
:1059800038B1FFBEFEE77A68123372453FF66AAF60
:1059900090E702A95A48029304F008FB82460028C7
:1059A00076D1042240F2FF710A90CDE9081294F8F2
:1059B0003021002A00F0F3804FF006080AEBCA03FA
:1059C0004FEACA0904EB43035B7C072B07D8DFE8E7
:1059D00003F0595C5653504D4A04072307930FFABE
:1059E0008AF6D14406EBC60604EB490904EB4607E8
:1059F0007500384600F01AFB99F81030042B00F3BC
:105A0000AA80022B00F3BD8000F0B98004EB0A03EA
:105A1000002283F8202114F81630002B78D0022BB6
:105A200000F08A80012B40F0B2807B78012B00F0DF
:105A3000B080002B334B18BF002305A93048CDE9B7
:105A4000053803F081FD002840F0AC800AF1010A1E
:105A500094F830315FFA8AFA534540F2A0802A4B1D
:105A600053F82A80AAE706230793B8E7052307938C
:105A7000B5E704230793B2E703230793AFE70223B5
:105A80000793ACE700230793A9E701230793A6E751
:105A9000FFBEFEE703224023C4E96A236CE7072226
:105AA0006023C4E96A2367E70F228023C4E96A23DD
:105AB00062E71F22A023C4E96A235DE73F22C023D7
:105AC000C4E96A2358E77F22E023C4E96A2353E745
:105AD000FF224FF48073C4E96A234DE740F2FF12BE
